{
  "contractName": "ChannelManagerContract",
  "abi": [
    {
      "constant": true,
      "inputs": [
        {
          "name": "channel",
          "type": "address"
        }
      ],
      "name": "contractExists",
      "outputs": [
        {
          "name": "",
          "type": "bool"
        }
      ],
      "payable": false,
      "stateMutability": "view",
      "type": "function"
    },
    {
      "constant": true,
      "inputs": [],
      "name": "owner",
      "outputs": [
        {
          "name": "",
          "type": "address"
        }
      ],
      "payable": false,
      "stateMutability": "view",
      "type": "function"
    },
    {
      "constant": true,
      "inputs": [],
      "name": "contract_version",
      "outputs": [
        {
          "name": "",
          "type": "string"
        }
      ],
      "payable": false,
      "stateMutability": "view",
      "type": "function"
    },
    {
      "constant": true,
      "inputs": [],
      "name": "fee",
      "outputs": [
        {
          "name": "",
          "type": "uint256"
        }
      ],
      "payable": false,
      "stateMutability": "view",
      "type": "function"
    },
    {
      "inputs": [
        {
          "name": "gotoken",
          "type": "address"
        },
        {
          "name": "token_address",
          "type": "address"
        }
      ],
      "payable": false,
      "stateMutability": "nonpayable",
      "type": "constructor"
    },
    {
      "payable": false,
      "stateMutability": "nonpayable",
      "type": "fallback"
    },
    {
      "anonymous": false,
      "inputs": [
        {
          "indexed": false,
          "name": "netting_channel",
          "type": "address"
        },
        {
          "indexed": false,
          "name": "participant1",
          "type": "address"
        },
        {
          "indexed": false,
          "name": "participant2",
          "type": "address"
        },
        {
          "indexed": false,
          "name": "settle_timeout",
          "type": "uint256"
        }
      ],
      "name": "ChannelNew",
      "type": "event"
    },
    {
      "anonymous": false,
      "inputs": [
        {
          "indexed": false,
          "name": "caller_address",
          "type": "address"
        },
        {
          "indexed": false,
          "name": "partner",
          "type": "address"
        }
      ],
      "name": "ChannelDeleted",
      "type": "event"
    },
    {
      "anonymous": false,
      "inputs": [
        {
          "indexed": false,
          "name": "block",
          "type": "uint256"
        },
        {
          "indexed": false,
          "name": "balance",
          "type": "uint256"
        }
      ],
      "name": "FeesCollected",
      "type": "event"
    },
    {
      "anonymous": false,
      "inputs": [
        {
          "indexed": true,
          "name": "previousOwner",
          "type": "address"
        },
        {
          "indexed": true,
          "name": "newOwner",
          "type": "address"
        }
      ],
      "name": "OwnershipTransferred",
      "type": "event"
    },
    {
      "constant": false,
      "inputs": [
        {
          "name": "newOwner",
          "type": "address"
        }
      ],
      "name": "transferOwnership",
      "outputs": [],
      "payable": false,
      "stateMutability": "nonpayable",
      "type": "function"
    },
    {
      "constant": false,
      "inputs": [],
      "name": "collectFees",
      "outputs": [],
      "payable": false,
      "stateMutability": "nonpayable",
      "type": "function"
    },
    {
      "constant": false,
      "inputs": [
        {
          "name": "partner",
          "type": "address"
        },
        {
          "name": "settle_timeout",
          "type": "uint256"
        }
      ],
      "name": "newChannel",
      "outputs": [
        {
          "name": "",
          "type": "address"
        }
      ],
      "payable": false,
      "stateMutability": "nonpayable",
      "type": "function"
    },
    {
      "constant": true,
      "inputs": [],
      "name": "getChannelsAddresses",
      "outputs": [
        {
          "name": "",
          "type": "address[]"
        }
      ],
      "payable": false,
      "stateMutability": "view",
      "type": "function"
    },
    {
      "constant": true,
      "inputs": [],
      "name": "tokenAddress",
      "outputs": [
        {
          "name": "",
          "type": "address"
        }
      ],
      "payable": false,
      "stateMutability": "view",
      "type": "function"
    },
    {
      "constant": true,
      "inputs": [
        {
          "name": "partner",
          "type": "address"
        }
      ],
      "name": "getChannelWith",
      "outputs": [
        {
          "name": "",
          "type": "address"
        }
      ],
      "payable": false,
      "stateMutability": "view",
      "type": "function"
    },
    {
      "constant": true,
      "inputs": [
        {
          "name": "node_address",
          "type": "address"
        }
      ],
      "name": "nettingContractsByAddress",
      "outputs": [
        {
          "name": "",
          "type": "address[]"
        }
      ],
      "payable": false,
      "stateMutability": "view",
      "type": "function"
    },
    {
      "constant": true,
      "inputs": [],
      "name": "getChannelsParticipants",
      "outputs": [
        {
          "name": "",
          "type": "address[]"
        }
      ],
      "payable": false,
      "stateMutability": "view",
      "type": "function"
    }
  ],
  "bytecode": "0x6060604052341561000f57600080fd5b60405160408061142383398101604052808051906020019091908051906020019091905050336000806101000a81548173ffffffffffffffffffffffffffffffffffffffff021916908373ffffffffffffffffffffffffffffffffffffffff16021790555081600160000160006101000a81548173ffffffffffffffffffffffffffffffffffffffff021916908373ffffffffffffffffffffffffffffffffffffffff160217905550806001800160006101000a81548173ffffffffffffffffffffffffffffffffffffffff021916908373ffffffffffffffffffffffffffffffffffffffff16021790555050506113178061010c6000396000f3006060604052600436106100ba576000357c0100000000000000000000000000000000000000000000000000000000900463ffffffff1680630b74b620146100ca578063238bfba2146101345780636785b500146101ad5780636cb30fee146102175780637709bc78146102a55780638da5cb5b146102f65780639d76ea581461034b578063b32c65c8146103a0578063c87965721461042e578063ddca3f4314610443578063f26c6aed1461046c578063f2fde38b146104ee575b34156100c557600080fd5b600080fd5b34156100d557600080fd5b6100dd610527565b6040518080602001828103825283818151815260200191508051906020019060200280838360005b83811015610120578082015181840152602081019050610105565b505050509050019250505060405180910390f35b341561013f57600080fd5b61016b600480803573ffffffffffffffffffffffffffffffffffffffff169060200190919050506107d5565b604051808273ffffffffffffffffffffffffffffffffffffffff1673ffffffffffffffffffffffffffffffffffffffff16815260200191505060405180910390f35b34156101b857600080fd5b6101c0610896565b6040518080602001828103825283818151815260200191508051906020019060200280838360005b838110156102035780820151818401526020810190506101e8565b505050509050019250505060405180910390f35b341561022257600080fd5b61024e600480803573ffffffffffffffffffffffffffffffffffffffff1690602001909190505061092d565b6040518080602001828103825283818151815260200191508051906020019060200280838360005b83811015610291578082015181840152602081019050610276565b505050509050019250505060405180910390f35b34156102b057600080fd5b6102dc600480803573ffffffffffffffffffffffffffffffffffffffff16906020019091905050610a03565b604051808215151515815260200191505060405180910390f35b341561030157600080fd5b610309610a16565b604051808273ffffffffffffffffffffffffffffffffffffffff1673ffffffffffffffffffffffffffffffffffffffff16815260200191505060405180910390f35b341561035657600080fd5b61035e610a3b565b604051808273ffffffffffffffffffffffffffffffffffffffff1673ffffffffffffffffffffffffffffffffffffffff16815260200191505060405180910390f35b34156103ab57600080fd5b6103b3610a67565b6040518080602001828103825283818151815260200191508051906020019080838360005b838110156103f35780820151818401526020810190506103d8565b50505050905090810190601f1680156104205780820380516001836020036101000a031916815260200191505b509250505060405180910390f35b341561043957600080fd5b610441610aa0565b005b341561044e57600080fd5b610456610cd2565b6040518082815260200191505060405180910390f35b341561047757600080fd5b6104ac600480803573ffffffffffffffffffffffffffffffffffffffff16906020019091908035906020019091905050610cd7565b604051808273ffffffffffffffffffffffffffffffffffffffff1673ffffffffffffffffffffffffffffffffffffffff16815260200191505060405180910390f35b34156104f957600080fd5b610525600480803573ffffffffffffffffffffffffffffffffffffffff16906020019091905050611182565b005b61052f6112d7565b60008061053a6112d7565b60008060008060009250600096505b6001600201805490508710156105b85761059f60016002018881548110151561056e57fe5b906000526020600020900160009054906101000a900473ffffffffffffffffffffffffffffffffffffffff16610a03565b156105ab576001830192505b8680600101975050610549565b600283026040518059106105c95750595b9080825280602002602001820160405250945060009550600096505b6001600201805490508710156107c85761063b60016002018881548110151561060a57fe5b906000526020600020900160009054906101000a900473ffffffffffffffffffffffffffffffffffffffff16610a03565b1515610646576107bb565b60016002018781548110151561065857fe5b906000526020600020900160009054906101000a900473ffffffffffffffffffffffffffffffffffffffff1693508373ffffffffffffffffffffffffffffffffffffffff16636d2381b36040518163ffffffff167c0100000000000000000000000000000000000000000000000000000000028152600401608060405180830381600087803b15156106e957600080fd5b5af115156106f657600080fd5b5050506040518051906020018051906020018051906020018051905050925050915081858781518110151561072757fe5b9060200190602002019073ffffffffffffffffffffffffffffffffffffffff16908173ffffffffffffffffffffffffffffffffffffffff168152505060018601955080858781518110151561077857fe5b9060200190602002019073ffffffffffffffffffffffffffffffffffffffff16908173ffffffffffffffffffffffffffffffffffffffff16815250506001860195505b86806001019750506105e5565b8497505050505050505090565b6000600173__ChannelManagerLibrary_________________638a1c00e29091846040518363ffffffff167c0100000000000000000000000000000000000000000000000000000000028152600401808381526020018273ffffffffffffffffffffffffffffffffffffffff1673ffffffffffffffffffffffffffffffffffffffff1681526020019250505060206040518083038186803b151561087857600080fd5b5af4151561088557600080fd5b505050604051805190509050919050565b61089e6112d7565b600160020180548060200260200160405190810160405280929190818152602001828054801561092357602002820191906000526020600020905b8160009054906101000a900473ffffffffffffffffffffffffffffffffffffffff1673ffffffffffffffffffffffffffffffffffffffff16815260200190600101908083116108d9575b5050505050905090565b6109356112d7565b600160040160008373ffffffffffffffffffffffffffffffffffffffff1673ffffffffffffffffffffffffffffffffffffffff1681526020019081526020016000208054806020026020016040519081016040528092919081815260200182805480156109f757602002820191906000526020600020905b8160009054906101000a900473ffffffffffffffffffffffffffffffffffffffff1673ffffffffffffffffffffffffffffffffffffffff16815260200190600101908083116109ad575b50505050509050919050565b600080823b905060008111915050919050565b6000809054906101000a900473ffffffffffffffffffffffffffffffffffffffff1681565b60006001800160009054906101000a900473ffffffffffffffffffffffffffffffffffffffff16905090565b6040805190810160405280600581526020017f302e322e5f00000000000000000000000000000000000000000000000000000081525081565b600080600160000160009054906101000a900473ffffffffffffffffffffffffffffffffffffffff1673ffffffffffffffffffffffffffffffffffffffff166370a08231306040518263ffffffff167c0100000000000000000000000000000000000000000000000000000000028152600401808273ffffffffffffffffffffffffffffffffffffffff1673ffffffffffffffffffffffffffffffffffffffff168152602001915050602060405180830381600087803b1515610b6257600080fd5b5af11515610b6f57600080fd5b505050604051805190509150600160000160009054906101000a900473ffffffffffffffffffffffffffffffffffffffff1673ffffffffffffffffffffffffffffffffffffffff1663a9059cbb6000809054906101000a900473ffffffffffffffffffffffffffffffffffffffff16846040518363ffffffff167c0100000000000000000000000000000000000000000000000000000000028152600401808373ffffffffffffffffffffffffffffffffffffffff1673ffffffffffffffffffffffffffffffffffffffff16815260200182815260200192505050602060405180830381600087803b1515610c6357600080fd5b5af11515610c7057600080fd5b50505060405180519050905060011515811515141515610c8f57600080fd5b7f49d512bf9cb224241c05691e73eb9fab078cf350c7dbcbcf66788f1fc0cc8b0b4383604051808381526020018281526020019250505060405180910390a15050565b603281565b6000806000806032600160000160009054906101000a900473ffffffffffffffffffffffffffffffffffffffff1673ffffffffffffffffffffffffffffffffffffffff1663dd62ed3e33306040518363ffffffff167c0100000000000000000000000000000000000000000000000000000000028152600401808373ffffffffffffffffffffffffffffffffffffffff1673ffffffffffffffffffffffffffffffffffffffff1681526020018273ffffffffffffffffffffffffffffffffffffffff1673ffffffffffffffffffffffffffffffffffffffff16815260200192505050602060405180830381600087803b1515610dd257600080fd5b5af11515610ddf57600080fd5b5050506040518051905010151515610df657600080fd5b610dff866107d5565b925060008373ffffffffffffffffffffffffffffffffffffffff16141515610eb9577fda8d2f351e0f7c8c368e631ce8ab15973e7582ece0c347d75a5cff49eb899eb73387604051808373ffffffffffffffffffffffffffffffffffffffff1673ffffffffffffffffffffffffffffffffffffffff1681526020018273ffffffffffffffffffffffffffffffffffffffff1673ffffffffffffffffffffffffffffffffffffffff1681526020019250505060405180910390a15b600173__ChannelManagerLibrary_________________63941583a5909188886040518463ffffffff167c0100000000000000000000000000000000000000000000000000000000028152600401808481526020018373ffffffffffffffffffffffffffffffffffffffff1673ffffffffffffffffffffffffffffffffffffffff168152602001828152602001935050505060206040518083038186803b1515610f6257600080fd5b5af41515610f6f57600080fd5b505050604051805190509150600160000160009054906101000a900473ffffffffffffffffffffffffffffffffffffffff1673ffffffffffffffffffffffffffffffffffffffff166323b872dd338460326040518463ffffffff167c0100000000000000000000000000000000000000000000000000000000028152600401808473ffffffffffffffffffffffffffffffffffffffff1673ffffffffffffffffffffffffffffffffffffffff1681526020018373ffffffffffffffffffffffffffffffffffffffff1673ffffffffffffffffffffffffffffffffffffffff1681526020018281526020019350505050602060405180830381600087803b151561107757600080fd5b5af1151561108457600080fd5b505050604051805190509050600115158115151415156110a357600080fd5b7f7bd269696a33040df6c111efd58439c9c77909fcbe90f7511065ac277e175dac82338888604051808573ffffffffffffffffffffffffffffffffffffffff1673ffffffffffffffffffffffffffffffffffffffff1681526020018473ffffffffffffffffffffffffffffffffffffffff1673ffffffffffffffffffffffffffffffffffffffff1681526020018373ffffffffffffffffffffffffffffffffffffffff1673ffffffffffffffffffffffffffffffffffffffff16815260200182815260200194505050505060405180910390a181935050505092915050565b6000809054906101000a900473ffffffffffffffffffffffffffffffffffffffff1673ffffffffffffffffffffffffffffffffffffffff163373ffffffffffffffffffffffffffffffffffffffff161415156111dd57600080fd5b600073ffffffffffffffffffffffffffffffffffffffff168173ffffffffffffffffffffffffffffffffffffffff161415151561121957600080fd5b8073ffffffffffffffffffffffffffffffffffffffff166000809054906101000a900473ffffffffffffffffffffffffffffffffffffffff1673ffffffffffffffffffffffffffffffffffffffff167f8be0079c531659141344cd1fd0a4f28419497f9722a3daafe3b4186f6b6457e060405160405180910390a3806000806101000a81548173ffffffffffffffffffffffffffffffffffffffff021916908373ffffffffffffffffffffffffffffffffffffffff16021790555050565b6020604051908101604052806000815250905600a165627a7a72305820e1d6e920a69a0435539d0de9d7829fe5d72f6d686ca02b09ffa951bf74a2ad3a0029",
  "source": "pragma solidity ^0.4.11;\n\nimport \"./Token.sol\";\nimport \"./Utils.sol\";\nimport \"./ChannelManagerLibrary.sol\";\n\n// for each token a manager will be deployed, to reduce gas usage for manager\n// deployment the logic is moved into a library and this contract will work\n// only as a proxy/state container.\ncontract ChannelManagerContract is Utils {\n    string constant public contract_version = \"0.2._\";\n    uint256 constant public fee = 50;\n\n    address public owner;\n\n    using ChannelManagerLibrary for ChannelManagerLibrary.Data;\n    ChannelManagerLibrary.Data data;\n\n    event ChannelNew(\n        address netting_channel,\n        address participant1,\n        address participant2,\n        uint settle_timeout\n    );\n\n    event ChannelDeleted(\n        address caller_address,\n        address partner\n    );\n\n    event FeesCollected(\n        uint256 block,\n        uint256 balance\n    );\n\n    event OwnershipTransferred(\n        address indexed previousOwner, \n        address indexed newOwner\n    );\n    \n    //OpenZeppelin implementation \n    modifier onlyOwner() {\n        require(msg.sender == owner);\n        _;\n    }\n\n    function transferOwnership(address newOwner) public onlyOwner {\n        require(newOwner != address(0));\n        emit OwnershipTransferred(owner, newOwner);\n        owner = newOwner;\n    }\n\n    function ChannelManagerContract(address gotoken, address token_address) public {\n        owner = msg.sender;\n        data.goToken = Token(gotoken);\n        data.token = Token(token_address);\n    }\n\n    function collectFees() public {\n        uint256 balance = data.goToken.balanceOf(this);\n        bool success = data.goToken.transfer(owner,balance);\n        require(success == true);\n        emit FeesCollected(block.number,balance);\n    }\n\n    /// @notice Create a new payment channel between two parties\n    /// @param partner The address of the partner\n    /// @param settle_timeout The settle timeout in blocks\n    /// @return The address of the newly created NettingChannelContract.\n    function newChannel(address partner, uint settle_timeout)\n        public\n        returns (address)\n    {\n        //the user has to set allowance for our channel manager.  \n        //maybe we can create a delegateCall extension \n        require(data.goToken.allowance(msg.sender,this) >= fee );\n        \n        address old_channel = getChannelWith(partner);\n        if (old_channel != 0) {\n            emit ChannelDeleted(msg.sender, partner);\n        }\n\n        address new_channel = data.newChannel(partner, settle_timeout);\n        bool success = data.goToken.transferFrom(msg.sender, new_channel, fee );\n        require(success == true);    \n        emit ChannelNew(new_channel, msg.sender, partner, settle_timeout);\n        return new_channel;\n        \n    }\n\n    /// @notice Get all channels\n    /// @return All the open channels\n    function getChannelsAddresses() public constant returns (address[]) {\n        return data.all_channels;\n    }\n\n    /// @notice Get the address of the channel token\n    /// @return The token\n    function tokenAddress() public constant returns (address) {\n        return data.token;\n    }\n\n    /// @notice Get the address of channel with a partner\n    /// @param partner The address of the partner\n    /// @return The address of the channel\n    function getChannelWith(address partner) public constant returns (address) {\n        return data.getChannelWith(partner);\n    }\n\n    /// @notice Get all channels that an address participates in.\n    /// @param node_address The address of the node\n    /// @return The channel's addresses that node_address participates in.\n    function nettingContractsByAddress(address node_address)\n        public\n        constant\n        returns (address[])\n    {\n        return data.nodeaddress_to_channeladdresses[node_address];\n    }\n\n    /// @notice Get all participants of all channels\n    /// @return All participants in all channels\n    function getChannelsParticipants() public constant returns (address[])\n    {\n        uint i;\n        uint pos;\n        address[] memory result;\n        NettingChannelContract channel;\n\n        uint open_channels_num = 0;\n        for (i = 0; i < data.all_channels.length; i++) {\n            if (contractExists(data.all_channels[i])) {\n                open_channels_num += 1;\n            }\n        }\n        result = new address[](open_channels_num * 2);\n\n        pos = 0;\n        for (i = 0; i < data.all_channels.length; i++) {\n            if (!contractExists(data.all_channels[i])) {\n                continue;\n            }\n            channel = NettingChannelContract(data.all_channels[i]);\n\n            var (address1, , address2, ) = channel.addressAndBalance();\n\n            result[pos] = address1;\n            pos += 1;\n            result[pos] = address2;\n            pos += 1;\n        }\n\n        return result;\n    }\n\n    function () public { revert(); }\n}\n",
  "sourcePath": "/Users/amitshah/Documents/nodejs/javascript/blockchain-service/smart-contracts/contracts/ChannelManagerContract.sol",
  "compiler": {
    "name": "solc",
    "version": "0.4.21+commit.dfe3193c.Emscripten.clang"
  },
  "schemaVersion": "2.0.0",
  "updatedAt": "2018-04-20T23:08:17.106Z"
}