{
  "contractName": "ChannelManagerLibrary",
  "abi": [
    {
      "constant": true,
      "inputs": [],
      "name": "contract_version",
      "outputs": [
        {
          "name": "",
          "type": "string"
        }
      ],
      "payable": false,
      "stateMutability": "view",
      "type": "function"
    },
    {
      "constant": true,
      "inputs": [],
      "name": "fee",
      "outputs": [
        {
          "name": "",
          "type": "uint256"
        }
      ],
      "payable": false,
      "stateMutability": "view",
      "type": "function"
    },
    {
      "constant": false,
      "inputs": [
        {
          "name": "self",
          "type": "ChannelManagerLibrary.Data storage"
        },
        {
          "name": "partner",
          "type": "address"
        },
        {
          "name": "settle_timeout",
          "type": "uint256"
        }
      ],
      "name": "newChannel",
      "outputs": [
        {
          "name": "",
          "type": "address"
        }
      ],
      "payable": false,
      "stateMutability": "nonpayable",
      "type": "function"
    },
    {
      "constant": true,
      "inputs": [
        {
          "name": "self",
          "type": "ChannelManagerLibrary.Data storage"
        },
        {
          "name": "partner",
          "type": "address"
        }
      ],
      "name": "getChannelWith",
      "outputs": [
        {
          "name": "",
          "type": "address"
        }
      ],
      "payable": false,
      "stateMutability": "view",
      "type": "function"
    }
  ],
  "bytecode": "0x6127f9610030600b82828239805160001a6073146000811461002057610022565bfe5b5030600052607381538281f3007300000000000000000000000000000000000000003014606060405260043610610079576000357c0100000000000000000000000000000000000000000000000000000000900463ffffffff1680638a1c00e21461007e578063941583a5146100f5578063b32c65c814610180578063ddca3f4314610203575b600080fd5b6100b3600480803590602001909190803573ffffffffffffffffffffffffffffffffffffffff16906020019091905050610221565b604051808273ffffffffffffffffffffffffffffffffffffffff1673ffffffffffffffffffffffffffffffffffffffff16815260200191505060405180910390f35b811561010057600080fd5b61013e600480803590602001909190803573ffffffffffffffffffffffffffffffffffffffff169060200190919080359060200190919050506102ac565b604051808273ffffffffffffffffffffffffffffffffffffffff1673ffffffffffffffffffffffffffffffffffffffff16815260200191505060405180910390f35b61018861099e565b6040518080602001828103825283818151815260200191508051906020019080838360005b838110156101c85780820151818401526020810190506101ad565b50505050905090810190601f1680156101f55780820380516001836020036101000a031916815260200191505b509250505060405180910390f35b61020b6109d7565b6040518082815260200191505060405180910390f35b600080600061023033856109dc565b915084600301600083600019166000191681526020019081526020016000205490506000811415156102a357846002016001820381548110151561027057fe5b906000526020600020900160009054906101000a900473ffffffffffffffffffffffffffffffffffffffff1692506102a4565b5b505092915050565b60008060008060008060008060008b60040160003373ffffffffffffffffffffffffffffffffffffffff1673ffffffffffffffffffffffffffffffffffffffff16815260200190815260200160002097508b60040160008c73ffffffffffffffffffffffffffffffffffffffff1673ffffffffffffffffffffffffffffffffffffffff168152602001908152602001600020965061034a338c6109dc565b95508b600301600087600019166000191681526020019081526020016000205494508b60010160009054906101000a900473ffffffffffffffffffffffffffffffffffffffff16338c8c8f60000160009054906101000a900473ffffffffffffffffffffffffffffffffffffffff166103c1610b5d565b808673ffffffffffffffffffffffffffffffffffffffff1673ffffffffffffffffffffffffffffffffffffffff1681526020018573ffffffffffffffffffffffffffffffffffffffff1673ffffffffffffffffffffffffffffffffffffffff1681526020018473ffffffffffffffffffffffffffffffffffffffff1673ffffffffffffffffffffffffffffffffffffffff1681526020018381526020018273ffffffffffffffffffffffffffffffffffffffff1673ffffffffffffffffffffffffffffffffffffffff16815260200195505050505050604051809103906000f08015156104ad57600080fd5b935060008514151561072b578b600201600186038154811015156104cd57fe5b906000526020600020900160009054906101000a900473ffffffffffffffffffffffffffffffffffffffff16925061050483610b4a565b15151561051057600080fd5b8b60050160003373ffffffffffffffffffffffffffffffffffffffff1673ffffffffffffffffffffffffffffffffffffffff16815260200190815260200160002060008c73ffffffffffffffffffffffffffffffffffffffff1673ffffffffffffffffffffffffffffffffffffffff1681526020019081526020016000205491508b60050160008c73ffffffffffffffffffffffffffffffffffffffff1673ffffffffffffffffffffffffffffffffffffffff16815260200190815260200160002060003373ffffffffffffffffffffffffffffffffffffffff1673ffffffffffffffffffffffffffffffffffffffff168152602001908152602001600020549050838c6002016001870381548110151561062757fe5b906000526020600020900160006101000a81548173ffffffffffffffffffffffffffffffffffffffff021916908373ffffffffffffffffffffffffffffffffffffffff16021790555083886001840381548110151561068257fe5b906000526020600020900160006101000a81548173ffffffffffffffffffffffffffffffffffffffff021916908373ffffffffffffffffffffffffffffffffffffffff1602179055508387600183038154811015156106dd57fe5b906000526020600020900160006101000a81548173ffffffffffffffffffffffffffffffffffffffff021916908373ffffffffffffffffffffffffffffffffffffffff16021790555061098c565b8b60020180548060010182816107419190610b6d565b9160005260206000209001600086909190916101000a81548173ffffffffffffffffffffffffffffffffffffffff021916908373ffffffffffffffffffffffffffffffffffffffff160217905550508780548060010182816107a39190610b6d565b9160005260206000209001600086909190916101000a81548173ffffffffffffffffffffffffffffffffffffffff021916908373ffffffffffffffffffffffffffffffffffffffff160217905550508680548060010182816108059190610b6d565b9160005260206000209001600086909190916101000a81548173ffffffffffffffffffffffffffffffffffffffff021916908373ffffffffffffffffffffffffffffffffffffffff160217905550508b600201805490508c600301600088600019166000191681526020019081526020016000208190555087805490508c60050160003373ffffffffffffffffffffffffffffffffffffffff1673ffffffffffffffffffffffffffffffffffffffff16815260200190815260200160002060008d73ffffffffffffffffffffffffffffffffffffffff1673ffffffffffffffffffffffffffffffffffffffff1681526020019081526020016000208190555086805490508c60050160008d73ffffffffffffffffffffffffffffffffffffffff1673ffffffffffffffffffffffffffffffffffffffff16815260200190815260200160002060003373ffffffffffffffffffffffffffffffffffffffff1673ffffffffffffffffffffffffffffffffffffffff168152602001908152602001600020819055505b83985050505050505050509392505050565b6040805190810160405280600581526020017f302e322e5f00000000000000000000000000000000000000000000000000000081525081565b603281565b60008173ffffffffffffffffffffffffffffffffffffffff168373ffffffffffffffffffffffffffffffffffffffff161015610aad578282604051808373ffffffffffffffffffffffffffffffffffffffff1673ffffffffffffffffffffffffffffffffffffffff166c010000000000000000000000000281526014018273ffffffffffffffffffffffffffffffffffffffff1673ffffffffffffffffffffffffffffffffffffffff166c010000000000000000000000000281526014019250505060405180910390209050610b44565b8183604051808373ffffffffffffffffffffffffffffffffffffffff1673ffffffffffffffffffffffffffffffffffffffff166c010000000000000000000000000281526014018273ffffffffffffffffffffffffffffffffffffffff1673ffffffffffffffffffffffffffffffffffffffff166c0100000000000000000000000002815260140192505050604051809103902090505b92915050565b600080823b905060008111915050919050565b604051611c0f80610bbf83390190565b815481835581811511610b9457818360005260206000209182019101610b939190610b99565b5b505050565b610bbb91905b80821115610bb7576000816000905550600101610b9f565b5090565b9056006060604052341561000f57600080fd5b60405160a080611c0f8339810160405280805190602001909190805190602001909190805190602001909190805190602001909190805190602001909190505081600681101580156100645750622932e08111155b151561006f57600080fd5b8373ffffffffffffffffffffffffffffffffffffffff168573ffffffffffffffffffffffffffffffffffffffff16141515156100aa57600080fd5b84600060050160006002811015156100be57fe5b6006020160000160006101000a81548173ffffffffffffffffffffffffffffffffffffffff021916908373ffffffffffffffffffffffffffffffffffffffff160217905550836000600501600160028110151561011757fe5b6006020160000160006101000a81548173ffffffffffffffffffffffffffffffffffffffff021916908373ffffffffffffffffffffffffffffffffffffffff1602179055506001600060110160008773ffffffffffffffffffffffffffffffffffffffff1673ffffffffffffffffffffffffffffffffffffffff16815260200190815260200160002060006101000a81548160ff021916908360ff1602179055506002600060110160008673ffffffffffffffffffffffffffffffffffffffff1673ffffffffffffffffffffffffffffffffffffffff16815260200190815260200160002060006101000a81548160ff021916908360ff16021790555085600060040160006101000a81548173ffffffffffffffffffffffffffffffffffffffff021916908373ffffffffffffffffffffffffffffffffffffffff1602179055508260008001819055504360006001018190555081600060120160016101000a81548173ffffffffffffffffffffffffffffffffffffffff021916908373ffffffffffffffffffffffffffffffffffffffff16021790555033600060130160006101000a81548173ffffffffffffffffffffffffffffffffffffffff021916908373ffffffffffffffffffffffffffffffffffffffff160217905550505050505050611907806103086000396000f300606060405260043610610112576000357c0100000000000000000000000000000000000000000000000000000000900463ffffffff16806311da60b414610117578063202ac3bc1461012c5780632cc78569146101d9578063378c4c1c146102525780635387704f1461030e57806353af5d1014610397578063590e1ae3146103ec578063597e1fb5146104155780635f88eade1461043e5780636d2381b31461046757806373d4a13a146104fd5780637ebdc4781461060b5780639d76ea58146106345780639f9ea29d14610689578063adf598f814610710578063b32c65c814610739578063b6b55f25146107c7578063c70fa79414610802578063da2512791461086d578063ddca3f43146108f6575b600080fd5b341561012257600080fd5b61012a61091f565b005b341561013757600080fd5b6101d7600480803590602001908201803590602001908080601f0160208091040260200160405190810160405280939291908181526020018383808284378201915050505050509190803590602001908201803590602001908080601f01602080910402602001604051908101604052809392919081815260200183838082843782019150505050505091908035600019169060200190919050506109ca565b005b34156101e457600080fd5b610234600480803590602001908201803590602001908080601f01602080910402602001604051908101604052809392919081815260200183838082843782019150505050505091905050610ba9565b60405180826000191660001916815260200191505060405180910390f35b341561025d57600080fd5b6102f0600480803590602001908201803590602001908080601f0160208091040260200160405190810160405280939291908181526020018383808284378201915050505050509190803590602001908201803590602001908080601f01602080910402602001604051908101604052809392919081815260200183838082843782019150505050505091905050610c15565b60405180826000191660001916815260200191505060405180910390f35b341561031957600080fd5b6103956004808035906020019091908035906020019091908035600019169060200190919080356000191690602001909190803590602001908201803590602001908080601f01602080910402602001604051908101604052809392919081815260200183838082843782019150505050505091905050610d3e565b005b34156103a257600080fd5b6103aa6112d8565b604051808273ffffffffffffffffffffffffffffffffffffffff1673ffffffffffffffffffffffffffffffffffffffff16815260200191505060405180910390f35b34156103f757600080fd5b6103ff611304565b6040518082815260200191505060405180910390f35b341561042057600080fd5b610428611309565b6040518082815260200191505060405180910390f35b341561044957600080fd5b610451611315565b6040518082815260200191505060405180910390f35b341561047257600080fd5b61047a611321565b604051808573ffffffffffffffffffffffffffffffffffffffff1673ffffffffffffffffffffffffffffffffffffffff1681526020018481526020018373ffffffffffffffffffffffffffffffffffffffff1673ffffffffffffffffffffffffffffffffffffffff16815260200182815260200194505050505060405180910390f35b341561050857600080fd5b6105106113c0565b604051808981526020018881526020018781526020018673ffffffffffffffffffffffffffffffffffffffff1673ffffffffffffffffffffffffffffffffffffffff1681526020018573ffffffffffffffffffffffffffffffffffffffff1673ffffffffffffffffffffffffffffffffffffffff168152602001841515151581526020018373ffffffffffffffffffffffffffffffffffffffff1673ffffffffffffffffffffffffffffffffffffffff1681526020018273ffffffffffffffffffffffffffffffffffffffff1673ffffffffffffffffffffffffffffffffffffffff1681526020019850505050505050505060405180910390f35b341561061657600080fd5b61061e611483565b6040518082815260200191505060405180910390f35b341561063f57600080fd5b61064761148f565b604051808273ffffffffffffffffffffffffffffffffffffffff1673ffffffffffffffffffffffffffffffffffffffff16815260200191505060405180910390f35b341561069457600080fd5b6106e4600480803590602001908201803590602001908080601f016020809104026020016040519081016040528093929190818152602001838380828437820191505050505050919050506114bb565b604051808481526020018381526020018260001916600019168152602001935050505060405180910390f35b341561071b57600080fd5b6107236114fc565b6040518082815260200191505060405180910390f35b341561074457600080fd5b61074c611501565b6040518080602001828103825283818151815260200191508051906020019080838360005b8381101561078c578082015181840152602081019050610771565b50505050905090810190601f1680156107b95780820380516001836020036101000a031916815260200191505b509250505060405180910390f35b34156107d257600080fd5b6107e8600480803590602001909190505061153a565b604051808215151515815260200191505060405180910390f35b341561080d57600080fd5b6108156116b3565b604051808473ffffffffffffffffffffffffffffffffffffffff1673ffffffffffffffffffffffffffffffffffffffff1681526020018381526020018260001916600019168152602001935050505060405180910390f35b341561087857600080fd5b6108f46004808035906020019091908035906020019091908035600019169060200190919080356000191690602001909190803590602001908201803590602001908080601f01602080910402602001604051908101604052809392919081815260200183838082843782019150505050505091905050611752565b005b341561090157600080fd5b6109096118d6565b6040518082815260200191505060405180910390f35b600073__NettingChannelLibrary_________________63de394e0d90916040518263ffffffff167c01000000000000000000000000000000000000000000000000000000000281526004018082815260200191505060006040518083038186803b151561098c57600080fd5b5af4151561099957600080fd5b5050507f6713dea2491bc95585ea9be0d6993fc7790fdcd04f495a7e7592fbd80bbe00de60405160405180910390a1565b600073__NettingChannelLibrary_________________63c252246290918585856040518563ffffffff167c01000000000000000000000000000000000000000000000000000000000281526004018085815260200180602001806020018460001916600019168152602001838103835286818151815260200191508051906020019080838360005b83811015610a6e578082015181840152602081019050610a53565b50505050905090810190601f168015610a9b5780820380516001836020036101000a031916815260200191505b50838103825285818151815260200191508051906020019080838360005b83811015610ad4578082015181840152602081019050610ab9565b50505050905090810190601f168015610b015780820380516001836020036101000a031916815260200191505b50965050505050505060006040518083038186803b1515610b2157600080fd5b5af41515610b2e57600080fd5b5050507fa2e2842eefea7e32abccccd9d3fae92608319362c3905ef73de44938c059253681336040518083600019166000191681526020018273ffffffffffffffffffffffffffffffffffffffff1673ffffffffffffffffffffffffffffffffffffffff1681526020019250505060405180910390a1505050565b6000816040518082805190602001908083835b602083101515610be15780518252602082019150602081019050602083039250610bbc565b6001836020036101000a03801982511681845116808217855250505050505090500191505060405180910390209050919050565b600080600080600060208651811515610c2a57fe5b06141515610c3757600080fd5b856040518082805190602001908083835b602083101515610c6d5780518252602082019150602081019050602083039250610c48565b6001836020036101000a03801982511681845116808217855250505050505090500191505060405180910390209150602092505b845183111515610d3257828501519050806000191682600019161015610cf657818160405180836000191660001916815260200182600019166000191681526020019250505060405180910390209150610d27565b8082604051808360001916600019168152602001826000191660001916815260200192505050604051809103902091505b602083019250610ca1565b81935050505092915050565b60008073__NettingChannelLibrary_________________636f857275909188888888886040518763ffffffff167c0100000000000000000000000000000000000000000000000000000000028152600401808781526020018681526020018581526020018460001916600019168152602001836000191660001916815260200180602001828103825283818151815260200191508051906020019080838360005b83811015610dfb578082015181840152602081019050610de0565b50505050905090810190601f168015610e285780820380516001836020036101000a031916815260200191505b5097505050505050505060006040518083038186803b1515610e4957600080fd5b5af41515610e5657600080fd5b505050606460006001015460006002015403111561116757600060120160019054906101000a900473ffffffffffffffffffffffffffffffffffffffff1673ffffffffffffffffffffffffffffffffffffffff1663a9059cbb60006005016000600281101515610ec257fe5b6006020160000160009054906101000a900473ffffffffffffffffffffffffffffffffffffffff1660196040518363ffffffff167c0100000000000000000000000000000000000000000000000000000000028152600401808373ffffffffffffffffffffffffffffffffffffffff1673ffffffffffffffffffffffffffffffffffffffff16815260200182815260200192505050602060405180830381600087803b1515610f7057600080fd5b5af11515610f7d57600080fd5b50505060405180519050905060011515811515141515610f9c57600080fd5b60009050600060120160019054906101000a900473ffffffffffffffffffffffffffffffffffffffff1673ffffffffffffffffffffffffffffffffffffffff1663a9059cbb600060130160009054906101000a900473ffffffffffffffffffffffffffffffffffffffff1660196032036040518363ffffffff167c0100000000000000000000000000000000000000000000000000000000028152600401808373ffffffffffffffffffffffffffffffffffffffff1673ffffffffffffffffffffffffffffffffffffffff16815260200182815260200192505050602060405180830381600087803b151561109057600080fd5b5af1151561109d57600080fd5b505050604051805190509050600115158115151415156110bc57600080fd5b7fbb28353e4598c3b9199101a66e0989549b659a59a54d2c27fbb183f1932c8e6d600060050160006002811015156110f057fe5b6006020160000160009054906101000a900473ffffffffffffffffffffffffffffffffffffffff166019604051808373ffffffffffffffffffffffffffffffffffffffff1673ffffffffffffffffffffffffffffffffffffffff1681526020018281526020019250505060405180910390a161126d565b600060120160019054906101000a900473ffffffffffffffffffffffffffffffffffffffff1673ffffffffffffffffffffffffffffffffffffffff1663a9059cbb600060130160009054906101000a900473ffffffffffffffffffffffffffffffffffffffff1660326040518363ffffffff167c0100000000000000000000000000000000000000000000000000000000028152600401808373ffffffffffffffffffffffffffffffffffffffff1673ffffffffffffffffffffffffffffffffffffffff16815260200182815260200192505050602060405180830381600087803b151561125457600080fd5b5af1151561126157600080fd5b50505060405180519050505b7f93daadf23cc2150b386a6c3b39f6e61b9c555fc1cec423e4c93ac9d36b008fef33604051808273ffffffffffffffffffffffffffffffffffffffff1673ffffffffffffffffffffffffffffffffffffffff16815260200191505060405180910390a1505050505050565b60008060030160009054906101000a900473ffffffffffffffffffffffffffffffffffffffff16905090565b601981565b60008060020154905090565b60008060010154905090565b6000806000806000806000600501600060028110151561133d57fe5b6006020191506000600501600160028110151561135657fe5b6006020190508160000160009054906101000a900473ffffffffffffffffffffffffffffffffffffffff169550816001015494508060000160009054906101000a900473ffffffffffffffffffffffffffffffffffffffff16935080600101549250505090919293565b60008060000154908060010154908060020154908060030160009054906101000a900473ffffffffffffffffffffffffffffffffffffffff16908060040160009054906101000a900473ffffffffffffffffffffffffffffffffffffffff16908060120160009054906101000a900460ff16908060120160019054906101000a900473ffffffffffffffffffffffffffffffffffffffff16908060130160009054906101000a900473ffffffffffffffffffffffffffffffffffffffff16905088565b60008060000154905090565b60008060040160009054906101000a900473ffffffffffffffffffffffffffffffffffffffff16905090565b600080600080600080606087511415156114d457600080fd5b6020870151925060408701519150606087015190508282829550955095505050509193909250565b606481565b6040805190810160405280600581526020017f302e322e5f00000000000000000000000000000000000000000000000000000081525081565b60008060008073__NettingChannelLibrary_________________633268a05a9091866040518363ffffffff167c01000000000000000000000000000000000000000000000000000000000281526004018083815260200182815260200192505050604080518083038186803b15156115b257600080fd5b5af415156115bf57600080fd5b5050506040518051906020018051905080925081935050506001151582151514156116a9577f9cb02993ef7311b37acc6bdfc1a8397160be258a877d78b31f4e366caf7bfcef600060040160009054906101000a900473ffffffffffffffffffffffffffffffffffffffff163383604051808473ffffffffffffffffffffffffffffffffffffffff1673ffffffffffffffffffffffffffffffffffffffff1681526020018373ffffffffffffffffffffffffffffffffffffffff1673ffffffffffffffffffffffffffffffffffffffff168152602001828152602001935050505060405180910390a15b8192505050919050565b60008060008073__NettingChannelLibrary_________________63f246b5f890916040518263ffffffff167c01000000000000000000000000000000000000000000000000000000000281526004018082815260200191505060606040518083038186803b151561172457600080fd5b5af4151561173157600080fd5b50505060405180519060200180519060200180519050925092509250909192565b600073__NettingChannelLibrary_________________6351062823909187878787876040518763ffffffff167c0100000000000000000000000000000000000000000000000000000000028152600401808781526020018681526020018581526020018460001916600019168152602001836000191660001916815260200180602001828103825283818151815260200191508051906020019080838360005b8381101561180e5780820151818401526020810190506117f3565b50505050905090810190601f16801561183b5780820380516001836020036101000a031916815260200191505b5097505050505050505060006040518083038186803b151561185c57600080fd5b5af4151561186957600080fd5b5050507fa0379b1bd0864245b4ff39bf6a023065e80d0e9276d2671d94b9f653b4bbcdfe33604051808273ffffffffffffffffffffffffffffffffffffffff1673ffffffffffffffffffffffffffffffffffffffff16815260200191505060405180910390a15050505050565b6032815600a165627a7a72305820ef2b0fa2fa5f13f8e64f6adee3acf47a36ea0a1b52d160fd68ebdd3b970865f10029a165627a7a72305820a81cb51c6c8ca9616988026faa479e29dca5ed297f65a0b749cd0cbf0bd911840029",
  "source": "pragma solidity ^0.4.16;\n\nimport \"./Token.sol\";\nimport \"./NettingChannelContract.sol\";\n\nlibrary ChannelManagerLibrary {\n    string constant public contract_version = \"0.2._\";\n    uint256 constant public fee = 50;\n\n\n    struct Data {\n        Token goToken;\n        Token token;\n\n        address[] all_channels;\n        mapping(bytes32 => uint) partyhash_to_channelpos;\n\n        mapping(address => address[]) nodeaddress_to_channeladdresses;\n        mapping(address => mapping(address => uint)) node_index;\n    }\n\n    /// @notice Create a new payment channel between two parties\n    /// @param partner The address of the partner\n    /// @param settle_timeout The settle timeout in blocks\n    /// @return The address of the newly created NettingChannelContract.\n    function newChannel(Data storage self, address partner, uint settle_timeout)\n        public\n        returns (address)\n    {\n        \n\n        address[] storage caller_channels = self.nodeaddress_to_channeladdresses[msg.sender];\n        address[] storage partner_channels = self.nodeaddress_to_channeladdresses[partner];\n\n        bytes32 party_hash = partyHash(msg.sender, partner);\n        uint channel_pos = self.partyhash_to_channelpos[party_hash];\n\n        address new_channel_address = new NettingChannelContract(\n            self.token,\n            msg.sender,\n            partner,\n            settle_timeout,\n            self.goToken\n        );\n\n        if (channel_pos != 0) {\n            // Check if the channel was settled. Once a channel is settled it\n            // kills itself, so address must not have code.\n            address settled_channel = self.all_channels[channel_pos - 1];\n            require(!contractExists(settled_channel));\n\n            uint caller_pos = self.node_index[msg.sender][partner];\n            uint partner_pos = self.node_index[partner][msg.sender];\n\n            // replace the channel address in-place\n            self.all_channels[channel_pos - 1] = new_channel_address;\n            caller_channels[caller_pos - 1] = new_channel_address;\n            partner_channels[partner_pos - 1] = new_channel_address;\n\n        } else {\n            self.all_channels.push(new_channel_address);\n            caller_channels.push(new_channel_address);\n            partner_channels.push(new_channel_address);\n\n            // using the 1-index, 0 is used for the absence of a value\n            self.partyhash_to_channelpos[party_hash] = self.all_channels.length;\n            self.node_index[msg.sender][partner] = caller_channels.length;\n            self.node_index[partner][msg.sender] = partner_channels.length;\n        }\n\n        return new_channel_address;\n    }\n\n    /// @notice Get the address of channel with a partner\n    /// @param partner The address of the partner\n    /// @return The address of the channel\n    function getChannelWith(Data storage self, address partner)\n        public\n        constant\n        returns (address)\n    {\n        bytes32 party_hash = partyHash(msg.sender, partner);\n        uint channel_pos = self.partyhash_to_channelpos[party_hash];\n\n        if (channel_pos != 0) {\n            return self.all_channels[channel_pos - 1];\n        }\n    }\n\n    /// TODO: Find a way to remove this function duplication from Utils.sol here\n    ///       At the moment libraries can't inherit so we need to add this here\n    ///       explicitly.\n    /// @notice Check if a contract exists\n    /// @param channel The address to check whether a contract is deployed or not\n    /// @return True if a contract exists, false otherwise\n    function contractExists(address channel)\n        private\n        constant\n        returns (bool)\n    {\n        uint size;\n\n        assembly {\n            size := extcodesize(channel)\n        }\n\n        return size > 0;\n    }\n\n    /// @notice Get the hash of the two addresses\n    /// @param address_one address of one party\n    /// @param address_two of the other party\n    /// @return The keccak256 hash of both parties sorted by size of address\n    function partyHash(address address_one, address address_two)\n        internal\n        pure\n        returns (bytes32)\n    {\n        if (address_one < address_two) {\n            return keccak256(address_one, address_two);\n        } else {\n            // The two participants can't be the same here due to this check in\n            // the netting channel constructor:\n            // https://github.com/raiden-network/raiden/blob/e17d96db375d31b134ae7b4e2ad2c1f905b47857/raiden/smart_contracts/NettingChannelContract.sol#L27\n            return keccak256(address_two, address_one);\n        }\n    }\n\n\n}\n",
  "sourcePath": "/Users/amitshah/Documents/nodejs/javascript/blockchain-service/smart-contracts/contracts/ChannelManagerLibrary.sol",
  "compiler": {
    "name": "solc",
    "version": "0.4.21+commit.dfe3193c.Emscripten.clang"
  },
  "schemaVersion": "2.0.0",
  "updatedAt": "2018-04-20T23:08:17.093Z"
}