{
  "contractName": "ChannelManagerContract",
  "abi": [
    {
      "constant": true,
      "inputs": [
        {
          "name": "channel",
          "type": "address"
        }
      ],
      "name": "contractExists",
      "outputs": [
        {
          "name": "",
          "type": "bool"
        }
      ],
      "payable": false,
      "stateMutability": "view",
      "type": "function"
    },
    {
      "constant": true,
      "inputs": [],
      "name": "contract_version",
      "outputs": [
        {
          "name": "",
          "type": "string"
        }
      ],
      "payable": false,
      "stateMutability": "view",
      "type": "function"
    },
    {
      "constant": true,
      "inputs": [],
      "name": "FEE",
      "outputs": [
        {
          "name": "",
          "type": "uint256"
        }
      ],
      "payable": false,
      "stateMutability": "view",
      "type": "function"
    },
    {
      "inputs": [
        {
          "name": "gotoken",
          "type": "address"
        },
        {
          "name": "token_address",
          "type": "address"
        }
      ],
      "payable": false,
      "stateMutability": "nonpayable",
      "type": "constructor"
    },
    {
      "payable": false,
      "stateMutability": "nonpayable",
      "type": "fallback"
    },
    {
      "anonymous": false,
      "inputs": [
        {
          "indexed": false,
          "name": "netting_channel",
          "type": "address"
        },
        {
          "indexed": false,
          "name": "participant1",
          "type": "address"
        },
        {
          "indexed": false,
          "name": "participant2",
          "type": "address"
        },
        {
          "indexed": false,
          "name": "settle_timeout",
          "type": "uint256"
        }
      ],
      "name": "ChannelNew",
      "type": "event"
    },
    {
      "anonymous": false,
      "inputs": [
        {
          "indexed": false,
          "name": "caller_address",
          "type": "address"
        },
        {
          "indexed": false,
          "name": "partner",
          "type": "address"
        }
      ],
      "name": "ChannelDeleted",
      "type": "event"
    },
    {
      "anonymous": false,
      "inputs": [
        {
          "indexed": false,
          "name": "balance",
          "type": "uint256"
        },
        {
          "indexed": false,
          "name": "fee",
          "type": "uint256"
        }
      ],
      "name": "InsufficientFunds",
      "type": "event"
    },
    {
      "constant": false,
      "inputs": [
        {
          "name": "partner",
          "type": "address"
        },
        {
          "name": "settle_timeout",
          "type": "uint256"
        }
      ],
      "name": "newChannel",
      "outputs": [
        {
          "name": "",
          "type": "address"
        }
      ],
      "payable": false,
      "stateMutability": "nonpayable",
      "type": "function"
    },
    {
      "constant": true,
      "inputs": [],
      "name": "getChannelsAddresses",
      "outputs": [
        {
          "name": "",
          "type": "address[]"
        }
      ],
      "payable": false,
      "stateMutability": "view",
      "type": "function"
    },
    {
      "constant": true,
      "inputs": [],
      "name": "tokenAddress",
      "outputs": [
        {
          "name": "",
          "type": "address"
        }
      ],
      "payable": false,
      "stateMutability": "view",
      "type": "function"
    },
    {
      "constant": true,
      "inputs": [
        {
          "name": "partner",
          "type": "address"
        }
      ],
      "name": "getChannelWith",
      "outputs": [
        {
          "name": "",
          "type": "address"
        }
      ],
      "payable": false,
      "stateMutability": "view",
      "type": "function"
    },
    {
      "constant": true,
      "inputs": [
        {
          "name": "node_address",
          "type": "address"
        }
      ],
      "name": "nettingContractsByAddress",
      "outputs": [
        {
          "name": "",
          "type": "address[]"
        }
      ],
      "payable": false,
      "stateMutability": "view",
      "type": "function"
    },
    {
      "constant": true,
      "inputs": [],
      "name": "getChannelsParticipants",
      "outputs": [
        {
          "name": "",
          "type": "address[]"
        }
      ],
      "payable": false,
      "stateMutability": "view",
      "type": "function"
    }
  ],
  "bytecode": "0x6060604052341561000f57600080fd5b604051604080610f7083398101604052808051906020019091908051906020019091905050816000800160006101000a81548173ffffffffffffffffffffffffffffffffffffffff021916908373ffffffffffffffffffffffffffffffffffffffff16021790555080600060010160006101000a81548173ffffffffffffffffffffffffffffffffffffffff021916908373ffffffffffffffffffffffffffffffffffffffff1602179055505050610ea4806100cc6000396000f300606060405260043610610099576000357c0100000000000000000000000000000000000000000000000000000000900463ffffffff1680630b74b620146100a9578063238bfba2146101135780636785b5001461018c5780636cb30fee146101f65780637709bc78146102845780639d76ea58146102d5578063b32c65c81461032a578063c57981b5146103b8578063f26c6aed146103e1575b34156100a457600080fd5b600080fd5b34156100b457600080fd5b6100bc610463565b6040518080602001828103825283818151815260200191508051906020019060200280838360005b838110156100ff5780820151818401526020810190506100e4565b505050509050019250505060405180910390f35b341561011e57600080fd5b61014a600480803573ffffffffffffffffffffffffffffffffffffffff16906020019091905050610711565b604051808273ffffffffffffffffffffffffffffffffffffffff1673ffffffffffffffffffffffffffffffffffffffff16815260200191505060405180910390f35b341561019757600080fd5b61019f6107d1565b6040518080602001828103825283818151815260200191508051906020019060200280838360005b838110156101e25780820151818401526020810190506101c7565b505050509050019250505060405180910390f35b341561020157600080fd5b61022d600480803573ffffffffffffffffffffffffffffffffffffffff16906020019091905050610868565b6040518080602001828103825283818151815260200191508051906020019060200280838360005b83811015610270578082015181840152602081019050610255565b505050509050019250505060405180910390f35b341561028f57600080fd5b6102bb600480803573ffffffffffffffffffffffffffffffffffffffff1690602001909190505061093e565b604051808215151515815260200191505060405180910390f35b34156102e057600080fd5b6102e8610951565b604051808273ffffffffffffffffffffffffffffffffffffffff1673ffffffffffffffffffffffffffffffffffffffff16815260200191505060405180910390f35b341561033557600080fd5b61033d61097d565b6040518080602001828103825283818151815260200191508051906020019080838360005b8381101561037d578082015181840152602081019050610362565b50505050905090810190601f1680156103aa5780820380516001836020036101000a031916815260200191505b509250505060405180910390f35b34156103c357600080fd5b6103cb6109b6565b6040518082815260200191505060405180910390f35b34156103ec57600080fd5b610421600480803573ffffffffffffffffffffffffffffffffffffffff169060200190919080359060200190919050506109bb565b604051808273ffffffffffffffffffffffffffffffffffffffff1673ffffffffffffffffffffffffffffffffffffffff16815260200191505060405180910390f35b61046b610e64565b600080610476610e64565b60008060008060009250600096505b6000600201805490508710156104f4576104db6000600201888154811015156104aa57fe5b906000526020600020900160009054906101000a900473ffffffffffffffffffffffffffffffffffffffff1661093e565b156104e7576001830192505b8680600101975050610485565b600283026040518059106105055750595b9080825280602002602001820160405250945060009550600096505b6000600201805490508710156107045761057760006002018881548110151561054657fe5b906000526020600020900160009054906101000a900473ffffffffffffffffffffffffffffffffffffffff1661093e565b1515610582576106f7565b60006002018781548110151561059457fe5b906000526020600020900160009054906101000a900473ffffffffffffffffffffffffffffffffffffffff1693508373ffffffffffffffffffffffffffffffffffffffff16636d2381b36040518163ffffffff167c0100000000000000000000000000000000000000000000000000000000028152600401608060405180830381600087803b151561062557600080fd5b5af1151561063257600080fd5b5050506040518051906020018051906020018051906020018051905050925050915081858781518110151561066357fe5b9060200190602002019073ffffffffffffffffffffffffffffffffffffffff16908173ffffffffffffffffffffffffffffffffffffffff16815250506001860195508085878151811015156106b457fe5b9060200190602002019073ffffffffffffffffffffffffffffffffffffffff16908173ffffffffffffffffffffffffffffffffffffffff16815250506001860195505b8680600101975050610521565b8497505050505050505090565b60008073__ChannelManagerLibrary_________________638a1c00e29091846040518363ffffffff167c0100000000000000000000000000000000000000000000000000000000028152600401808381526020018273ffffffffffffffffffffffffffffffffffffffff1673ffffffffffffffffffffffffffffffffffffffff1681526020019250505060206040518083038186803b15156107b357600080fd5b5af415156107c057600080fd5b505050604051805190509050919050565b6107d9610e64565b600060020180548060200260200160405190810160405280929190818152602001828054801561085e57602002820191906000526020600020905b8160009054906101000a900473ffffffffffffffffffffffffffffffffffffffff1673ffffffffffffffffffffffffffffffffffffffff1681526020019060010190808311610814575b5050505050905090565b610870610e64565b600060040160008373ffffffffffffffffffffffffffffffffffffffff1673ffffffffffffffffffffffffffffffffffffffff16815260200190815260200160002080548060200260200160405190810160405280929190818152602001828054801561093257602002820191906000526020600020905b8160009054906101000a900473ffffffffffffffffffffffffffffffffffffffff1673ffffffffffffffffffffffffffffffffffffffff16815260200190600101908083116108e8575b50505050509050919050565b600080823b905060008111915050919050565b60008060010160009054906101000a900473ffffffffffffffffffffffffffffffffffffffff16905090565b6040805190810160405280600581526020017f302e322e5f00000000000000000000000000000000000000000000000000000081525081565b603281565b60008060008060326000800160009054906101000a900473ffffffffffffffffffffffffffffffffffffffff1673ffffffffffffffffffffffffffffffffffffffff1663dd62ed3e33306040518363ffffffff167c0100000000000000000000000000000000000000000000000000000000028152600401808373ffffffffffffffffffffffffffffffffffffffff1673ffffffffffffffffffffffffffffffffffffffff1681526020018273ffffffffffffffffffffffffffffffffffffffff1673ffffffffffffffffffffffffffffffffffffffff16815260200192505050602060405180830381600087803b1515610ab557600080fd5b5af11515610ac257600080fd5b5050506040518051905010151515610ad957600080fd5b6000800160009054906101000a900473ffffffffffffffffffffffffffffffffffffffff1673ffffffffffffffffffffffffffffffffffffffff166323b872dd333060326040518463ffffffff167c0100000000000000000000000000000000000000000000000000000000028152600401808473ffffffffffffffffffffffffffffffffffffffff1673ffffffffffffffffffffffffffffffffffffffff1681526020018373ffffffffffffffffffffffffffffffffffffffff1673ffffffffffffffffffffffffffffffffffffffff1681526020018281526020019350505050602060405180830381600087803b1515610bd457600080fd5b5af11515610be157600080fd5b50505060405180519050925060011515831515141515610c0057600080fd5b610c0986610711565b915060008273ffffffffffffffffffffffffffffffffffffffff16141515610cc3577fda8d2f351e0f7c8c368e631ce8ab15973e7582ece0c347d75a5cff49eb899eb73387604051808373ffffffffffffffffffffffffffffffffffffffff1673ffffffffffffffffffffffffffffffffffffffff1681526020018273ffffffffffffffffffffffffffffffffffffffff1673ffffffffffffffffffffffffffffffffffffffff1681526020019250505060405180910390a15b600073__ChannelManagerLibrary_________________63941583a5909188886040518463ffffffff167c0100000000000000000000000000000000000000000000000000000000028152600401808481526020018373ffffffffffffffffffffffffffffffffffffffff1673ffffffffffffffffffffffffffffffffffffffff168152602001828152602001935050505060206040518083038186803b1515610d6c57600080fd5b5af41515610d7957600080fd5b5050506040518051905090507f7bd269696a33040df6c111efd58439c9c77909fcbe90f7511065ac277e175dac81338888604051808573ffffffffffffffffffffffffffffffffffffffff1673ffffffffffffffffffffffffffffffffffffffff1681526020018473ffffffffffffffffffffffffffffffffffffffff1673ffffffffffffffffffffffffffffffffffffffff1681526020018373ffffffffffffffffffffffffffffffffffffffff1673ffffffffffffffffffffffffffffffffffffffff16815260200182815260200194505050505060405180910390a180935050505092915050565b6020604051908101604052806000815250905600a165627a7a7230582069a628d424354dd76c379ceb4f99d3323f002bfdada2ab1e14788872f332b3160029",
  "source": "pragma solidity ^0.4.11;\n\nimport \"./Token.sol\";\nimport \"./Utils.sol\";\nimport \"./ChannelManagerLibrary.sol\";\n\n// for each token a manager will be deployed, to reduce gas usage for manager\n// deployment the logic is moved into a library and this contract will work\n// only as a proxy/state container.\ncontract ChannelManagerContract is Utils {\n    string constant public contract_version = \"0.2._\";\n    uint256 constant public FEE = 50;\n    using ChannelManagerLibrary for ChannelManagerLibrary.Data;\n    ChannelManagerLibrary.Data data;\n\n    event ChannelNew(\n        address netting_channel,\n        address participant1,\n        address participant2,\n        uint settle_timeout\n    );\n\n    event ChannelDeleted(\n        address caller_address,\n        address partner\n    );\n\n    event InsufficientFunds(uint256 balance,uint256 fee);\n\n    function ChannelManagerContract(address gotoken, address token_address) public {\n        data.goToken = Token(gotoken);\n        data.token = Token(token_address);\n    }\n\n    /// @notice Create a new payment channel between two parties\n    /// @param partner The address of the partner\n    /// @param settle_timeout The settle timeout in blocks\n    /// @return The address of the newly created NettingChannelContract.\n    function newChannel(address partner, uint settle_timeout)\n        public\n        returns (address)\n    {\n        \n        require(data.goToken.allowance(msg.sender,this) >= FEE);\n        bool success = data.goToken.transferFrom(msg.sender, this, FEE);\n        require(success == true);            \n\n        address old_channel = getChannelWith(partner);\n        if (old_channel != 0) {\n            emit ChannelDeleted(msg.sender, partner);\n        }\n\n        address new_channel = data.newChannel(partner, settle_timeout);\n            \n        emit ChannelNew(new_channel, msg.sender, partner, settle_timeout);\n        return new_channel;\n        \n    }\n\n    /// @notice Get all channels\n    /// @return All the open channels\n    function getChannelsAddresses() public constant returns (address[]) {\n        return data.all_channels;\n    }\n\n    /// @notice Get the address of the channel token\n    /// @return The token\n    function tokenAddress() public constant returns (address) {\n        return data.token;\n    }\n\n    /// @notice Get the address of channel with a partner\n    /// @param partner The address of the partner\n    /// @return The address of the channel\n    function getChannelWith(address partner) public constant returns (address) {\n        return data.getChannelWith(partner);\n    }\n\n    /// @notice Get all channels that an address participates in.\n    /// @param node_address The address of the node\n    /// @return The channel's addresses that node_address participates in.\n    function nettingContractsByAddress(address node_address)\n        public\n        constant\n        returns (address[])\n    {\n        return data.nodeaddress_to_channeladdresses[node_address];\n    }\n\n    /// @notice Get all participants of all channels\n    /// @return All participants in all channels\n    function getChannelsParticipants() public constant returns (address[])\n    {\n        uint i;\n        uint pos;\n        address[] memory result;\n        NettingChannelContract channel;\n\n        uint open_channels_num = 0;\n        for (i = 0; i < data.all_channels.length; i++) {\n            if (contractExists(data.all_channels[i])) {\n                open_channels_num += 1;\n            }\n        }\n        result = new address[](open_channels_num * 2);\n\n        pos = 0;\n        for (i = 0; i < data.all_channels.length; i++) {\n            if (!contractExists(data.all_channels[i])) {\n                continue;\n            }\n            channel = NettingChannelContract(data.all_channels[i]);\n\n            var (address1, , address2, ) = channel.addressAndBalance();\n\n            result[pos] = address1;\n            pos += 1;\n            result[pos] = address2;\n            pos += 1;\n        }\n\n        return result;\n    }\n\n    function () public { revert(); }\n}\n",
  "sourcePath": "/Users/amitshah/Documents/nodejs/javascript/blockchain-service/smart-contracts/contracts/ChannelManagerContract.sol",
  "compiler": {
    "name": "solc",
    "version": "0.4.21+commit.dfe3193c.Emscripten.clang"
  },
  "schemaVersion": "2.0.0",
  "updatedAt": "2018-04-15T22:47:08.538Z"
}