{
  "contractName": "ChannelManagerLibrary",
  "abi": [
    {
      "constant": true,
      "inputs": [],
      "name": "contract_version",
      "outputs": [
        {
          "name": "",
          "type": "string"
        }
      ],
      "payable": false,
      "stateMutability": "view",
      "type": "function"
    },
    {
      "constant": false,
      "inputs": [
        {
          "name": "self",
          "type": "ChannelManagerLibrary.Data storage"
        },
        {
          "name": "partner",
          "type": "address"
        },
        {
          "name": "settle_timeout",
          "type": "uint256"
        }
      ],
      "name": "newChannel",
      "outputs": [
        {
          "name": "",
          "type": "address"
        }
      ],
      "payable": false,
      "stateMutability": "nonpayable",
      "type": "function"
    },
    {
      "constant": true,
      "inputs": [
        {
          "name": "self",
          "type": "ChannelManagerLibrary.Data storage"
        },
        {
          "name": "partner",
          "type": "address"
        }
      ],
      "name": "getChannelWith",
      "outputs": [
        {
          "name": "",
          "type": "address"
        }
      ],
      "payable": false,
      "stateMutability": "view",
      "type": "function"
    }
  ],
  "bytecode": "0x611ce2610030600b82828239805160001a6073146000811461002057610022565bfe5b5030600052607381538281f300730000000000000000000000000000000000000000301460606040526004361061006e576000357c0100000000000000000000000000000000000000000000000000000000900463ffffffff1680638a1c00e214610073578063941583a5146100ea578063b32c65c814610175575b600080fd5b6100a8600480803590602001909190803573ffffffffffffffffffffffffffffffffffffffff169060200190919050506101f8565b604051808273ffffffffffffffffffffffffffffffffffffffff1673ffffffffffffffffffffffffffffffffffffffff16815260200191505060405180910390f35b81156100f557600080fd5b610133600480803590602001909190803573ffffffffffffffffffffffffffffffffffffffff16906020019091908035906020019091905050610283565b604051808273ffffffffffffffffffffffffffffffffffffffff1673ffffffffffffffffffffffffffffffffffffffff16815260200191505060405180910390f35b61017d61091d565b6040518080602001828103825283818151815260200191508051906020019080838360005b838110156101bd5780820151818401526020810190506101a2565b50505050905090810190601f1680156101ea5780820380516001836020036101000a031916815260200191505b509250505060405180910390f35b60008060006102073385610956565b9150846002016000836000191660001916815260200190815260200160002054905060008114151561027a57846001016001820381548110151561024757fe5b906000526020600020900160009054906101000a900473ffffffffffffffffffffffffffffffffffffffff16925061027b565b5b505092915050565b60008060008060008060008060008b60030160003373ffffffffffffffffffffffffffffffffffffffff1673ffffffffffffffffffffffffffffffffffffffff16815260200190815260200160002097508b60030160008c73ffffffffffffffffffffffffffffffffffffffff1673ffffffffffffffffffffffffffffffffffffffff1681526020019081526020016000209650610321338c610956565b95508b600201600087600019166000191681526020019081526020016000205494508b60000160009054906101000a900473ffffffffffffffffffffffffffffffffffffffff16338c8c610373610ad7565b808573ffffffffffffffffffffffffffffffffffffffff1673ffffffffffffffffffffffffffffffffffffffff1681526020018473ffffffffffffffffffffffffffffffffffffffff1673ffffffffffffffffffffffffffffffffffffffff1681526020018373ffffffffffffffffffffffffffffffffffffffff1673ffffffffffffffffffffffffffffffffffffffff168152602001828152602001945050505050604051809103906000f080151561042c57600080fd5b93506000851415156106aa578b6001016001860381548110151561044c57fe5b906000526020600020900160009054906101000a900473ffffffffffffffffffffffffffffffffffffffff16925061048383610ac4565b15151561048f57600080fd5b8b60040160003373ffffffffffffffffffffffffffffffffffffffff1673ffffffffffffffffffffffffffffffffffffffff16815260200190815260200160002060008c73ffffffffffffffffffffffffffffffffffffffff1673ffffffffffffffffffffffffffffffffffffffff1681526020019081526020016000205491508b60040160008c73ffffffffffffffffffffffffffffffffffffffff1673ffffffffffffffffffffffffffffffffffffffff16815260200190815260200160002060003373ffffffffffffffffffffffffffffffffffffffff1673ffffffffffffffffffffffffffffffffffffffff168152602001908152602001600020549050838c600101600187038154811015156105a657fe5b906000526020600020900160006101000a81548173ffffffffffffffffffffffffffffffffffffffff021916908373ffffffffffffffffffffffffffffffffffffffff16021790555083886001840381548110151561060157fe5b906000526020600020900160006101000a81548173ffffffffffffffffffffffffffffffffffffffff021916908373ffffffffffffffffffffffffffffffffffffffff16021790555083876001830381548110151561065c57fe5b906000526020600020900160006101000a81548173ffffffffffffffffffffffffffffffffffffffff021916908373ffffffffffffffffffffffffffffffffffffffff16021790555061090b565b8b60010180548060010182816106c09190610ae7565b9160005260206000209001600086909190916101000a81548173ffffffffffffffffffffffffffffffffffffffff021916908373ffffffffffffffffffffffffffffffffffffffff160217905550508780548060010182816107229190610ae7565b9160005260206000209001600086909190916101000a81548173ffffffffffffffffffffffffffffffffffffffff021916908373ffffffffffffffffffffffffffffffffffffffff160217905550508680548060010182816107849190610ae7565b9160005260206000209001600086909190916101000a81548173ffffffffffffffffffffffffffffffffffffffff021916908373ffffffffffffffffffffffffffffffffffffffff160217905550508b600101805490508c600201600088600019166000191681526020019081526020016000208190555087805490508c60040160003373ffffffffffffffffffffffffffffffffffffffff1673ffffffffffffffffffffffffffffffffffffffff16815260200190815260200160002060008d73ffffffffffffffffffffffffffffffffffffffff1673ffffffffffffffffffffffffffffffffffffffff1681526020019081526020016000208190555086805490508c60040160008d73ffffffffffffffffffffffffffffffffffffffff1673ffffffffffffffffffffffffffffffffffffffff16815260200190815260200160002060003373ffffffffffffffffffffffffffffffffffffffff1673ffffffffffffffffffffffffffffffffffffffff168152602001908152602001600020819055505b83985050505050505050509392505050565b6040805190810160405280600581526020017f302e322e5f00000000000000000000000000000000000000000000000000000081525081565b60008173ffffffffffffffffffffffffffffffffffffffff168373ffffffffffffffffffffffffffffffffffffffff161015610a27578282604051808373ffffffffffffffffffffffffffffffffffffffff1673ffffffffffffffffffffffffffffffffffffffff166c010000000000000000000000000281526014018273ffffffffffffffffffffffffffffffffffffffff1673ffffffffffffffffffffffffffffffffffffffff166c010000000000000000000000000281526014019250505060405180910390209050610abe565b8183604051808373ffffffffffffffffffffffffffffffffffffffff1673ffffffffffffffffffffffffffffffffffffffff166c010000000000000000000000000281526014018273ffffffffffffffffffffffffffffffffffffffff1673ffffffffffffffffffffffffffffffffffffffff166c0100000000000000000000000002815260140192505050604051809103902090505b92915050565b600080823b905060008111915050919050565b60405161117e80610b3983390190565b815481835581811511610b0e57818360005260206000209182019101610b0d9190610b13565b5b505050565b610b3591905b80821115610b31576000816000905550600101610b19565b5090565b9056006060604052341561000f57600080fd5b60405160808061117e83398101604052808051906020019091908051906020019091908051906020019091908051906020019091905050806006811015801561005b5750622932e08111155b151561006657600080fd5b8273ffffffffffffffffffffffffffffffffffffffff168473ffffffffffffffffffffffffffffffffffffffff16141515156100a157600080fd5b83600060050160006002811015156100b557fe5b6006020160000160006101000a81548173ffffffffffffffffffffffffffffffffffffffff021916908373ffffffffffffffffffffffffffffffffffffffff160217905550826000600501600160028110151561010e57fe5b6006020160000160006101000a81548173ffffffffffffffffffffffffffffffffffffffff021916908373ffffffffffffffffffffffffffffffffffffffff1602179055506001600060110160008673ffffffffffffffffffffffffffffffffffffffff1673ffffffffffffffffffffffffffffffffffffffff16815260200190815260200160002060006101000a81548160ff021916908360ff1602179055506002600060110160008573ffffffffffffffffffffffffffffffffffffffff1673ffffffffffffffffffffffffffffffffffffffff16815260200190815260200160002060006101000a81548160ff021916908360ff16021790555084600060040160006101000a81548173ffffffffffffffffffffffffffffffffffffffff021916908373ffffffffffffffffffffffffffffffffffffffff160217905550816000800181905550436000600101819055505050505050610f08806102766000396000f3006060604052600436106100c5576000357c0100000000000000000000000000000000000000000000000000000000900463ffffffff16806311da60b4146100ca578063202ac3bc146100df57806327d120fe1461018c57806353af5d101461021f578063597e1fb5146102745780635e1fc56e1461029d5780635f88eade146103305780636d2381b31461035957806373d4a13a146103ef5780637ebdc478146104975780639d76ea58146104c0578063b32c65c814610515578063b6b55f25146105a3575b600080fd5b34156100d557600080fd5b6100dd6105de565b005b34156100ea57600080fd5b61018a600480803590602001908201803590602001908080601f0160208091040260200160405190810160405280939291908181526020018383808284378201915050505050509190803590602001908201803590602001908080601f0160208091040260200160405190810160405280939291908181526020018383808284378201915050505050509190803560001916906020019091905050610689565b005b341561019757600080fd5b61021d600480803567ffffffffffffffff16906020019091908035906020019091908035600019169060200190919080356000191690602001909190803590602001908201803590602001908080601f01602080910402602001604051908101604052809392919081815260200183838082843782019150505050505091905050610868565b005b341561022a57600080fd5b610232610a00565b604051808273ffffffffffffffffffffffffffffffffffffffff1673ffffffffffffffffffffffffffffffffffffffff16815260200191505060405180910390f35b341561027f57600080fd5b610287610a2c565b6040518082815260200191505060405180910390f35b34156102a857600080fd5b61032e600480803567ffffffffffffffff16906020019091908035906020019091908035600019169060200190919080356000191690602001909190803590602001908201803590602001908080601f01602080910402602001604051908101604052809392919081815260200183838082843782019150505050505091905050610a38565b005b341561033b57600080fd5b610343610bd0565b6040518082815260200191505060405180910390f35b341561036457600080fd5b61036c610bdc565b604051808573ffffffffffffffffffffffffffffffffffffffff1673ffffffffffffffffffffffffffffffffffffffff1681526020018481526020018373ffffffffffffffffffffffffffffffffffffffff1673ffffffffffffffffffffffffffffffffffffffff16815260200182815260200194505050505060405180910390f35b34156103fa57600080fd5b610402610c7b565b604051808781526020018681526020018581526020018473ffffffffffffffffffffffffffffffffffffffff1673ffffffffffffffffffffffffffffffffffffffff1681526020018373ffffffffffffffffffffffffffffffffffffffff1673ffffffffffffffffffffffffffffffffffffffff16815260200182151515158152602001965050505050505060405180910390f35b34156104a257600080fd5b6104aa610cf2565b6040518082815260200191505060405180910390f35b34156104cb57600080fd5b6104d3610cfe565b604051808273ffffffffffffffffffffffffffffffffffffffff1673ffffffffffffffffffffffffffffffffffffffff16815260200191505060405180910390f35b341561052057600080fd5b610528610d2a565b6040518080602001828103825283818151815260200191508051906020019080838360005b8381101561056857808201518184015260208101905061054d565b50505050905090810190601f1680156105955780820380516001836020036101000a031916815260200191505b509250505060405180910390f35b34156105ae57600080fd5b6105c46004808035906020019091905050610d63565b604051808215151515815260200191505060405180910390f35b600073__NettingChannelLibrary_________________63de394e0d90916040518263ffffffff167c01000000000000000000000000000000000000000000000000000000000281526004018082815260200191505060006040518083038186803b151561064b57600080fd5b5af4151561065857600080fd5b5050507f6713dea2491bc95585ea9be0d6993fc7790fdcd04f495a7e7592fbd80bbe00de60405160405180910390a1565b600073__NettingChannelLibrary_________________63c252246290918585856040518563ffffffff167c01000000000000000000000000000000000000000000000000000000000281526004018085815260200180602001806020018460001916600019168152602001838103835286818151815260200191508051906020019080838360005b8381101561072d578082015181840152602081019050610712565b50505050905090810190601f16801561075a5780820380516001836020036101000a031916815260200191505b50838103825285818151815260200191508051906020019080838360005b83811015610793578082015181840152602081019050610778565b50505050905090810190601f1680156107c05780820380516001836020036101000a031916815260200191505b50965050505050505060006040518083038186803b15156107e057600080fd5b5af415156107ed57600080fd5b5050507fa2e2842eefea7e32abccccd9d3fae92608319362c3905ef73de44938c059253681336040518083600019166000191681526020018273ffffffffffffffffffffffffffffffffffffffff1673ffffffffffffffffffffffffffffffffffffffff1681526020019250505060405180910390a1505050565b600073__NettingChannelLibrary_________________63f565eb36909187878787876040518763ffffffff167c0100000000000000000000000000000000000000000000000000000000028152600401808781526020018667ffffffffffffffff1667ffffffffffffffff1681526020018581526020018460001916600019168152602001836000191660001916815260200180602001828103825283818151815260200191508051906020019080838360005b8381101561093857808201518184015260208101905061091d565b50505050905090810190601f1680156109655780820380516001836020036101000a031916815260200191505b5097505050505050505060006040518083038186803b151561098657600080fd5b5af4151561099357600080fd5b5050507fa0379b1bd0864245b4ff39bf6a023065e80d0e9276d2671d94b9f653b4bbcdfe33604051808273ffffffffffffffffffffffffffffffffffffffff1673ffffffffffffffffffffffffffffffffffffffff16815260200191505060405180910390a15050505050565b60008060030160009054906101000a900473ffffffffffffffffffffffffffffffffffffffff16905090565b60008060020154905090565b600073__NettingChannelLibrary_________________63c800b002909187878787876040518763ffffffff167c0100000000000000000000000000000000000000000000000000000000028152600401808781526020018667ffffffffffffffff1667ffffffffffffffff1681526020018581526020018460001916600019168152602001836000191660001916815260200180602001828103825283818151815260200191508051906020019080838360005b83811015610b08578082015181840152602081019050610aed565b50505050905090810190601f168015610b355780820380516001836020036101000a031916815260200191505b5097505050505050505060006040518083038186803b1515610b5657600080fd5b5af41515610b6357600080fd5b5050507f93daadf23cc2150b386a6c3b39f6e61b9c555fc1cec423e4c93ac9d36b008fef33604051808273ffffffffffffffffffffffffffffffffffffffff1673ffffffffffffffffffffffffffffffffffffffff16815260200191505060405180910390a15050505050565b60008060010154905090565b60008060008060008060006005016000600281101515610bf857fe5b60060201915060006005016001600281101515610c1157fe5b6006020190508160000160009054906101000a900473ffffffffffffffffffffffffffffffffffffffff169550816001015494508060000160009054906101000a900473ffffffffffffffffffffffffffffffffffffffff16935080600101549250505090919293565b60008060000154908060010154908060020154908060030160009054906101000a900473ffffffffffffffffffffffffffffffffffffffff16908060040160009054906101000a900473ffffffffffffffffffffffffffffffffffffffff16908060120160009054906101000a900460ff16905086565b60008060000154905090565b60008060040160009054906101000a900473ffffffffffffffffffffffffffffffffffffffff16905090565b6040805190810160405280600581526020017f302e322e5f00000000000000000000000000000000000000000000000000000081525081565b60008060008073__NettingChannelLibrary_________________633268a05a9091866040518363ffffffff167c01000000000000000000000000000000000000000000000000000000000281526004018083815260200182815260200192505050604080518083038186803b1515610ddb57600080fd5b5af41515610de857600080fd5b505050604051805190602001805190508092508193505050600115158215151415610ed2577f9cb02993ef7311b37acc6bdfc1a8397160be258a877d78b31f4e366caf7bfcef600060040160009054906101000a900473ffffffffffffffffffffffffffffffffffffffff163383604051808473ffffffffffffffffffffffffffffffffffffffff1673ffffffffffffffffffffffffffffffffffffffff1681526020018373ffffffffffffffffffffffffffffffffffffffff1673ffffffffffffffffffffffffffffffffffffffff168152602001828152602001935050505060405180910390a15b81925050509190505600a165627a7a723058208eaf180132ef3732303c875b8602ba628715b01b29363675146934e67a0aea2a0029a165627a7a7230582054ced33c42126800d0cf93271fe265d1308ba97545688498c532c3f5b224d6b10029",
  "source": "pragma solidity ^0.4.16;\n\nimport \"./Token.sol\";\nimport \"./NettingChannelContract.sol\";\n\nlibrary ChannelManagerLibrary {\n    string constant public contract_version = \"0.2._\";\n\n    struct Data {\n        Token token;\n\n        address[] all_channels;\n        mapping(bytes32 => uint) partyhash_to_channelpos;\n\n        mapping(address => address[]) nodeaddress_to_channeladdresses;\n        mapping(address => mapping(address => uint)) node_index;\n    }\n\n    /// @notice Create a new payment channel between two parties\n    /// @param partner The address of the partner\n    /// @param settle_timeout The settle timeout in blocks\n    /// @return The address of the newly created NettingChannelContract.\n    function newChannel(Data storage self, address partner, uint settle_timeout)\n        public\n        returns (address)\n    {\n        address[] storage caller_channels = self.nodeaddress_to_channeladdresses[msg.sender];\n        address[] storage partner_channels = self.nodeaddress_to_channeladdresses[partner];\n\n        bytes32 party_hash = partyHash(msg.sender, partner);\n        uint channel_pos = self.partyhash_to_channelpos[party_hash];\n\n        address new_channel_address = new NettingChannelContract(\n            self.token,\n            msg.sender,\n            partner,\n            settle_timeout\n        );\n\n        if (channel_pos != 0) {\n            // Check if the channel was settled. Once a channel is settled it\n            // kills itself, so address must not have code.\n            address settled_channel = self.all_channels[channel_pos - 1];\n            require(!contractExists(settled_channel));\n\n            uint caller_pos = self.node_index[msg.sender][partner];\n            uint partner_pos = self.node_index[partner][msg.sender];\n\n            // replace the channel address in-place\n            self.all_channels[channel_pos - 1] = new_channel_address;\n            caller_channels[caller_pos - 1] = new_channel_address;\n            partner_channels[partner_pos - 1] = new_channel_address;\n\n        } else {\n            self.all_channels.push(new_channel_address);\n            caller_channels.push(new_channel_address);\n            partner_channels.push(new_channel_address);\n\n            // using the 1-index, 0 is used for the absence of a value\n            self.partyhash_to_channelpos[party_hash] = self.all_channels.length;\n            self.node_index[msg.sender][partner] = caller_channels.length;\n            self.node_index[partner][msg.sender] = partner_channels.length;\n        }\n\n        return new_channel_address;\n    }\n\n    /// @notice Get the address of channel with a partner\n    /// @param partner The address of the partner\n    /// @return The address of the channel\n    function getChannelWith(Data storage self, address partner)\n        public\n        constant\n        returns (address)\n    {\n        bytes32 party_hash = partyHash(msg.sender, partner);\n        uint channel_pos = self.partyhash_to_channelpos[party_hash];\n\n        if (channel_pos != 0) {\n            return self.all_channels[channel_pos - 1];\n        }\n    }\n\n    /// TODO: Find a way to remove this function duplication from Utils.sol here\n    ///       At the moment libraries can't inherit so we need to add this here\n    ///       explicitly.\n    /// @notice Check if a contract exists\n    /// @param channel The address to check whether a contract is deployed or not\n    /// @return True if a contract exists, false otherwise\n    function contractExists(address channel)\n        private\n        constant\n        returns (bool)\n    {\n        uint size;\n\n        assembly {\n            size := extcodesize(channel)\n        }\n\n        return size > 0;\n    }\n\n    /// @notice Get the hash of the two addresses\n    /// @param address_one address of one party\n    /// @param address_two of the other party\n    /// @return The keccak256 hash of both parties sorted by size of address\n    function partyHash(address address_one, address address_two)\n        internal\n        pure\n        returns (bytes32)\n    {\n        if (address_one < address_two) {\n            return keccak256(address_one, address_two);\n        } else {\n            // The two participants can't be the same here due to this check in\n            // the netting channel constructor:\n            // https://github.com/raiden-network/raiden/blob/e17d96db375d31b134ae7b4e2ad2c1f905b47857/raiden/smart_contracts/NettingChannelContract.sol#L27\n            return keccak256(address_two, address_one);\n        }\n    }\n}\n",
  "sourcePath": "/Users/amitshah/Documents/nodejs/javascript/blockchain-service/smart-contracts/contracts/ChannelManagerLibrary.sol",
  "compiler": {
    "name": "solc",
    "version": "0.4.21+commit.dfe3193c.Emscripten.clang"
  },
  "schemaVersion": "2.0.0",
  "updatedAt": "2018-04-15T18:42:14.063Z"
}