{
  "contractName": "ChannelManagerContract",
  "abi": [
    {
      "constant": true,
      "inputs": [
        {
          "name": "channel",
          "type": "address"
        }
      ],
      "name": "contractExists",
      "outputs": [
        {
          "name": "",
          "type": "bool"
        }
      ],
      "payable": false,
      "stateMutability": "view",
      "type": "function"
    },
    {
      "constant": true,
      "inputs": [],
      "name": "contract_version",
      "outputs": [
        {
          "name": "",
          "type": "string"
        }
      ],
      "payable": false,
      "stateMutability": "view",
      "type": "function"
    },
    {
      "inputs": [
        {
          "name": "token_address",
          "type": "address"
        }
      ],
      "payable": false,
      "stateMutability": "nonpayable",
      "type": "constructor"
    },
    {
      "payable": false,
      "stateMutability": "nonpayable",
      "type": "fallback"
    },
    {
      "anonymous": false,
      "inputs": [
        {
          "indexed": false,
          "name": "netting_channel",
          "type": "address"
        },
        {
          "indexed": false,
          "name": "participant1",
          "type": "address"
        },
        {
          "indexed": false,
          "name": "participant2",
          "type": "address"
        },
        {
          "indexed": false,
          "name": "settle_timeout",
          "type": "uint256"
        }
      ],
      "name": "ChannelNew",
      "type": "event"
    },
    {
      "anonymous": false,
      "inputs": [
        {
          "indexed": false,
          "name": "caller_address",
          "type": "address"
        },
        {
          "indexed": false,
          "name": "partner",
          "type": "address"
        }
      ],
      "name": "ChannelDeleted",
      "type": "event"
    },
    {
      "constant": false,
      "inputs": [
        {
          "name": "partner",
          "type": "address"
        },
        {
          "name": "settle_timeout",
          "type": "uint256"
        }
      ],
      "name": "newChannel",
      "outputs": [
        {
          "name": "",
          "type": "address"
        }
      ],
      "payable": false,
      "stateMutability": "nonpayable",
      "type": "function"
    },
    {
      "constant": true,
      "inputs": [],
      "name": "getChannelsAddresses",
      "outputs": [
        {
          "name": "",
          "type": "address[]"
        }
      ],
      "payable": false,
      "stateMutability": "view",
      "type": "function"
    },
    {
      "constant": true,
      "inputs": [],
      "name": "tokenAddress",
      "outputs": [
        {
          "name": "",
          "type": "address"
        }
      ],
      "payable": false,
      "stateMutability": "view",
      "type": "function"
    },
    {
      "constant": true,
      "inputs": [
        {
          "name": "partner",
          "type": "address"
        }
      ],
      "name": "getChannelWith",
      "outputs": [
        {
          "name": "",
          "type": "address"
        }
      ],
      "payable": false,
      "stateMutability": "view",
      "type": "function"
    },
    {
      "constant": true,
      "inputs": [
        {
          "name": "node_address",
          "type": "address"
        }
      ],
      "name": "nettingContractsByAddress",
      "outputs": [
        {
          "name": "",
          "type": "address[]"
        }
      ],
      "payable": false,
      "stateMutability": "view",
      "type": "function"
    },
    {
      "constant": true,
      "inputs": [],
      "name": "getChannelsParticipants",
      "outputs": [
        {
          "name": "",
          "type": "address[]"
        }
      ],
      "payable": false,
      "stateMutability": "view",
      "type": "function"
    }
  ],
  "bytecode": "0x6060604052341561000f57600080fd5b604051602080610ca883398101604052808051906020019091905050806000800160006101000a81548173ffffffffffffffffffffffffffffffffffffffff021916908373ffffffffffffffffffffffffffffffffffffffff16021790555050610c2a8061007e6000396000f30060606040526004361061008e576000357c0100000000000000000000000000000000000000000000000000000000900463ffffffff1680630b74b6201461009e578063238bfba2146101085780636785b500146101815780636cb30fee146101eb5780637709bc78146102795780639d76ea58146102ca578063b32c65c81461031f578063f26c6aed146103ad575b341561009957600080fd5b600080fd5b34156100a957600080fd5b6100b161042f565b6040518080602001828103825283818151815260200191508051906020019060200280838360005b838110156100f45780820151818401526020810190506100d9565b505050509050019250505060405180910390f35b341561011357600080fd5b61013f600480803573ffffffffffffffffffffffffffffffffffffffff169060200190919050506106dd565b604051808273ffffffffffffffffffffffffffffffffffffffff1673ffffffffffffffffffffffffffffffffffffffff16815260200191505060405180910390f35b341561018c57600080fd5b61019461079d565b6040518080602001828103825283818151815260200191508051906020019060200280838360005b838110156101d75780820151818401526020810190506101bc565b505050509050019250505060405180910390f35b34156101f657600080fd5b610222600480803573ffffffffffffffffffffffffffffffffffffffff16906020019091905050610834565b6040518080602001828103825283818151815260200191508051906020019060200280838360005b8381101561026557808201518184015260208101905061024a565b505050509050019250505060405180910390f35b341561028457600080fd5b6102b0600480803573ffffffffffffffffffffffffffffffffffffffff1690602001909190505061090a565b604051808215151515815260200191505060405180910390f35b34156102d557600080fd5b6102dd61091d565b604051808273ffffffffffffffffffffffffffffffffffffffff1673ffffffffffffffffffffffffffffffffffffffff16815260200191505060405180910390f35b341561032a57600080fd5b610332610949565b6040518080602001828103825283818151815260200191508051906020019080838360005b83811015610372578082015181840152602081019050610357565b50505050905090810190601f16801561039f5780820380516001836020036101000a031916815260200191505b509250505060405180910390f35b34156103b857600080fd5b6103ed600480803573ffffffffffffffffffffffffffffffffffffffff16906020019091908035906020019091905050610982565b604051808273ffffffffffffffffffffffffffffffffffffffff1673ffffffffffffffffffffffffffffffffffffffff16815260200191505060405180910390f35b610437610bea565b600080610442610bea565b60008060008060009250600096505b6000600101805490508710156104c0576104a760006001018881548110151561047657fe5b906000526020600020900160009054906101000a900473ffffffffffffffffffffffffffffffffffffffff1661090a565b156104b3576001830192505b8680600101975050610451565b600283026040518059106104d15750595b9080825280602002602001820160405250945060009550600096505b6000600101805490508710156106d05761054360006001018881548110151561051257fe5b906000526020600020900160009054906101000a900473ffffffffffffffffffffffffffffffffffffffff1661090a565b151561054e576106c3565b60006001018781548110151561056057fe5b906000526020600020900160009054906101000a900473ffffffffffffffffffffffffffffffffffffffff1693508373ffffffffffffffffffffffffffffffffffffffff16636d2381b36040518163ffffffff167c0100000000000000000000000000000000000000000000000000000000028152600401608060405180830381600087803b15156105f157600080fd5b5af115156105fe57600080fd5b5050506040518051906020018051906020018051906020018051905050925050915081858781518110151561062f57fe5b9060200190602002019073ffffffffffffffffffffffffffffffffffffffff16908173ffffffffffffffffffffffffffffffffffffffff168152505060018601955080858781518110151561068057fe5b9060200190602002019073ffffffffffffffffffffffffffffffffffffffff16908173ffffffffffffffffffffffffffffffffffffffff16815250506001860195505b86806001019750506104ed565b8497505050505050505090565b60008073__ChannelManagerLibrary_________________638a1c00e29091846040518363ffffffff167c0100000000000000000000000000000000000000000000000000000000028152600401808381526020018273ffffffffffffffffffffffffffffffffffffffff1673ffffffffffffffffffffffffffffffffffffffff1681526020019250505060206040518083038186803b151561077f57600080fd5b5af4151561078c57600080fd5b505050604051805190509050919050565b6107a5610bea565b600060010180548060200260200160405190810160405280929190818152602001828054801561082a57602002820191906000526020600020905b8160009054906101000a900473ffffffffffffffffffffffffffffffffffffffff1673ffffffffffffffffffffffffffffffffffffffff16815260200190600101908083116107e0575b5050505050905090565b61083c610bea565b600060030160008373ffffffffffffffffffffffffffffffffffffffff1673ffffffffffffffffffffffffffffffffffffffff1681526020019081526020016000208054806020026020016040519081016040528092919081815260200182805480156108fe57602002820191906000526020600020905b8160009054906101000a900473ffffffffffffffffffffffffffffffffffffffff1673ffffffffffffffffffffffffffffffffffffffff16815260200190600101908083116108b4575b50505050509050919050565b600080823b905060008111915050919050565b60008060000160009054906101000a900473ffffffffffffffffffffffffffffffffffffffff16905090565b6040805190810160405280600581526020017f302e322e5f00000000000000000000000000000000000000000000000000000081525081565b6000806000610990856106dd565b915060008273ffffffffffffffffffffffffffffffffffffffff16141515610a4a577fda8d2f351e0f7c8c368e631ce8ab15973e7582ece0c347d75a5cff49eb899eb73386604051808373ffffffffffffffffffffffffffffffffffffffff1673ffffffffffffffffffffffffffffffffffffffff1681526020018273ffffffffffffffffffffffffffffffffffffffff1673ffffffffffffffffffffffffffffffffffffffff1681526020019250505060405180910390a15b600073__ChannelManagerLibrary_________________63941583a5909187876040518463ffffffff167c0100000000000000000000000000000000000000000000000000000000028152600401808481526020018373ffffffffffffffffffffffffffffffffffffffff1673ffffffffffffffffffffffffffffffffffffffff168152602001828152602001935050505060206040518083038186803b1515610af357600080fd5b5af41515610b0057600080fd5b5050506040518051905090507f7bd269696a33040df6c111efd58439c9c77909fcbe90f7511065ac277e175dac81338787604051808573ffffffffffffffffffffffffffffffffffffffff1673ffffffffffffffffffffffffffffffffffffffff1681526020018473ffffffffffffffffffffffffffffffffffffffff1673ffffffffffffffffffffffffffffffffffffffff1681526020018373ffffffffffffffffffffffffffffffffffffffff1673ffffffffffffffffffffffffffffffffffffffff16815260200182815260200194505050505060405180910390a1809250505092915050565b6020604051908101604052806000815250905600a165627a7a72305820562f685ed34758b6d2285f570c6b02e45874b57f728d52ed3bfbd847b5b3aaad0029",
  "source": "pragma solidity ^0.4.11;\n\nimport \"./Token.sol\";\nimport \"./Utils.sol\";\nimport \"./ChannelManagerLibrary.sol\";\n\n// for each token a manager will be deployed, to reduce gas usage for manager\n// deployment the logic is moved into a library and this contract will work\n// only as a proxy/state container.\ncontract ChannelManagerContract is Utils {\n    string constant public contract_version = \"0.2._\";\n\n    using ChannelManagerLibrary for ChannelManagerLibrary.Data;\n    ChannelManagerLibrary.Data data;\n\n    event ChannelNew(\n        address netting_channel,\n        address participant1,\n        address participant2,\n        uint settle_timeout\n    );\n\n    event ChannelDeleted(\n        address caller_address,\n        address partner\n    );\n\n    function ChannelManagerContract(address token_address) public {\n        data.token = Token(token_address);\n    }\n\n    /// @notice Create a new payment channel between two parties\n    /// @param partner The address of the partner\n    /// @param settle_timeout The settle timeout in blocks\n    /// @return The address of the newly created NettingChannelContract.\n    function newChannel(address partner, uint settle_timeout)\n        public\n        returns (address)\n    {\n        address old_channel = getChannelWith(partner);\n        if (old_channel != 0) {\n            ChannelDeleted(msg.sender, partner);\n        }\n\n        address new_channel = data.newChannel(partner, settle_timeout);\n        ChannelNew(new_channel, msg.sender, partner, settle_timeout);\n        return new_channel;\n    }\n\n    /// @notice Get all channels\n    /// @return All the open channels\n    function getChannelsAddresses() public constant returns (address[]) {\n        return data.all_channels;\n    }\n\n    /// @notice Get the address of the channel token\n    /// @return The token\n    function tokenAddress() public constant returns (address) {\n        return data.token;\n    }\n\n    /// @notice Get the address of channel with a partner\n    /// @param partner The address of the partner\n    /// @return The address of the channel\n    function getChannelWith(address partner) public constant returns (address) {\n        return data.getChannelWith(partner);\n    }\n\n    /// @notice Get all channels that an address participates in.\n    /// @param node_address The address of the node\n    /// @return The channel's addresses that node_address participates in.\n    function nettingContractsByAddress(address node_address)\n        public\n        constant\n        returns (address[])\n    {\n        return data.nodeaddress_to_channeladdresses[node_address];\n    }\n\n    /// @notice Get all participants of all channels\n    /// @return All participants in all channels\n    function getChannelsParticipants() public constant returns (address[])\n    {\n        uint i;\n        uint pos;\n        address[] memory result;\n        NettingChannelContract channel;\n\n        uint open_channels_num = 0;\n        for (i = 0; i < data.all_channels.length; i++) {\n            if (contractExists(data.all_channels[i])) {\n                open_channels_num += 1;\n            }\n        }\n        result = new address[](open_channels_num * 2);\n\n        pos = 0;\n        for (i = 0; i < data.all_channels.length; i++) {\n            if (!contractExists(data.all_channels[i])) {\n                continue;\n            }\n            channel = NettingChannelContract(data.all_channels[i]);\n\n            var (address1, , address2, ) = channel.addressAndBalance();\n\n            result[pos] = address1;\n            pos += 1;\n            result[pos] = address2;\n            pos += 1;\n        }\n\n        return result;\n    }\n\n    function () public { revert(); }\n}\n",
  "sourcePath": "/Users/amitshah/Documents/nodejs/javascript/blockchain-service/smart-contracts/contracts/ChannelManagerContract.sol",
  "compiler": {
    "name": "solc",
    "version": "0.4.21+commit.dfe3193c.Emscripten.clang"
  },
  "schemaVersion": "2.0.0",
  "updatedAt": "2018-04-15T09:40:53.420Z"
}