{
  "contractName": "EndpointRegistry",
  "abi": [
    {
      "constant": true,
      "inputs": [],
      "name": "contract_version",
      "outputs": [
        {
          "name": "",
          "type": "string"
        }
      ],
      "payable": false,
      "stateMutability": "view",
      "type": "function"
    },
    {
      "anonymous": false,
      "inputs": [
        {
          "indexed": true,
          "name": "eth_address",
          "type": "address"
        },
        {
          "indexed": false,
          "name": "socket",
          "type": "string"
        }
      ],
      "name": "AddressRegistered",
      "type": "event"
    },
    {
      "constant": false,
      "inputs": [
        {
          "name": "socket",
          "type": "string"
        }
      ],
      "name": "registerEndpoint",
      "outputs": [],
      "payable": false,
      "stateMutability": "nonpayable",
      "type": "function"
    },
    {
      "constant": true,
      "inputs": [
        {
          "name": "eth_address",
          "type": "address"
        }
      ],
      "name": "findEndpointByAddress",
      "outputs": [
        {
          "name": "socket",
          "type": "string"
        }
      ],
      "payable": false,
      "stateMutability": "view",
      "type": "function"
    },
    {
      "constant": true,
      "inputs": [
        {
          "name": "socket",
          "type": "string"
        }
      ],
      "name": "findAddressByEndpoint",
      "outputs": [
        {
          "name": "eth_address",
          "type": "address"
        }
      ],
      "payable": false,
      "stateMutability": "view",
      "type": "function"
    }
  ],
  "bytecode": "0x6060604052341561000f57600080fd5b6109a88061001e6000396000f300606060405260043610610062576000357c0100000000000000000000000000000000000000000000000000000000900463ffffffff168063028a582e1461006757806308b5a85a14610119578063460123cf14610176578063b32c65c814610213575b600080fd5b341561007257600080fd5b61009e600480803573ffffffffffffffffffffffffffffffffffffffff169060200190919050506102a1565b6040518080602001828103825283818151815260200191508051906020019080838360005b838110156100de5780820151818401526020810190506100c3565b50505050905090810190601f16801561010b5780820380516001836020036101000a031916815260200191505b509250505060405180910390f35b341561012457600080fd5b610174600480803590602001908201803590602001908080601f01602080910402602001604051908101604052809392919081815260200183838082843782019150505050505091905050610387565b005b341561018157600080fd5b6101d1600480803590602001908201803590602001908080601f0160208091040260200160405190810160405280939291908181526020018383808284378201915050505050509190505061070b565b604051808273ffffffffffffffffffffffffffffffffffffffff1673ffffffffffffffffffffffffffffffffffffffff16815260200191505060405180910390f35b341561021e57600080fd5b6102266107a0565b6040518080602001828103825283818151815260200191508051906020019080838360005b8381101561026657808201518184015260208101905061024b565b50505050905090810190601f1680156102935780820380516001836020036101000a031916815260200191505b509250505060405180910390f35b6102a96108c3565b6000808373ffffffffffffffffffffffffffffffffffffffff1673ffffffffffffffffffffffffffffffffffffffff1681526020019081526020016000208054600181600116156101000203166002900480601f01602080910402602001604051908101604052809291908181526020018280546001816001161561010002031660029004801561037b5780601f106103505761010080835404028352916020019161037b565b820191906000526020600020905b81548152906001019060200180831161035e57829003601f168201915b50505050509050919050565b600081600115156103a88260206040519081016040528060008152506107d9565b1515141515156103b757600080fd5b6000803373ffffffffffffffffffffffffffffffffffffffff1673ffffffffffffffffffffffffffffffffffffffff168152602001908152602001600020915061049a828054600181600116156101000203166002900480601f01602080910402602001604051908101604052809291908181526020018280546001816001161561010002031660029004801561048f5780601f106104645761010080835404028352916020019161048f565b820191906000526020600020905b81548152906001019060200180831161047257829003601f168201915b5050505050846107d9565b156104a457610706565b600060018360405180828054600181600116156101000203166002900480156105045780601f106104e2576101008083540402835291820191610504565b820191906000526020600020905b8154815290600101906020018083116104f0575b5050915050908152602001604051809103902060006101000a81548173ffffffffffffffffffffffffffffffffffffffff021916908373ffffffffffffffffffffffffffffffffffffffff160217905550826000803373ffffffffffffffffffffffffffffffffffffffff1673ffffffffffffffffffffffffffffffffffffffff16815260200190815260200160002090805190602001906105a79291906108d7565b50336001846040518082805190602001908083835b6020831015156105e157805182526020820191506020810190506020830392506105bc565b6001836020036101000a038019825116818451168082178552505050505050905001915050908152602001604051809103902060006101000a81548173ffffffffffffffffffffffffffffffffffffffff021916908373ffffffffffffffffffffffffffffffffffffffff1602179055503373ffffffffffffffffffffffffffffffffffffffff167f3a62a9d7855df5303e50b0440124304fefafde7f677fc33787b784fc92cfa618846040518080602001828103825283818151815260200191508051906020019080838360005b838110156106cb5780820151818401526020810190506106b0565b50505050905090810190601f1680156106f85780820380516001836020036101000a031916815260200191505b509250505060405180910390a25b505050565b60006001826040518082805190602001908083835b6020831015156107455780518252602082019150602081019050602083039250610720565b6001836020036101000a038019825116818451168082178552505050505050905001915050908152602001604051809103902060009054906101000a900473ffffffffffffffffffffffffffffffffffffffff169050919050565b6040805190810160405280600581526020017f302e322e5f00000000000000000000000000000000000000000000000000000081525081565b6000816040518082805190602001908083835b60208310151561081157805182526020820191506020810190506020830392506107ec565b6001836020036101000a038019825116818451168082178552505050505050905001915050604051809103902060001916836040518082805190602001908083835b6020831015156108785780518252602082019150602081019050602083039250610853565b6001836020036101000a03801982511681845116808217855250505050505090500191505060405180910390206000191614156108b857600190506108bd565b600090505b92915050565b602060405190810160405280600081525090565b828054600181600116156101000203166002900490600052602060002090601f016020900481019282601f1061091857805160ff1916838001178555610946565b82800160010185558215610946579182015b8281111561094557825182559160200191906001019061092a565b5b5090506109539190610957565b5090565b61097991905b8082111561097557600081600090555060010161095d565b5090565b905600a165627a7a723058203e44252a94bc3724f453294f2b60489d8b4665f332c3d64d962536ed7fe832d60029",
  "source": "/*\n * This contract is a registry which maps the Ethereum Address to their\n *  endpoint i.e sockets.\n * The Ethereum address registers his address in this registry.\n*/\n\npragma solidity ^0.4.16;\n\ncontract EndpointRegistry{\n    string constant public contract_version = \"0.2._\";\n\n    event AddressRegistered(address indexed eth_address, string socket);\n\n    // Mapping of Ethereum Addresses => SocketEndpoints\n    mapping (address => string) address_to_socket;\n    // Mapping of SocketEndpoints => Ethereum Addresses\n    mapping (string => address) socket_to_address;\n    // list of all the Registered Addresses , still not used.\n    address[] eth_addresses;\n\n    modifier noEmptyString(string str)\n    {\n        require(equals(str, \"\") != true);\n        _;\n    }\n\n    /*\n     * @notice Registers the Ethereum Address to the Endpoint socket.\n     * @dev Registers the Ethereum Address to the Endpoint socket.\n     * @param string of socket in this format \"127.0.0.1:40001\"\n     */\n    function registerEndpoint(string socket)\n        public\n        noEmptyString(socket)\n    {\n        string storage old_socket = address_to_socket[msg.sender];\n\n        // Compare if the new socket matches the old one, if it does just return\n        if (equals(old_socket, socket)) {\n            return;\n        }\n\n        // Put the ethereum address 0 in front of the old_socket,old_socket:0x0\n        socket_to_address[old_socket] = address(0);\n        address_to_socket[msg.sender] = socket;\n        socket_to_address[socket] = msg.sender;\n        AddressRegistered(msg.sender, socket);\n    }\n\n    /*\n     * @notice Finds the socket if given an Ethereum Address\n     * @dev Finds the socket if given an Ethereum Address\n     * @param An eth_address which is a 20 byte Ethereum Address\n     * @return A socket which the current Ethereum Address is using.\n     */\n    function findEndpointByAddress(address eth_address) public constant returns (string socket)\n    {\n        return address_to_socket[eth_address];\n    }\n\n    /*\n     * @notice Finds Ethreum Address if given an existing socket address\n     * @dev Finds Ethreum Address if given an existing socket address\n     * @param string of socket in this format \"127.0.0.1:40001\"\n     * @return An ethereum address\n     */\n    function findAddressByEndpoint(string socket) public constant returns (address eth_address)\n    {\n        return socket_to_address[socket];\n    }\n\n    function equals(string a, string b) internal pure returns (bool result)\n    {\n        if (keccak256(a) == keccak256(b)) {\n            return true;\n        }\n\n        return false;\n    }\n}\n",
  "sourcePath": "/Users/amitshah/Documents/nodejs/javascript/blockchain-service/smart-contracts/contracts/EndpointRegistry.sol",
  "compiler": {
    "name": "solc",
    "version": "0.4.21+commit.dfe3193c.Emscripten.clang"
  },
  "schemaVersion": "2.0.0",
  "updatedAt": "2018-04-14T23:16:59.981Z"
}