{
  "contractName": "NettingChannelLibrary",
  "abi": [
    {
      "constant": true,
      "inputs": [],
      "name": "contract_version",
      "outputs": [
        {
          "name": "",
          "type": "string"
        }
      ],
      "payable": false,
      "stateMutability": "view",
      "type": "function"
    },
    {
      "anonymous": false,
      "inputs": [
        {
          "indexed": false,
          "name": "msg",
          "type": "string"
        }
      ],
      "name": "Info",
      "type": "event"
    },
    {
      "anonymous": false,
      "inputs": [
        {
          "indexed": false,
          "name": "addy",
          "type": "address"
        }
      ],
      "name": "InfoAddress",
      "type": "event"
    },
    {
      "constant": false,
      "inputs": [
        {
          "name": "self",
          "type": "NettingChannelLibrary.Data storage"
        },
        {
          "name": "amount",
          "type": "uint256"
        }
      ],
      "name": "deposit",
      "outputs": [
        {
          "name": "success",
          "type": "bool"
        },
        {
          "name": "balance",
          "type": "uint256"
        }
      ],
      "payable": false,
      "stateMutability": "nonpayable",
      "type": "function"
    },
    {
      "constant": false,
      "inputs": [
        {
          "name": "self",
          "type": "NettingChannelLibrary.Data storage"
        },
        {
          "name": "nonce",
          "type": "uint256"
        },
        {
          "name": "transferred_amount",
          "type": "uint256"
        },
        {
          "name": "locksroot",
          "type": "bytes32"
        },
        {
          "name": "extra_hash",
          "type": "bytes32"
        },
        {
          "name": "signature",
          "type": "bytes"
        }
      ],
      "name": "close",
      "outputs": [],
      "payable": false,
      "stateMutability": "nonpayable",
      "type": "function"
    },
    {
      "constant": false,
      "inputs": [
        {
          "name": "self",
          "type": "NettingChannelLibrary.Data storage"
        },
        {
          "name": "nonce",
          "type": "uint256"
        },
        {
          "name": "transferred_amount",
          "type": "uint256"
        },
        {
          "name": "locksroot",
          "type": "bytes32"
        },
        {
          "name": "extra_hash",
          "type": "bytes32"
        },
        {
          "name": "signature",
          "type": "bytes"
        }
      ],
      "name": "updateTransfer",
      "outputs": [],
      "payable": false,
      "stateMutability": "nonpayable",
      "type": "function"
    },
    {
      "constant": false,
      "inputs": [
        {
          "name": "self",
          "type": "NettingChannelLibrary.Data storage"
        },
        {
          "name": "locked_encoded",
          "type": "bytes"
        },
        {
          "name": "merkle_proof",
          "type": "bytes"
        },
        {
          "name": "secret",
          "type": "bytes32"
        }
      ],
      "name": "withdraw",
      "outputs": [],
      "payable": false,
      "stateMutability": "nonpayable",
      "type": "function"
    },
    {
      "constant": false,
      "inputs": [
        {
          "name": "self",
          "type": "NettingChannelLibrary.Data storage"
        }
      ],
      "name": "settle",
      "outputs": [],
      "payable": false,
      "stateMutability": "nonpayable",
      "type": "function"
    }
  ],
  "bytecode": "0x6110f3610030600b82828239805160001a6073146000811461002057610022565bfe5b5030600052607381538281f300730000000000000000000000000000000000000000301460606040526004361061008f576000357c0100000000000000000000000000000000000000000000000000000000900463ffffffff1680633268a05a1461009457806351062823146100df5780636f85727514610171578063b32c65c814610203578063c252246214610286578063de394e0d1461033c575b600080fd5b811561009f57600080fd5b6100be600480803590602001909190803590602001909190505061035f565b60405180831515151581526020018281526020019250505060405180910390f35b81156100ea57600080fd5b61016f6004808035906020019091908035906020019091908035906020019091908035600019169060200190919080356000191690602001909190803590602001908201803590602001908080601f016020809104026020016040519081016040528093929190818152602001838380828437820191505050505050919050506105e9565b005b811561017c57600080fd5b6102016004808035906020019091908035906020019091908035906020019091908035600019169060200190919080356000191690602001909190803590602001908201803590602001908080601f016020809104026020016040519081016040528093929190818152602001838380828437820191505050505050919050506107a6565b005b61020b610894565b6040518080602001828103825283818151815260200191508051906020019080838360005b8381101561024b578082015181840152602081019050610230565b50505050905090810190601f1680156102785780820380516001836020036101000a031916815260200191505b509250505060405180910390f35b811561029157600080fd5b61033a600480803590602001909190803590602001908201803590602001908080601f0160208091040260200160405190810160405280939291908181526020018383808284378201915050505050509190803590602001908201803590602001908080601f01602080910402602001604051908101604052809392919081815260200183838082843782019150505050505091908035600019169060200190919050506108cd565b005b811561034757600080fd5b61035d6004808035906020019091905050610a41565b005b6000806000806000866001015411151561037857600080fd5b6000866002015414151561038b57600080fd5b848660040160009054906101000a900473ffffffffffffffffffffffffffffffffffffffff1673ffffffffffffffffffffffffffffffffffffffff166370a08231336040518263ffffffff167c0100000000000000000000000000000000000000000000000000000000028152600401808273ffffffffffffffffffffffffffffffffffffffff1673ffffffffffffffffffffffffffffffffffffffff168152602001915050602060405180830381600087803b151561044a57600080fd5b5af1151561045757600080fd5b505050604051805190501015151561046e57600080fd5b6104788633610d53565b9150856005018260ff1660028110151561048e57fe5b6006020190508560040160009054906101000a900473ffffffffffffffffffffffffffffffffffffffff1673ffffffffffffffffffffffffffffffffffffffff166323b872dd3330886040518463ffffffff167c0100000000000000000000000000000000000000000000000000000000028152600401808473ffffffffffffffffffffffffffffffffffffffff1673ffffffffffffffffffffffffffffffffffffffff1681526020018373ffffffffffffffffffffffffffffffffffffffff1673ffffffffffffffffffffffffffffffffffffffff1681526020018281526020019350505050602060405180830381600087803b151561058e57600080fd5b5af1151561059b57600080fd5b5050506040518051905093506001151584151514156105d557806001015492508483019250828160010181905550600183935093506105e0565b600080809050935093505b50509250929050565b6000806000886000816002015411151561060257600080fd5b894381600001548260020154011015151561061c57600080fd5b8a60120160009054906101000a900460ff1615151561063a57600080fd5b60018b60120160006101000a81548160ff0219169083151502179055506106618b33610d53565b93503373ffffffffffffffffffffffffffffffffffffffff168b60030160009054906101000a900473ffffffffffffffffffffffffffffffffffffffff1673ffffffffffffffffffffffffffffffffffffffff16141515156106c257600080fd5b6106cf8a8a8a8a8a610dc4565b94508a60030160009054906101000a900473ffffffffffffffffffffffffffffffffffffffff1673ffffffffffffffffffffffffffffffffffffffff168573ffffffffffffffffffffffffffffffffffffffff1614151561072f57600080fd5b836001039250898b6005018460ff1660028110151561074a57fe5b6006020160040181905550878b6005018460ff1660028110151561076a57fe5b600602016002018160001916905550888b6005018460ff1660028110151561078e57fe5b60060201600301819055505050505050505050505050565b60008060008060008a600201541415156107bf57600080fd5b438a600201819055506107d28a33610d53565b60ff169250338a60030160006101000a81548173ffffffffffffffffffffffffffffffffffffffff021916908373ffffffffffffffffffffffffffffffffffffffff160217905550604185511415610888576108318989898989610dc4565b935061083d8a85610d53565b60ff16915081831415151561085157600080fd5b896005018260028110151561086257fe5b600602019050888160040181905550868160020181600019169055508781600301819055505b50505050505050505050565b6040805190810160405280600581526020017f302e322e5f00000000000000000000000000000000000000000000000000000081525081565b60008060008060008089600081600201541115156108ea57600080fd5b6108f48b33610d53565b60010395508a6005018660ff1660028110151561090d57fe5b60060201915060006001028260020154600019161415151561092e57600080fd5b6109378a610ef7565b809550819950829750505050816005016000846000191660001916815260200190815260200160002060009054906101000a900460ff1615151561097a57600080fd5b6001826005016000856000191660001916815260200190815260200160002060006101000a81548160ff021916908315150217905550438567ffffffffffffffff16101515156109c957600080fd5b8760405180826000191660001916815260200191505060405180910390206000191683600019161415156109fc57600080fd5b610a068a8a610f28565b93508360001916826002015460001916141515610a2257600080fd5b8682600301600082825401925050819055505050505050505050505050565b6000806000806000806000808860008160020154111515610a6157600080fd5b8943816000015482600201540111151515610a7b57600080fd5b610aa98b8c60030160009054906101000a900473ffffffffffffffffffffffffffffffffffffffff16610d53565b99508960010398508a6005018a60ff16600281101515610ac557fe5b6006020193508a6005018960ff16600281101515610adf57fe5b6006020192508260030154846003015484600101540103965082600101548460010154019750610b0f8789611051565b9450610b1c85600061106a565b945084880395506000851115610c39578a60040160009054906101000a900473ffffffffffffffffffffffffffffffffffffffff1673ffffffffffffffffffffffffffffffffffffffff1663a9059cbb8460000160009054906101000a900473ffffffffffffffffffffffffffffffffffffffff16876040518363ffffffff167c0100000000000000000000000000000000000000000000000000000000028152600401808373ffffffffffffffffffffffffffffffffffffffff1673ffffffffffffffffffffffffffffffffffffffff16815260200182815260200192505050602060405180830381600087803b1515610c1657600080fd5b5af11515610c2357600080fd5b505050604051805190501515610c3857600080fd5b5b6000861115610d4f578a60040160009054906101000a900473ffffffffffffffffffffffffffffffffffffffff1673ffffffffffffffffffffffffffffffffffffffff1663a9059cbb8560000160009054906101000a900473ffffffffffffffffffffffffffffffffffffffff16886040518363ffffffff167c0100000000000000000000000000000000000000000000000000000000028152600401808373ffffffffffffffffffffffffffffffffffffffff1673ffffffffffffffffffffffffffffffffffffffff16815260200182815260200192505050602060405180830381600087803b1515610d2c57600080fd5b5af11515610d3957600080fd5b505050604051805190501515610d4e57600080fd5b5b6000ff5b6000808360110160008473ffffffffffffffffffffffffffffffffffffffff1673ffffffffffffffffffffffffffffffffffffffff16815260200190815260200160002060009054906101000a900460ff16905060008160ff1614151515610db757fe5b6001810391505092915050565b600080600080600060418651141515610ddc57600080fd5b8989308a8a604051808681526020018581526020018473ffffffffffffffffffffffffffffffffffffffff1673ffffffffffffffffffffffffffffffffffffffff166c01000000000000000000000000028152601401836000191660001916815260200182600019166000191681526020019550505050505060405180910390209350610e6886611083565b925092509250600184828585604051600081526020016040526040518085600019166000191681526020018460ff1660ff1681526020018360001916600019168152602001826000191660001916815260200194505050505060206040516020810390808403906000865af11515610edf57600080fd5b50506020604051035194505050505095945050505050565b600080600060488451141515610f0c57600080fd5b6008840151925060288401519150604884015190509193909250565b600080600080600060208651811515610f3d57fe5b06141515610f4a57600080fd5b856040518082805190602001908083835b602083101515610f805780518252602082019150602081019050602083039250610f5b565b6001836020036101000a03801982511681845116808217855250505050505090500191505060405180910390209150602092505b845183111515611045578285015190508060001916826000191610156110095781816040518083600019166000191681526020018260001916600019168152602001925050506040518091039020915061103a565b8082604051808360001916600019168152602001826000191660001916815260200192505050604051809103902091505b602083019250610fb4565b81935050505092915050565b60008183116110605782611062565b815b905092915050565b6000818311611079578161107b565b825b905092915050565b6000806000602084015192506040840151915060ff6041850151169050601b8160ff1614806110b55750601c8160ff16145b15156110c057600080fd5b91939092505600a165627a7a72305820ec4839004d2b9b3c84a29e19c29b48bce67b93d7f289fb12b419822f72c91f490029",
  "source": "pragma solidity ^0.4.16;\n\nimport \"./Token.sol\";\n\nlibrary NettingChannelLibrary {\n    string constant public contract_version = \"0.2._\";\n\n    event Info(string msg);\n    event InfoAddress(address addy);\n\n    struct Participant\n    {\n        address node_address;\n\n        // Total amount of token transferred to this smart contract through the\n        // `deposit` function, note that direct token transfer cannot be\n        // tracked and will be burned.\n        uint256 balance;\n\n        // The latest known merkle root of the pending hash-time locks, used to\n        // validate the withdrawn proofs.\n        bytes32 locksroot;\n\n        // The latest known transferred_amount from this node to the other\n        // participant, used to compute the net balance on settlement.\n        uint256 transferred_amount;\n\n        // Value used to order transfers and only accept the latest on calls to\n        // update, this will only be relevant after either #182 or #293 is\n        // implemented.\n        uint256 nonce;\n\n        // A mapping to keep track of locks that have been withdrawn.\n        mapping(bytes32 => bool) withdrawn_locks;\n    }\n\n    struct Data {\n        uint settle_timeout;\n        uint opened;\n        uint closed;\n        address closing_address;\n        Token token;\n        Participant[2] participants;\n        mapping(address => uint8) participant_index;\n        bool updated;\n    }\n\n\n    modifier isClosed(Data storage self) {\n        require(self.closed > 0);\n        _;\n    }\n\n    modifier stillTimeout(Data storage self) {\n        require(self.closed + self.settle_timeout >= block.number);\n        _;\n    }\n\n    modifier timeoutOver(Data storage self) {\n        require(self.closed + self.settle_timeout <= block.number);\n        _;\n    }\n\n    /// @notice Deposit amount to channel.\n    /// @dev Deposit an amount to the channel. At least one of the participants\n    /// must deposit before the channel is opened.\n    /// @param amount The amount to be deposited to the address\n    /// @return Success if the transfer was successful\n    /// @return The new balance of the invoker\n    function deposit(Data storage self, uint256 amount)\n        public\n        returns (bool success, uint256 balance)\n    {\n        uint8 index;\n\n        require(self.opened > 0);\n        require(self.closed == 0);\n        require(self.token.balanceOf(msg.sender) >= amount);\n\n        index = index_or_throw(self, msg.sender);\n        Participant storage participant = self.participants[index];\n\n        success = self.token.transferFrom(msg.sender, this, amount);\n        if (success == true) {\n            balance = participant.balance;\n            balance += amount;\n            participant.balance = balance;\n\n            return (true, balance);\n        }\n\n        return (false, 0);\n    }\n\n    /// @notice Close a channel between two parties that was used bidirectionally\n    function close(\n        Data storage self,\n        uint256 nonce,\n        uint256 transferred_amount,\n        bytes32 locksroot,\n        bytes32 extra_hash,\n        bytes signature\n    )\n        public\n    {\n        address transfer_address;\n        uint closer_index;\n        uint counterparty_index;\n\n        // close can be called only once\n        require(self.closed == 0);\n        self.closed = block.number;\n\n        // Only a participant can call close\n        closer_index = index_or_throw(self, msg.sender);\n        self.closing_address = msg.sender;\n\n        // Only the closing party can provide a transfer from the counterparty,\n        // and only when this function is called, i.e. this value can not be\n        // updated afterwards.\n\n        // An empty value means that the closer never received a transfer, or\n        // he is intentionally not providing the latest transfer, in which case\n        // the closing party is going to lose the tokens that were transferred\n        // to him.\n        if (signature.length == 65) {\n            transfer_address = recoverAddressFromSignature(\n                nonce,\n                transferred_amount,\n                locksroot,\n                extra_hash,\n                signature \n            );\n            //emit Info(\"WE CALCULATED TRANSFER ADDRESS\");\n            //emit InfoAddress(transfer_address);\n\n            counterparty_index = index_or_throw(self, transfer_address);\n            require(closer_index != counterparty_index);\n\n            // update the structure of the counterparty with its data provided\n            // by the closing node\n            Participant storage counterparty = self.participants[counterparty_index];\n            counterparty.nonce = uint256(nonce);\n            counterparty.locksroot = locksroot;\n            counterparty.transferred_amount = transferred_amount;\n        }\n    }\n\n    /// @notice Updates counter party transfer after closing.\n    function updateTransfer(\n        Data storage self,\n        uint256 nonce,\n        uint256 transferred_amount,\n        bytes32 locksroot,\n        bytes32 extra_hash,\n        bytes signature\n    )\n        isClosed(self)\n        stillTimeout(self)\n        public\n    {\n        address transfer_address;\n        uint8 caller_index;\n        uint8 closer_index;\n\n        // updateTransfer can be called by the counter party only once\n        require(!self.updated);\n        self.updated = true;\n\n        // Only a participant can call updateTransfer (#293 for third parties)\n        caller_index = index_or_throw(self, msg.sender);\n\n        // The closer is not allowed to call updateTransfer\n        require(self.closing_address != msg.sender);\n\n        // Counter party can only update the closer transfer\n        transfer_address = recoverAddressFromSignature(\n            nonce,\n            transferred_amount,\n            locksroot,\n            extra_hash,\n            signature \n        );\n        require(transfer_address == self.closing_address);\n\n        // Update the structure of the closer with its data provided by the\n        // counterparty\n        closer_index = 1 - caller_index;\n\n        self.participants[closer_index].nonce = nonce;\n        self.participants[closer_index].locksroot = locksroot;\n        self.participants[closer_index].transferred_amount = transferred_amount;\n    }\n\n    function recoverAddressFromSignature(\n        uint256 nonce,\n        uint256 transferred_amount,\n        bytes32 locksroot,\n        bytes32 extra_hash,\n        bytes signature\n    )\n        constant\n        internal\n        returns (address)\n    {\n        bytes32 signed_hash;\n\n        require(signature.length == 65);\n        \n        signed_hash = keccak256(\n            nonce,\n            transferred_amount,\n            this,\n            locksroot,\n            extra_hash\n        );\n\n        var (r, s, v) = signatureSplit(signature);\n        return ecrecover(signed_hash, v, r, s);\n    }\n\n    /// @notice Unlock a locked transfer\n    /// @dev Unlock a locked transfer\n    /// @param locked_encoded The lock\n    /// @param merkle_proof The merkle proof\n    /// @param secret The secret\n    function withdraw(\n        Data storage self,\n        bytes locked_encoded,\n        bytes merkle_proof,\n        bytes32 secret \n    )\n        isClosed(self)\n        public\n    {\n        uint amount;\n        uint8 index;\n        uint64 expiration;\n        bytes32 h;\n        bytes32 hashlock;\n\n        // Check if msg.sender is a participant and select the partner (for\n        // third party unlock see #541)\n        index = 1 - index_or_throw(self, msg.sender);\n        Participant storage counterparty = self.participants[index];\n\n        // An empty locksroot means there are no pending locks\n        require(counterparty.locksroot != 0);\n\n        (expiration, amount, hashlock) = decodeLock(locked_encoded);\n\n        // A lock can be withdrawn only once per participant\n        require(!counterparty.withdrawn_locks[hashlock]);\n\n        counterparty.withdrawn_locks[hashlock] = true;\n\n        // The lock must not have expired, it does not matter how far in the\n        // future it would have expired\n        require(expiration >= block.number);\n        require(hashlock == keccak256(secret));\n\n        h = computeMerkleRoot(locked_encoded, merkle_proof);\n\n        require(counterparty.locksroot == h);\n\n        // This implementation allows for each transfer to be set only once, so\n        // it's safe to update the transferred_amount in place.\n        //\n        // Once third parties are allowed to update the counter party transfer\n        // (#293, #182) the locksroot may change, if the locksroot change the\n        // transferred_amount must be reset and locks must be re-withdrawn, so\n        // this is also safe.\n        //\n        // This may be problematic if an update changes the transferred_amount\n        // but not the locksroot, since the locks don't need to be\n        // re-withdrawn, the difference in the transferred_amount must be\n        // accounted for.\n        counterparty.transferred_amount += amount;\n    }\n\n    /// @notice Settles the balance between the two parties\n    /// @dev Settles the balances of the two parties fo the channel\n    /// @return The participants with netted balances\n    function settle(Data storage self)\n        isClosed(self)\n        timeoutOver(self)\n        public\n    {\n        uint8 closing_index;\n        uint8 counter_index;\n        uint256 total_deposit;\n        uint256 counter_net;\n        uint256 closer_amount;\n        uint256 counter_amount;\n\n        closing_index = index_or_throw(self, self.closing_address);\n        counter_index = 1 - closing_index;\n\n        Participant storage closing_party = self.participants[closing_index];\n        Participant storage counter_party = self.participants[counter_index];\n\n        counter_net = (\n            counter_party.balance\n            + closing_party.transferred_amount\n            - counter_party.transferred_amount\n        );\n\n        // Direct token transfers done through the token `transfer` function\n        // cannot be accounted for, these superfluous tokens will be burned,\n        // this is because there is no way to tell which participant (if any)\n        // had ownership over the token.\n        total_deposit = closing_party.balance + counter_party.balance;\n\n        // When the closing party does not provide the counter party transfer,\n        // the `counter_net` may be larger than the `total_deposit`, without\n        // the min the token transfer fail and the token is locked.\n        counter_amount = min(counter_net, total_deposit);\n\n        // When the counter party does not provide the closing party transfer,\n        // then `counter_amount` may be negative and the transfer fails, force\n        // the value to 0.\n        counter_amount = max(counter_amount, 0);\n\n        // At this point `counter_amount` is between [0,total_deposit], so this\n        // is safe.\n        closer_amount = total_deposit - counter_amount;\n\n        if (counter_amount > 0) {\n            require(self.token.transfer(counter_party.node_address, counter_amount));\n        }\n\n        if (closer_amount > 0) {\n            require(self.token.transfer(closing_party.node_address, closer_amount));\n        }\n\n        selfdestruct(0x00000000000000000000);\n    }\n\n    function index_or_throw(Data storage self, address participant_address)\n        constant\n        private\n        returns (uint8)\n    {\n        uint8 n;\n        // Return index of participant, or throw\n        n = self.participant_index[participant_address];\n        assert(n != 0);\n        return n - 1;\n    }\n\n    // NOTES:\n    //\n    // - The EVM is a big-endian, byte addressing machine, with 32bytes/256bits\n    //   words.\n    // - The Ethereum Contract ABI specifies that variable length types have a\n    //   32bytes prefix to define the variable size.\n    // - Solidity has additional data types that are narrower than 32bytes\n    //   (e.g. uint128 uses a half word).\n    // - Solidity uses the *least-significant* bits of the word to store the\n    //   values of a narrower type.\n    //\n    // GENERAL APPROACH:\n    //\n    // Add to the message pointer the number of bytes required to move the\n    // address so that the target data is at the end of the 32bytes word.\n    //\n    // EXAMPLE:\n    //\n    // To decode the cmdid, consider this initial state:\n    //\n    //\n    //     v- pointer word start\n    //     [ 32 bytes length prefix ][ cmdid ] ----\n    //                              ^- pointer word end\n    //\n    //\n    // Because the cmdid has 1 byte length the type uint8 is used, the decoder\n    // needs to move the pointer so the cmdid is at the end of the pointer\n    // word.\n    //\n    //\n    //             v- pointer word start [moved 1byte ahead]\n    //     [ 32 bytes length prefix ][ cmdid ] ----\n    //                                       ^- pointer word end\n    //\n    //\n    // Now the data of the cmdid can be loaded to the uint8 variable.\n    //\n    // REFERENCES:\n    // - https://github.com/ethereum/wiki/wiki/Ethereum-Contract-ABI\n    // - http://solidity.readthedocs.io/en/develop/assembly.html\n\n    function decodeLock(bytes lock)\n        pure\n        internal\n        returns (uint64 expiration, uint amount, bytes32 hashlock)\n    {\n        require(lock.length == 72);\n\n        // Lock format:\n        // [0:8] expiration\n        // [8:40] amount\n        // [40:72] hashlock\n        assembly {\n            expiration := mload(add(lock, 8))\n            amount := mload(add(lock, 40))\n            hashlock := mload(add(lock, 72))\n        }\n    }\n\n    function signatureSplit(bytes signature)\n        pure\n        internal\n        returns (bytes32 r, bytes32 s, uint8 v)\n    {\n        // The signature format is a compact form of:\n        //   {bytes32 r}{bytes32 s}{uint8 v}\n        // Compact means, uint8 is not padded to 32 bytes.\n        assembly {\n            r := mload(add(signature, 32))\n            s := mload(add(signature, 64))\n            // Here we are loading the last 32 bytes, including 31 bytes\n            // of 's'. There is no 'mload8' to do this.\n            //\n            // 'byte' is not working due to the Solidity parser, so lets\n            // use the second best option, 'and'\n            v := and(mload(add(signature, 65)), 0xff)\n        }\n\n        require(v == 27 || v == 28);\n    }\n\n    function computeMerkleRoot(bytes lock, bytes merkle_proof)\n        pure\n        internal\n        returns (bytes32)\n    {\n        require(merkle_proof.length % 32 == 0);\n\n        uint i;\n        bytes32 h;\n        bytes32 el;\n\n        h = keccak256(lock);\n        for (i = 32; i <= merkle_proof.length; i += 32) {\n            assembly {\n                el := mload(add(merkle_proof, i))\n            }\n\n            if (h < el) {\n                h = keccak256(h, el);\n            } else {\n                h = keccak256(el, h);\n            }\n        }\n\n        return h;\n    }\n\n    function min(uint a, uint b) pure internal returns (uint)\n    {\n        return a > b ? b : a;\n    }\n\n    function max(uint a, uint b) pure internal returns (uint)\n    {\n        return a > b ? a : b;\n    }\n}\n",
  "sourcePath": "/Users/amitshah/Documents/nodejs/javascript/blockchain-service/smart-contracts/contracts/NettingChannelLibrary.sol",
  "compiler": {
    "name": "solc",
    "version": "0.4.21+commit.dfe3193c.Emscripten.clang"
  },
  "schemaVersion": "2.0.0",
  "updatedAt": "2018-04-17T01:56:46.764Z"
}