{
  "contractName": "NettingChannelContract",
  "abi": [
    {
      "constant": true,
      "inputs": [],
      "name": "refund",
      "outputs": [
        {
          "name": "",
          "type": "uint256"
        }
      ],
      "payable": false,
      "stateMutability": "view",
      "type": "function"
    },
    {
      "constant": true,
      "inputs": [],
      "name": "data",
      "outputs": [
        {
          "name": "settle_timeout",
          "type": "uint256"
        },
        {
          "name": "opened",
          "type": "uint256"
        },
        {
          "name": "closed",
          "type": "uint256"
        },
        {
          "name": "closing_address",
          "type": "address"
        },
        {
          "name": "token",
          "type": "address"
        },
        {
          "name": "updated",
          "type": "bool"
        },
        {
          "name": "goToken",
          "type": "address"
        },
        {
          "name": "channel_manager",
          "type": "address"
        }
      ],
      "payable": false,
      "stateMutability": "view",
      "type": "function"
    },
    {
      "constant": true,
      "inputs": [],
      "name": "refund_interval",
      "outputs": [
        {
          "name": "",
          "type": "uint256"
        }
      ],
      "payable": false,
      "stateMutability": "view",
      "type": "function"
    },
    {
      "constant": true,
      "inputs": [],
      "name": "contract_version",
      "outputs": [
        {
          "name": "",
          "type": "string"
        }
      ],
      "payable": false,
      "stateMutability": "view",
      "type": "function"
    },
    {
      "constant": true,
      "inputs": [],
      "name": "fee",
      "outputs": [
        {
          "name": "",
          "type": "uint256"
        }
      ],
      "payable": false,
      "stateMutability": "view",
      "type": "function"
    },
    {
      "inputs": [
        {
          "name": "token_address",
          "type": "address"
        },
        {
          "name": "participant1",
          "type": "address"
        },
        {
          "name": "participant2",
          "type": "address"
        },
        {
          "name": "timeout",
          "type": "uint256"
        },
        {
          "name": "gotoken_address",
          "type": "address"
        }
      ],
      "payable": false,
      "stateMutability": "nonpayable",
      "type": "constructor"
    },
    {
      "payable": true,
      "stateMutability": "payable",
      "type": "fallback"
    },
    {
      "anonymous": false,
      "inputs": [
        {
          "indexed": false,
          "name": "token_address",
          "type": "address"
        },
        {
          "indexed": false,
          "name": "participant",
          "type": "address"
        },
        {
          "indexed": false,
          "name": "balance",
          "type": "uint256"
        }
      ],
      "name": "ChannelNewBalance",
      "type": "event"
    },
    {
      "anonymous": false,
      "inputs": [
        {
          "indexed": false,
          "name": "closing_address",
          "type": "address"
        }
      ],
      "name": "ChannelClosed",
      "type": "event"
    },
    {
      "anonymous": false,
      "inputs": [
        {
          "indexed": false,
          "name": "node_address",
          "type": "address"
        }
      ],
      "name": "TransferUpdated",
      "type": "event"
    },
    {
      "anonymous": false,
      "inputs": [],
      "name": "ChannelSettled",
      "type": "event"
    },
    {
      "anonymous": false,
      "inputs": [
        {
          "indexed": false,
          "name": "secret",
          "type": "bytes32"
        },
        {
          "indexed": false,
          "name": "receiver_address",
          "type": "address"
        }
      ],
      "name": "ChannelSecretRevealed",
      "type": "event"
    },
    {
      "anonymous": false,
      "inputs": [
        {
          "indexed": false,
          "name": "receiver",
          "type": "address"
        },
        {
          "indexed": false,
          "name": "amount",
          "type": "uint256"
        }
      ],
      "name": "Refund",
      "type": "event"
    },
    {
      "constant": false,
      "inputs": [
        {
          "name": "amount",
          "type": "uint256"
        }
      ],
      "name": "deposit",
      "outputs": [
        {
          "name": "",
          "type": "bool"
        }
      ],
      "payable": false,
      "stateMutability": "nonpayable",
      "type": "function"
    },
    {
      "constant": true,
      "inputs": [],
      "name": "addressAndBalance",
      "outputs": [
        {
          "name": "participant1",
          "type": "address"
        },
        {
          "name": "balance1",
          "type": "uint256"
        },
        {
          "name": "participant2",
          "type": "address"
        },
        {
          "name": "balance2",
          "type": "uint256"
        }
      ],
      "payable": false,
      "stateMutability": "view",
      "type": "function"
    },
    {
      "constant": false,
      "inputs": [
        {
          "name": "nonce",
          "type": "uint256"
        },
        {
          "name": "transferred_amount",
          "type": "uint256"
        },
        {
          "name": "locksroot",
          "type": "bytes32"
        },
        {
          "name": "extra_hash",
          "type": "bytes32"
        },
        {
          "name": "signature",
          "type": "bytes"
        }
      ],
      "name": "close",
      "outputs": [],
      "payable": false,
      "stateMutability": "nonpayable",
      "type": "function"
    },
    {
      "constant": false,
      "inputs": [
        {
          "name": "nonce",
          "type": "uint256"
        },
        {
          "name": "transferred_amount",
          "type": "uint256"
        },
        {
          "name": "locksroot",
          "type": "bytes32"
        },
        {
          "name": "extra_hash",
          "type": "bytes32"
        },
        {
          "name": "signature",
          "type": "bytes"
        }
      ],
      "name": "updateTransfer",
      "outputs": [],
      "payable": false,
      "stateMutability": "nonpayable",
      "type": "function"
    },
    {
      "constant": false,
      "inputs": [
        {
          "name": "locked_encoded",
          "type": "bytes"
        },
        {
          "name": "merkle_proof",
          "type": "bytes"
        },
        {
          "name": "secret",
          "type": "bytes32"
        }
      ],
      "name": "withdraw",
      "outputs": [],
      "payable": false,
      "stateMutability": "nonpayable",
      "type": "function"
    },
    {
      "constant": false,
      "inputs": [],
      "name": "settle",
      "outputs": [],
      "payable": false,
      "stateMutability": "nonpayable",
      "type": "function"
    },
    {
      "constant": true,
      "inputs": [],
      "name": "settleTimeout",
      "outputs": [
        {
          "name": "",
          "type": "uint256"
        }
      ],
      "payable": false,
      "stateMutability": "view",
      "type": "function"
    },
    {
      "constant": true,
      "inputs": [],
      "name": "tokenAddress",
      "outputs": [
        {
          "name": "",
          "type": "address"
        }
      ],
      "payable": false,
      "stateMutability": "view",
      "type": "function"
    },
    {
      "constant": true,
      "inputs": [],
      "name": "opened",
      "outputs": [
        {
          "name": "",
          "type": "uint256"
        }
      ],
      "payable": false,
      "stateMutability": "view",
      "type": "function"
    },
    {
      "constant": true,
      "inputs": [],
      "name": "closed",
      "outputs": [
        {
          "name": "",
          "type": "uint256"
        }
      ],
      "payable": false,
      "stateMutability": "view",
      "type": "function"
    },
    {
      "constant": true,
      "inputs": [],
      "name": "closingAddress",
      "outputs": [
        {
          "name": "",
          "type": "address"
        }
      ],
      "payable": false,
      "stateMutability": "view",
      "type": "function"
    },
    {
      "constant": true,
      "inputs": [],
      "name": "participantData",
      "outputs": [
        {
          "name": "",
          "type": "address"
        },
        {
          "name": "",
          "type": "uint256"
        },
        {
          "name": "",
          "type": "bytes32"
        }
      ],
      "payable": false,
      "stateMutability": "view",
      "type": "function"
    },
    {
      "constant": true,
      "inputs": [
        {
          "name": "lock",
          "type": "bytes"
        }
      ],
      "name": "decodeLock",
      "outputs": [
        {
          "name": "",
          "type": "uint256"
        },
        {
          "name": "",
          "type": "uint256"
        },
        {
          "name": "",
          "type": "bytes32"
        }
      ],
      "payable": false,
      "stateMutability": "view",
      "type": "function"
    },
    {
      "constant": true,
      "inputs": [
        {
          "name": "lock",
          "type": "bytes"
        },
        {
          "name": "merkle_proof",
          "type": "bytes"
        }
      ],
      "name": "computeMerkleRoot",
      "outputs": [
        {
          "name": "",
          "type": "bytes32"
        }
      ],
      "payable": false,
      "stateMutability": "pure",
      "type": "function"
    },
    {
      "constant": true,
      "inputs": [
        {
          "name": "lock",
          "type": "bytes"
        }
      ],
      "name": "computeLockHash",
      "outputs": [
        {
          "name": "",
          "type": "bytes32"
        }
      ],
      "payable": false,
      "stateMutability": "pure",
      "type": "function"
    }
  ],
  "bytecode": "0x6060604052341561000f57600080fd5b60405160a080611c0f8339810160405280805190602001909190805190602001909190805190602001909190805190602001909190805190602001909190505081600681101580156100645750622932e08111155b151561006f57600080fd5b8373ffffffffffffffffffffffffffffffffffffffff168573ffffffffffffffffffffffffffffffffffffffff16141515156100aa57600080fd5b84600060050160006002811015156100be57fe5b6006020160000160006101000a81548173ffffffffffffffffffffffffffffffffffffffff021916908373ffffffffffffffffffffffffffffffffffffffff160217905550836000600501600160028110151561011757fe5b6006020160000160006101000a81548173ffffffffffffffffffffffffffffffffffffffff021916908373ffffffffffffffffffffffffffffffffffffffff1602179055506001600060110160008773ffffffffffffffffffffffffffffffffffffffff1673ffffffffffffffffffffffffffffffffffffffff16815260200190815260200160002060006101000a81548160ff021916908360ff1602179055506002600060110160008673ffffffffffffffffffffffffffffffffffffffff1673ffffffffffffffffffffffffffffffffffffffff16815260200190815260200160002060006101000a81548160ff021916908360ff16021790555085600060040160006101000a81548173ffffffffffffffffffffffffffffffffffffffff021916908373ffffffffffffffffffffffffffffffffffffffff1602179055508260008001819055504360006001018190555081600060120160016101000a81548173ffffffffffffffffffffffffffffffffffffffff021916908373ffffffffffffffffffffffffffffffffffffffff16021790555033600060130160006101000a81548173ffffffffffffffffffffffffffffffffffffffff021916908373ffffffffffffffffffffffffffffffffffffffff160217905550505050505050611907806103086000396000f300606060405260043610610112576000357c0100000000000000000000000000000000000000000000000000000000900463ffffffff16806311da60b414610117578063202ac3bc1461012c5780632cc78569146101d9578063378c4c1c146102525780635387704f1461030e57806353af5d1014610397578063590e1ae3146103ec578063597e1fb5146104155780635f88eade1461043e5780636d2381b31461046757806373d4a13a146104fd5780637ebdc4781461060b5780639d76ea58146106345780639f9ea29d14610689578063adf598f814610710578063b32c65c814610739578063b6b55f25146107c7578063c70fa79414610802578063da2512791461086d578063ddca3f43146108f6575b600080fd5b341561012257600080fd5b61012a61091f565b005b341561013757600080fd5b6101d7600480803590602001908201803590602001908080601f0160208091040260200160405190810160405280939291908181526020018383808284378201915050505050509190803590602001908201803590602001908080601f01602080910402602001604051908101604052809392919081815260200183838082843782019150505050505091908035600019169060200190919050506109ca565b005b34156101e457600080fd5b610234600480803590602001908201803590602001908080601f01602080910402602001604051908101604052809392919081815260200183838082843782019150505050505091905050610ba9565b60405180826000191660001916815260200191505060405180910390f35b341561025d57600080fd5b6102f0600480803590602001908201803590602001908080601f0160208091040260200160405190810160405280939291908181526020018383808284378201915050505050509190803590602001908201803590602001908080601f01602080910402602001604051908101604052809392919081815260200183838082843782019150505050505091905050610c15565b60405180826000191660001916815260200191505060405180910390f35b341561031957600080fd5b6103956004808035906020019091908035906020019091908035600019169060200190919080356000191690602001909190803590602001908201803590602001908080601f01602080910402602001604051908101604052809392919081815260200183838082843782019150505050505091905050610d3e565b005b34156103a257600080fd5b6103aa6112d8565b604051808273ffffffffffffffffffffffffffffffffffffffff1673ffffffffffffffffffffffffffffffffffffffff16815260200191505060405180910390f35b34156103f757600080fd5b6103ff611304565b6040518082815260200191505060405180910390f35b341561042057600080fd5b610428611309565b6040518082815260200191505060405180910390f35b341561044957600080fd5b610451611315565b6040518082815260200191505060405180910390f35b341561047257600080fd5b61047a611321565b604051808573ffffffffffffffffffffffffffffffffffffffff1673ffffffffffffffffffffffffffffffffffffffff1681526020018481526020018373ffffffffffffffffffffffffffffffffffffffff1673ffffffffffffffffffffffffffffffffffffffff16815260200182815260200194505050505060405180910390f35b341561050857600080fd5b6105106113c0565b604051808981526020018881526020018781526020018673ffffffffffffffffffffffffffffffffffffffff1673ffffffffffffffffffffffffffffffffffffffff1681526020018573ffffffffffffffffffffffffffffffffffffffff1673ffffffffffffffffffffffffffffffffffffffff168152602001841515151581526020018373ffffffffffffffffffffffffffffffffffffffff1673ffffffffffffffffffffffffffffffffffffffff1681526020018273ffffffffffffffffffffffffffffffffffffffff1673ffffffffffffffffffffffffffffffffffffffff1681526020019850505050505050505060405180910390f35b341561061657600080fd5b61061e611483565b6040518082815260200191505060405180910390f35b341561063f57600080fd5b61064761148f565b604051808273ffffffffffffffffffffffffffffffffffffffff1673ffffffffffffffffffffffffffffffffffffffff16815260200191505060405180910390f35b341561069457600080fd5b6106e4600480803590602001908201803590602001908080601f016020809104026020016040519081016040528093929190818152602001838380828437820191505050505050919050506114bb565b604051808481526020018381526020018260001916600019168152602001935050505060405180910390f35b341561071b57600080fd5b6107236114fc565b6040518082815260200191505060405180910390f35b341561074457600080fd5b61074c611501565b6040518080602001828103825283818151815260200191508051906020019080838360005b8381101561078c578082015181840152602081019050610771565b50505050905090810190601f1680156107b95780820380516001836020036101000a031916815260200191505b509250505060405180910390f35b34156107d257600080fd5b6107e8600480803590602001909190505061153a565b604051808215151515815260200191505060405180910390f35b341561080d57600080fd5b6108156116b3565b604051808473ffffffffffffffffffffffffffffffffffffffff1673ffffffffffffffffffffffffffffffffffffffff1681526020018381526020018260001916600019168152602001935050505060405180910390f35b341561087857600080fd5b6108f46004808035906020019091908035906020019091908035600019169060200190919080356000191690602001909190803590602001908201803590602001908080601f01602080910402602001604051908101604052809392919081815260200183838082843782019150505050505091905050611752565b005b341561090157600080fd5b6109096118d6565b6040518082815260200191505060405180910390f35b600073__NettingChannelLibrary_________________63de394e0d90916040518263ffffffff167c01000000000000000000000000000000000000000000000000000000000281526004018082815260200191505060006040518083038186803b151561098c57600080fd5b5af4151561099957600080fd5b5050507f6713dea2491bc95585ea9be0d6993fc7790fdcd04f495a7e7592fbd80bbe00de60405160405180910390a1565b600073__NettingChannelLibrary_________________63c252246290918585856040518563ffffffff167c01000000000000000000000000000000000000000000000000000000000281526004018085815260200180602001806020018460001916600019168152602001838103835286818151815260200191508051906020019080838360005b83811015610a6e578082015181840152602081019050610a53565b50505050905090810190601f168015610a9b5780820380516001836020036101000a031916815260200191505b50838103825285818151815260200191508051906020019080838360005b83811015610ad4578082015181840152602081019050610ab9565b50505050905090810190601f168015610b015780820380516001836020036101000a031916815260200191505b50965050505050505060006040518083038186803b1515610b2157600080fd5b5af41515610b2e57600080fd5b5050507fa2e2842eefea7e32abccccd9d3fae92608319362c3905ef73de44938c059253681336040518083600019166000191681526020018273ffffffffffffffffffffffffffffffffffffffff1673ffffffffffffffffffffffffffffffffffffffff1681526020019250505060405180910390a1505050565b6000816040518082805190602001908083835b602083101515610be15780518252602082019150602081019050602083039250610bbc565b6001836020036101000a03801982511681845116808217855250505050505090500191505060405180910390209050919050565b600080600080600060208651811515610c2a57fe5b06141515610c3757600080fd5b856040518082805190602001908083835b602083101515610c6d5780518252602082019150602081019050602083039250610c48565b6001836020036101000a03801982511681845116808217855250505050505090500191505060405180910390209150602092505b845183111515610d3257828501519050806000191682600019161015610cf657818160405180836000191660001916815260200182600019166000191681526020019250505060405180910390209150610d27565b8082604051808360001916600019168152602001826000191660001916815260200192505050604051809103902091505b602083019250610ca1565b81935050505092915050565b60008073__NettingChannelLibrary_________________636f857275909188888888886040518763ffffffff167c0100000000000000000000000000000000000000000000000000000000028152600401808781526020018681526020018581526020018460001916600019168152602001836000191660001916815260200180602001828103825283818151815260200191508051906020019080838360005b83811015610dfb578082015181840152602081019050610de0565b50505050905090810190601f168015610e285780820380516001836020036101000a031916815260200191505b5097505050505050505060006040518083038186803b1515610e4957600080fd5b5af41515610e5657600080fd5b505050606460006001015460006002015403111561116757600060120160019054906101000a900473ffffffffffffffffffffffffffffffffffffffff1673ffffffffffffffffffffffffffffffffffffffff1663a9059cbb60006005016000600281101515610ec257fe5b6006020160000160009054906101000a900473ffffffffffffffffffffffffffffffffffffffff1660196040518363ffffffff167c0100000000000000000000000000000000000000000000000000000000028152600401808373ffffffffffffffffffffffffffffffffffffffff1673ffffffffffffffffffffffffffffffffffffffff16815260200182815260200192505050602060405180830381600087803b1515610f7057600080fd5b5af11515610f7d57600080fd5b50505060405180519050905060011515811515141515610f9c57600080fd5b60009050600060120160019054906101000a900473ffffffffffffffffffffffffffffffffffffffff1673ffffffffffffffffffffffffffffffffffffffff1663a9059cbb600060130160009054906101000a900473ffffffffffffffffffffffffffffffffffffffff1660196032036040518363ffffffff167c0100000000000000000000000000000000000000000000000000000000028152600401808373ffffffffffffffffffffffffffffffffffffffff1673ffffffffffffffffffffffffffffffffffffffff16815260200182815260200192505050602060405180830381600087803b151561109057600080fd5b5af1151561109d57600080fd5b505050604051805190509050600115158115151415156110bc57600080fd5b7fbb28353e4598c3b9199101a66e0989549b659a59a54d2c27fbb183f1932c8e6d600060050160006002811015156110f057fe5b6006020160000160009054906101000a900473ffffffffffffffffffffffffffffffffffffffff166019604051808373ffffffffffffffffffffffffffffffffffffffff1673ffffffffffffffffffffffffffffffffffffffff1681526020018281526020019250505060405180910390a161126d565b600060120160019054906101000a900473ffffffffffffffffffffffffffffffffffffffff1673ffffffffffffffffffffffffffffffffffffffff1663a9059cbb600060130160009054906101000a900473ffffffffffffffffffffffffffffffffffffffff1660326040518363ffffffff167c0100000000000000000000000000000000000000000000000000000000028152600401808373ffffffffffffffffffffffffffffffffffffffff1673ffffffffffffffffffffffffffffffffffffffff16815260200182815260200192505050602060405180830381600087803b151561125457600080fd5b5af1151561126157600080fd5b50505060405180519050505b7f93daadf23cc2150b386a6c3b39f6e61b9c555fc1cec423e4c93ac9d36b008fef33604051808273ffffffffffffffffffffffffffffffffffffffff1673ffffffffffffffffffffffffffffffffffffffff16815260200191505060405180910390a1505050505050565b60008060030160009054906101000a900473ffffffffffffffffffffffffffffffffffffffff16905090565b601981565b60008060020154905090565b60008060010154905090565b6000806000806000806000600501600060028110151561133d57fe5b6006020191506000600501600160028110151561135657fe5b6006020190508160000160009054906101000a900473ffffffffffffffffffffffffffffffffffffffff169550816001015494508060000160009054906101000a900473ffffffffffffffffffffffffffffffffffffffff16935080600101549250505090919293565b60008060000154908060010154908060020154908060030160009054906101000a900473ffffffffffffffffffffffffffffffffffffffff16908060040160009054906101000a900473ffffffffffffffffffffffffffffffffffffffff16908060120160009054906101000a900460ff16908060120160019054906101000a900473ffffffffffffffffffffffffffffffffffffffff16908060130160009054906101000a900473ffffffffffffffffffffffffffffffffffffffff16905088565b60008060000154905090565b60008060040160009054906101000a900473ffffffffffffffffffffffffffffffffffffffff16905090565b600080600080600080606087511415156114d457600080fd5b6020870151925060408701519150606087015190508282829550955095505050509193909250565b606481565b6040805190810160405280600581526020017f302e322e5f00000000000000000000000000000000000000000000000000000081525081565b60008060008073__NettingChannelLibrary_________________633268a05a9091866040518363ffffffff167c01000000000000000000000000000000000000000000000000000000000281526004018083815260200182815260200192505050604080518083038186803b15156115b257600080fd5b5af415156115bf57600080fd5b5050506040518051906020018051905080925081935050506001151582151514156116a9577f9cb02993ef7311b37acc6bdfc1a8397160be258a877d78b31f4e366caf7bfcef600060040160009054906101000a900473ffffffffffffffffffffffffffffffffffffffff163383604051808473ffffffffffffffffffffffffffffffffffffffff1673ffffffffffffffffffffffffffffffffffffffff1681526020018373ffffffffffffffffffffffffffffffffffffffff1673ffffffffffffffffffffffffffffffffffffffff168152602001828152602001935050505060405180910390a15b8192505050919050565b60008060008073__NettingChannelLibrary_________________63f246b5f890916040518263ffffffff167c01000000000000000000000000000000000000000000000000000000000281526004018082815260200191505060606040518083038186803b151561172457600080fd5b5af4151561173157600080fd5b50505060405180519060200180519060200180519050925092509250909192565b600073__NettingChannelLibrary_________________6351062823909187878787876040518763ffffffff167c0100000000000000000000000000000000000000000000000000000000028152600401808781526020018681526020018581526020018460001916600019168152602001836000191660001916815260200180602001828103825283818151815260200191508051906020019080838360005b8381101561180e5780820151818401526020810190506117f3565b50505050905090810190601f16801561183b5780820380516001836020036101000a031916815260200191505b5097505050505050505060006040518083038186803b151561185c57600080fd5b5af4151561186957600080fd5b5050507fa0379b1bd0864245b4ff39bf6a023065e80d0e9276d2671d94b9f653b4bbcdfe33604051808273ffffffffffffffffffffffffffffffffffffffff1673ffffffffffffffffffffffffffffffffffffffff16815260200191505060405180910390a15050505050565b6032815600a165627a7a72305820ef2b0fa2fa5f13f8e64f6adee3acf47a36ea0a1b52d160fd68ebdd3b970865f10029",
  "source": "pragma solidity ^0.4.11;\n\nimport \"./NettingChannelLibrary.sol\";\n\ncontract NettingChannelContract {\n    string constant public contract_version = \"0.2._\";\n    uint256 constant public refund_interval = 100;\n    uint256 constant public refund = 25;\n    uint256 constant public fee = 50;\n    using NettingChannelLibrary for NettingChannelLibrary.Data;\n    NettingChannelLibrary.Data public data;\n\n    event ChannelNewBalance(address token_address, address participant, uint balance);\n    event ChannelClosed(address closing_address);\n    event TransferUpdated(address node_address);\n    event ChannelSettled();\n    event ChannelSecretRevealed(bytes32 secret, address receiver_address);\n    event Refund(address receiver,uint256 amount);\n\n    modifier settleTimeoutValid(uint t) {\n        require(t >= 6 && t <= 2700000);\n        _;\n    }\n\n    function NettingChannelContract(\n        address token_address,\n        address participant1,\n        address participant2,\n        uint timeout,\n        address gotoken_address\n    )\n        public\n        settleTimeoutValid(timeout)\n    {\n        \n        require(participant1 != participant2);\n\n        data.participants[0].node_address = participant1;\n        data.participants[1].node_address = participant2;\n        data.participant_index[participant1] = 1;\n        data.participant_index[participant2] = 2;\n\n        data.token = Token(token_address);\n        data.settle_timeout = timeout;\n        data.opened = block.number;\n\n        data.goToken = Token(gotoken_address);\n        data.channel_manager = msg.sender;\n    }\n\n    /// @notice Caller makes a deposit into their channel balance.\n    /// @param amount The amount caller wants to deposit.\n    /// @return True if deposit is successful.\n    function deposit(uint256 amount)\n        public\n        returns (bool)\n    {\n        bool success;\n        uint256 balance;\n\n        (success, balance) = data.deposit(amount);\n\n        if (success == true) {\n            ChannelNewBalance(data.token, msg.sender, balance);\n        }\n\n        return success;\n    }\n\n    /// @notice Get the address and balance of both partners in a channel.\n    /// @return The address and balance pairs.\n    function addressAndBalance()\n        public\n        constant\n        returns (address participant1, uint balance1, address participant2, uint balance2)\n    {\n        NettingChannelLibrary.Participant storage node1 = data.participants[0];\n        NettingChannelLibrary.Participant storage node2 = data.participants[1];\n\n        participant1 = node1.node_address;\n        balance1 = node1.balance;\n        participant2 = node2.node_address;\n        balance2 = node2.balance;\n    }\n\n    /// @notice Close the channel. Can only be called by a participant in the channel.\n    function close(\n        uint256 nonce,\n        uint256 transferred_amount,\n        bytes32 locksroot,\n        bytes32 extra_hash,\n        bytes signature\n    )\n        public\n    {\n        data.close(\n            nonce,\n            transferred_amount,\n            locksroot,\n            extra_hash,\n            signature\n        );\n\n        if(data.closed- data.opened > refund_interval){\n            bool success = data.goToken.transfer(data.participants[0].node_address,refund);\n            require(success == true);\n            success = false;\n            success = data.goToken.transfer(data.channel_manager,fee-refund);\n            require(success == true);\n            emit Refund(data.participants[0].node_address,refund);\n        }else{\n            data.goToken.transfer(data.channel_manager,fee);\n        }\n        ChannelClosed(msg.sender);\n    }\n\n    /// @notice Dispute the state after closing, called by the counterparty (the\n    ///         participant who did not close the channel).\n    function updateTransfer(\n        uint256 nonce,\n        uint256 transferred_amount,\n        bytes32 locksroot,\n        bytes32 extra_hash,\n        bytes signature\n    )\n        public\n    {\n        data.updateTransfer(\n            nonce,\n            transferred_amount,\n            locksroot,\n            extra_hash,\n            signature\n        );\n        TransferUpdated(msg.sender);\n    }\n\n    /// @notice Unlock a locked transfer.\n    /// @param locked_encoded The locked transfer to be unlocked.\n    /// @param merkle_proof The merke_proof for the locked transfer.\n    /// @param secret The secret to unlock the locked transfer.\n    function withdraw(bytes locked_encoded, bytes merkle_proof, bytes32 secret) public {\n        // throws if sender is not a participant\n        data.withdraw(locked_encoded, merkle_proof, secret);\n        ChannelSecretRevealed(secret, msg.sender);\n    }\n\n    /// @notice Settle the transfers and balances of the channel and pay out to\n    ///         each participant. Can only be called after the channel is closed\n    ///         and only after the number of blocks in the settlement timeout\n    ///         have passed.\n    function settle() public {\n        data.settle();\n        ChannelSettled();\n    }\n\n    /// @notice Returns the number of blocks until the settlement timeout.\n    /// @return The number of blocks until the settlement timeout.\n    function settleTimeout() public constant returns (uint) {\n        return data.settle_timeout;\n    }\n\n    /// @notice Returns the address of the token.\n    /// @return The address of the token.\n    function tokenAddress() public constant returns (address) {\n        return data.token;\n    }\n\n    /// @notice Returns the block number for when the channel was opened.\n    /// @return The block number for when the channel was opened.\n    function opened() public constant returns (uint) {\n        return data.opened;\n    }\n\n    /// @notice Returns the block number for when the channel was closed.\n    /// @return The block number for when the channel was closed.\n    function closed() public constant returns (uint) {\n        return data.closed;\n    }\n\n    /// @notice Returns the address of the closing participant.\n    /// @return The address of the closing participant.\n    function closingAddress() public constant returns (address) {\n        return data.closing_address;\n    }\n\n    function participantData() view public returns(address,uint256,bytes32){\n        return data.participantData();\n    }\n    \n    function decodeLock(bytes lock)  public constant returns(uint256  ,uint256, bytes32 ){\n        require(lock.length == 96);\n        uint256 amount;\n        uint256 expiration;\n        bytes32 hashlock;\n        // Lock format:\n        // [0:32] amount\n        // [32:64] expirtation\n        // [64:96] hashlock\n\n        assembly {\n            amount := mload(add(lock, 32))\n            expiration := mload(add(lock, 64))\n            hashlock := mload(add(lock, 96))\n        }\n        return (amount,expiration,hashlock);\n    }\n\n    function computeMerkleRoot(bytes lock, bytes merkle_proof) pure public returns(bytes32){\n        require(merkle_proof.length % 32 == 0);\n\n        uint i;\n        bytes32 h;\n        bytes32 el;\n\n        h = keccak256(lock);\n        for (i = 32; i <= merkle_proof.length; i += 32) {\n            assembly {\n                el := mload(add(merkle_proof, i))\n            }\n\n            if (h < el) {\n                h = keccak256(h, el);\n            } else {\n                h = keccak256(el, h);\n            }\n        }\n\n        return h;\n    }\n\n    function computeLockHash(bytes lock) pure public  returns(bytes32){\n        return keccak256(lock);\n    }\n\n    function () payable public { revert(); }\n\n\n\n    // function() payable {}\n}\n",
  "sourcePath": "/Users/amitshah/Documents/nodejs/javascript/blockchain-service/smart-contracts/contracts/NettingChannelContract.sol",
  "compiler": {
    "name": "solc",
    "version": "0.4.21+commit.dfe3193c.Emscripten.clang"
  },
  "schemaVersion": "2.0.0",
  "updatedAt": "2018-04-20T23:08:17.148Z"
}