{
  "contractName": "NettingChannelContract",
  "abi": [
    {
      "constant": true,
      "inputs": [],
      "name": "data",
      "outputs": [
        {
          "name": "settle_timeout",
          "type": "uint256"
        },
        {
          "name": "opened",
          "type": "uint256"
        },
        {
          "name": "closed",
          "type": "uint256"
        },
        {
          "name": "closing_address",
          "type": "address"
        },
        {
          "name": "token",
          "type": "address"
        },
        {
          "name": "updated",
          "type": "bool"
        }
      ],
      "payable": false,
      "stateMutability": "view",
      "type": "function"
    },
    {
      "constant": true,
      "inputs": [],
      "name": "contract_version",
      "outputs": [
        {
          "name": "",
          "type": "string"
        }
      ],
      "payable": false,
      "stateMutability": "view",
      "type": "function"
    },
    {
      "inputs": [
        {
          "name": "token_address",
          "type": "address"
        },
        {
          "name": "participant1",
          "type": "address"
        },
        {
          "name": "participant2",
          "type": "address"
        },
        {
          "name": "timeout",
          "type": "uint256"
        }
      ],
      "payable": false,
      "stateMutability": "nonpayable",
      "type": "constructor"
    },
    {
      "payable": true,
      "stateMutability": "payable",
      "type": "fallback"
    },
    {
      "anonymous": false,
      "inputs": [
        {
          "indexed": false,
          "name": "token_address",
          "type": "address"
        },
        {
          "indexed": false,
          "name": "participant",
          "type": "address"
        },
        {
          "indexed": false,
          "name": "balance",
          "type": "uint256"
        }
      ],
      "name": "ChannelNewBalance",
      "type": "event"
    },
    {
      "anonymous": false,
      "inputs": [
        {
          "indexed": false,
          "name": "closing_address",
          "type": "address"
        }
      ],
      "name": "ChannelClosed",
      "type": "event"
    },
    {
      "anonymous": false,
      "inputs": [
        {
          "indexed": false,
          "name": "node_address",
          "type": "address"
        }
      ],
      "name": "TransferUpdated",
      "type": "event"
    },
    {
      "anonymous": false,
      "inputs": [],
      "name": "ChannelSettled",
      "type": "event"
    },
    {
      "anonymous": false,
      "inputs": [
        {
          "indexed": false,
          "name": "secret",
          "type": "bytes32"
        },
        {
          "indexed": false,
          "name": "receiver_address",
          "type": "address"
        }
      ],
      "name": "ChannelSecretRevealed",
      "type": "event"
    },
    {
      "constant": false,
      "inputs": [
        {
          "name": "amount",
          "type": "uint256"
        }
      ],
      "name": "deposit",
      "outputs": [
        {
          "name": "",
          "type": "bool"
        }
      ],
      "payable": false,
      "stateMutability": "nonpayable",
      "type": "function"
    },
    {
      "constant": true,
      "inputs": [],
      "name": "addressAndBalance",
      "outputs": [
        {
          "name": "participant1",
          "type": "address"
        },
        {
          "name": "balance1",
          "type": "uint256"
        },
        {
          "name": "participant2",
          "type": "address"
        },
        {
          "name": "balance2",
          "type": "uint256"
        }
      ],
      "payable": false,
      "stateMutability": "view",
      "type": "function"
    },
    {
      "constant": false,
      "inputs": [
        {
          "name": "nonce",
          "type": "uint64"
        },
        {
          "name": "transferred_amount",
          "type": "uint256"
        },
        {
          "name": "locksroot",
          "type": "bytes32"
        },
        {
          "name": "extra_hash",
          "type": "bytes32"
        },
        {
          "name": "signature",
          "type": "bytes"
        }
      ],
      "name": "close",
      "outputs": [],
      "payable": false,
      "stateMutability": "nonpayable",
      "type": "function"
    },
    {
      "constant": false,
      "inputs": [
        {
          "name": "nonce",
          "type": "uint64"
        },
        {
          "name": "transferred_amount",
          "type": "uint256"
        },
        {
          "name": "locksroot",
          "type": "bytes32"
        },
        {
          "name": "extra_hash",
          "type": "bytes32"
        },
        {
          "name": "signature",
          "type": "bytes"
        }
      ],
      "name": "updateTransfer",
      "outputs": [],
      "payable": false,
      "stateMutability": "nonpayable",
      "type": "function"
    },
    {
      "constant": false,
      "inputs": [
        {
          "name": "locked_encoded",
          "type": "bytes"
        },
        {
          "name": "merkle_proof",
          "type": "bytes"
        },
        {
          "name": "secret",
          "type": "bytes32"
        }
      ],
      "name": "withdraw",
      "outputs": [],
      "payable": false,
      "stateMutability": "nonpayable",
      "type": "function"
    },
    {
      "constant": false,
      "inputs": [],
      "name": "settle",
      "outputs": [],
      "payable": false,
      "stateMutability": "nonpayable",
      "type": "function"
    },
    {
      "constant": true,
      "inputs": [],
      "name": "settleTimeout",
      "outputs": [
        {
          "name": "",
          "type": "uint256"
        }
      ],
      "payable": false,
      "stateMutability": "view",
      "type": "function"
    },
    {
      "constant": true,
      "inputs": [],
      "name": "tokenAddress",
      "outputs": [
        {
          "name": "",
          "type": "address"
        }
      ],
      "payable": false,
      "stateMutability": "view",
      "type": "function"
    },
    {
      "constant": true,
      "inputs": [],
      "name": "opened",
      "outputs": [
        {
          "name": "",
          "type": "uint256"
        }
      ],
      "payable": false,
      "stateMutability": "view",
      "type": "function"
    },
    {
      "constant": true,
      "inputs": [],
      "name": "closed",
      "outputs": [
        {
          "name": "",
          "type": "uint256"
        }
      ],
      "payable": false,
      "stateMutability": "view",
      "type": "function"
    },
    {
      "constant": true,
      "inputs": [],
      "name": "closingAddress",
      "outputs": [
        {
          "name": "",
          "type": "address"
        }
      ],
      "payable": false,
      "stateMutability": "view",
      "type": "function"
    }
  ],
  "bytecode": "0x6060604052341561000f57600080fd5b60405160808061117e83398101604052808051906020019091908051906020019091908051906020019091908051906020019091905050806006811015801561005b5750622932e08111155b151561006657600080fd5b8273ffffffffffffffffffffffffffffffffffffffff168473ffffffffffffffffffffffffffffffffffffffff16141515156100a157600080fd5b83600060050160006002811015156100b557fe5b6006020160000160006101000a81548173ffffffffffffffffffffffffffffffffffffffff021916908373ffffffffffffffffffffffffffffffffffffffff160217905550826000600501600160028110151561010e57fe5b6006020160000160006101000a81548173ffffffffffffffffffffffffffffffffffffffff021916908373ffffffffffffffffffffffffffffffffffffffff1602179055506001600060110160008673ffffffffffffffffffffffffffffffffffffffff1673ffffffffffffffffffffffffffffffffffffffff16815260200190815260200160002060006101000a81548160ff021916908360ff1602179055506002600060110160008573ffffffffffffffffffffffffffffffffffffffff1673ffffffffffffffffffffffffffffffffffffffff16815260200190815260200160002060006101000a81548160ff021916908360ff16021790555084600060040160006101000a81548173ffffffffffffffffffffffffffffffffffffffff021916908373ffffffffffffffffffffffffffffffffffffffff160217905550816000800181905550436000600101819055505050505050610f08806102766000396000f3006060604052600436106100c5576000357c0100000000000000000000000000000000000000000000000000000000900463ffffffff16806311da60b4146100ca578063202ac3bc146100df57806327d120fe1461018c57806353af5d101461021f578063597e1fb5146102745780635e1fc56e1461029d5780635f88eade146103305780636d2381b31461035957806373d4a13a146103ef5780637ebdc478146104975780639d76ea58146104c0578063b32c65c814610515578063b6b55f25146105a3575b600080fd5b34156100d557600080fd5b6100dd6105de565b005b34156100ea57600080fd5b61018a600480803590602001908201803590602001908080601f0160208091040260200160405190810160405280939291908181526020018383808284378201915050505050509190803590602001908201803590602001908080601f0160208091040260200160405190810160405280939291908181526020018383808284378201915050505050509190803560001916906020019091905050610689565b005b341561019757600080fd5b61021d600480803567ffffffffffffffff16906020019091908035906020019091908035600019169060200190919080356000191690602001909190803590602001908201803590602001908080601f01602080910402602001604051908101604052809392919081815260200183838082843782019150505050505091905050610868565b005b341561022a57600080fd5b610232610a00565b604051808273ffffffffffffffffffffffffffffffffffffffff1673ffffffffffffffffffffffffffffffffffffffff16815260200191505060405180910390f35b341561027f57600080fd5b610287610a2c565b6040518082815260200191505060405180910390f35b34156102a857600080fd5b61032e600480803567ffffffffffffffff16906020019091908035906020019091908035600019169060200190919080356000191690602001909190803590602001908201803590602001908080601f01602080910402602001604051908101604052809392919081815260200183838082843782019150505050505091905050610a38565b005b341561033b57600080fd5b610343610bd0565b6040518082815260200191505060405180910390f35b341561036457600080fd5b61036c610bdc565b604051808573ffffffffffffffffffffffffffffffffffffffff1673ffffffffffffffffffffffffffffffffffffffff1681526020018481526020018373ffffffffffffffffffffffffffffffffffffffff1673ffffffffffffffffffffffffffffffffffffffff16815260200182815260200194505050505060405180910390f35b34156103fa57600080fd5b610402610c7b565b604051808781526020018681526020018581526020018473ffffffffffffffffffffffffffffffffffffffff1673ffffffffffffffffffffffffffffffffffffffff1681526020018373ffffffffffffffffffffffffffffffffffffffff1673ffffffffffffffffffffffffffffffffffffffff16815260200182151515158152602001965050505050505060405180910390f35b34156104a257600080fd5b6104aa610cf2565b6040518082815260200191505060405180910390f35b34156104cb57600080fd5b6104d3610cfe565b604051808273ffffffffffffffffffffffffffffffffffffffff1673ffffffffffffffffffffffffffffffffffffffff16815260200191505060405180910390f35b341561052057600080fd5b610528610d2a565b6040518080602001828103825283818151815260200191508051906020019080838360005b8381101561056857808201518184015260208101905061054d565b50505050905090810190601f1680156105955780820380516001836020036101000a031916815260200191505b509250505060405180910390f35b34156105ae57600080fd5b6105c46004808035906020019091905050610d63565b604051808215151515815260200191505060405180910390f35b600073__NettingChannelLibrary_________________63de394e0d90916040518263ffffffff167c01000000000000000000000000000000000000000000000000000000000281526004018082815260200191505060006040518083038186803b151561064b57600080fd5b5af4151561065857600080fd5b5050507f6713dea2491bc95585ea9be0d6993fc7790fdcd04f495a7e7592fbd80bbe00de60405160405180910390a1565b600073__NettingChannelLibrary_________________63c252246290918585856040518563ffffffff167c01000000000000000000000000000000000000000000000000000000000281526004018085815260200180602001806020018460001916600019168152602001838103835286818151815260200191508051906020019080838360005b8381101561072d578082015181840152602081019050610712565b50505050905090810190601f16801561075a5780820380516001836020036101000a031916815260200191505b50838103825285818151815260200191508051906020019080838360005b83811015610793578082015181840152602081019050610778565b50505050905090810190601f1680156107c05780820380516001836020036101000a031916815260200191505b50965050505050505060006040518083038186803b15156107e057600080fd5b5af415156107ed57600080fd5b5050507fa2e2842eefea7e32abccccd9d3fae92608319362c3905ef73de44938c059253681336040518083600019166000191681526020018273ffffffffffffffffffffffffffffffffffffffff1673ffffffffffffffffffffffffffffffffffffffff1681526020019250505060405180910390a1505050565b600073__NettingChannelLibrary_________________63f565eb36909187878787876040518763ffffffff167c0100000000000000000000000000000000000000000000000000000000028152600401808781526020018667ffffffffffffffff1667ffffffffffffffff1681526020018581526020018460001916600019168152602001836000191660001916815260200180602001828103825283818151815260200191508051906020019080838360005b8381101561093857808201518184015260208101905061091d565b50505050905090810190601f1680156109655780820380516001836020036101000a031916815260200191505b5097505050505050505060006040518083038186803b151561098657600080fd5b5af4151561099357600080fd5b5050507fa0379b1bd0864245b4ff39bf6a023065e80d0e9276d2671d94b9f653b4bbcdfe33604051808273ffffffffffffffffffffffffffffffffffffffff1673ffffffffffffffffffffffffffffffffffffffff16815260200191505060405180910390a15050505050565b60008060030160009054906101000a900473ffffffffffffffffffffffffffffffffffffffff16905090565b60008060020154905090565b600073__NettingChannelLibrary_________________63c800b002909187878787876040518763ffffffff167c0100000000000000000000000000000000000000000000000000000000028152600401808781526020018667ffffffffffffffff1667ffffffffffffffff1681526020018581526020018460001916600019168152602001836000191660001916815260200180602001828103825283818151815260200191508051906020019080838360005b83811015610b08578082015181840152602081019050610aed565b50505050905090810190601f168015610b355780820380516001836020036101000a031916815260200191505b5097505050505050505060006040518083038186803b1515610b5657600080fd5b5af41515610b6357600080fd5b5050507f93daadf23cc2150b386a6c3b39f6e61b9c555fc1cec423e4c93ac9d36b008fef33604051808273ffffffffffffffffffffffffffffffffffffffff1673ffffffffffffffffffffffffffffffffffffffff16815260200191505060405180910390a15050505050565b60008060010154905090565b60008060008060008060006005016000600281101515610bf857fe5b60060201915060006005016001600281101515610c1157fe5b6006020190508160000160009054906101000a900473ffffffffffffffffffffffffffffffffffffffff169550816001015494508060000160009054906101000a900473ffffffffffffffffffffffffffffffffffffffff16935080600101549250505090919293565b60008060000154908060010154908060020154908060030160009054906101000a900473ffffffffffffffffffffffffffffffffffffffff16908060040160009054906101000a900473ffffffffffffffffffffffffffffffffffffffff16908060120160009054906101000a900460ff16905086565b60008060000154905090565b60008060040160009054906101000a900473ffffffffffffffffffffffffffffffffffffffff16905090565b6040805190810160405280600581526020017f302e322e5f00000000000000000000000000000000000000000000000000000081525081565b60008060008073__NettingChannelLibrary_________________633268a05a9091866040518363ffffffff167c01000000000000000000000000000000000000000000000000000000000281526004018083815260200182815260200192505050604080518083038186803b1515610ddb57600080fd5b5af41515610de857600080fd5b505050604051805190602001805190508092508193505050600115158215151415610ed2577f9cb02993ef7311b37acc6bdfc1a8397160be258a877d78b31f4e366caf7bfcef600060040160009054906101000a900473ffffffffffffffffffffffffffffffffffffffff163383604051808473ffffffffffffffffffffffffffffffffffffffff1673ffffffffffffffffffffffffffffffffffffffff1681526020018373ffffffffffffffffffffffffffffffffffffffff1673ffffffffffffffffffffffffffffffffffffffff168152602001828152602001935050505060405180910390a15b81925050509190505600a165627a7a723058208eaf180132ef3732303c875b8602ba628715b01b29363675146934e67a0aea2a0029",
  "source": "pragma solidity ^0.4.11;\n\nimport \"./NettingChannelLibrary.sol\";\n\ncontract NettingChannelContract {\n    string constant public contract_version = \"0.2._\";\n\n    using NettingChannelLibrary for NettingChannelLibrary.Data;\n    NettingChannelLibrary.Data public data;\n\n    event ChannelNewBalance(address token_address, address participant, uint balance);\n    event ChannelClosed(address closing_address);\n    event TransferUpdated(address node_address);\n    event ChannelSettled();\n    event ChannelSecretRevealed(bytes32 secret, address receiver_address);\n\n    modifier settleTimeoutValid(uint t) {\n        require(t >= 6 && t <= 2700000);\n        _;\n    }\n\n    function NettingChannelContract(\n        address token_address,\n        address participant1,\n        address participant2,\n        uint timeout\n    )\n        public\n        settleTimeoutValid(timeout)\n    {\n        require(participant1 != participant2);\n\n        data.participants[0].node_address = participant1;\n        data.participants[1].node_address = participant2;\n        data.participant_index[participant1] = 1;\n        data.participant_index[participant2] = 2;\n\n        data.token = Token(token_address);\n        data.settle_timeout = timeout;\n        data.opened = block.number;\n    }\n\n    /// @notice Caller makes a deposit into their channel balance.\n    /// @param amount The amount caller wants to deposit.\n    /// @return True if deposit is successful.\n    function deposit(uint256 amount)\n        public\n        returns (bool)\n    {\n        bool success;\n        uint256 balance;\n\n        (success, balance) = data.deposit(amount);\n\n        if (success == true) {\n            ChannelNewBalance(data.token, msg.sender, balance);\n        }\n\n        return success;\n    }\n\n    /// @notice Get the address and balance of both partners in a channel.\n    /// @return The address and balance pairs.\n    function addressAndBalance()\n        public\n        constant\n        returns (address participant1, uint balance1, address participant2, uint balance2)\n    {\n        NettingChannelLibrary.Participant storage node1 = data.participants[0];\n        NettingChannelLibrary.Participant storage node2 = data.participants[1];\n\n        participant1 = node1.node_address;\n        balance1 = node1.balance;\n        participant2 = node2.node_address;\n        balance2 = node2.balance;\n    }\n\n    /// @notice Close the channel. Can only be called by a participant in the channel.\n    function close(\n        uint64 nonce,\n        uint256 transferred_amount,\n        bytes32 locksroot,\n        bytes32 extra_hash,\n        bytes signature\n    )\n        public\n    {\n        data.close(\n            nonce,\n            transferred_amount,\n            locksroot,\n            extra_hash,\n            signature\n        );\n        ChannelClosed(msg.sender);\n    }\n\n    /// @notice Dispute the state after closing, called by the counterparty (the\n    ///         participant who did not close the channel).\n    function updateTransfer(\n        uint64 nonce,\n        uint256 transferred_amount,\n        bytes32 locksroot,\n        bytes32 extra_hash,\n        bytes signature\n    )\n        public\n    {\n        data.updateTransfer(\n            nonce,\n            transferred_amount,\n            locksroot,\n            extra_hash,\n            signature\n        );\n        TransferUpdated(msg.sender);\n    }\n\n    /// @notice Unlock a locked transfer.\n    /// @param locked_encoded The locked transfer to be unlocked.\n    /// @param merkle_proof The merke_proof for the locked transfer.\n    /// @param secret The secret to unlock the locked transfer.\n    function withdraw(bytes locked_encoded, bytes merkle_proof, bytes32 secret) public {\n        // throws if sender is not a participant\n        data.withdraw(locked_encoded, merkle_proof, secret);\n        ChannelSecretRevealed(secret, msg.sender);\n    }\n\n    /// @notice Settle the transfers and balances of the channel and pay out to\n    ///         each participant. Can only be called after the channel is closed\n    ///         and only after the number of blocks in the settlement timeout\n    ///         have passed.\n    function settle() public {\n        data.settle();\n        ChannelSettled();\n    }\n\n    /// @notice Returns the number of blocks until the settlement timeout.\n    /// @return The number of blocks until the settlement timeout.\n    function settleTimeout() public constant returns (uint) {\n        return data.settle_timeout;\n    }\n\n    /// @notice Returns the address of the token.\n    /// @return The address of the token.\n    function tokenAddress() public constant returns (address) {\n        return data.token;\n    }\n\n    /// @notice Returns the block number for when the channel was opened.\n    /// @return The block number for when the channel was opened.\n    function opened() public constant returns (uint) {\n        return data.opened;\n    }\n\n    /// @notice Returns the block number for when the channel was closed.\n    /// @return The block number for when the channel was closed.\n    function closed() public constant returns (uint) {\n        return data.closed;\n    }\n\n    /// @notice Returns the address of the closing participant.\n    /// @return The address of the closing participant.\n    function closingAddress() public constant returns (address) {\n        return data.closing_address;\n    }\n\n    function () payable public { revert(); }\n\n    // function() payable {}\n}\n",
  "sourcePath": "/Users/amitshah/Documents/nodejs/javascript/blockchain-service/smart-contracts/contracts/NettingChannelContract.sol",
  "compiler": {
    "name": "solc",
    "version": "0.4.21+commit.dfe3193c.Emscripten.clang"
  },
  "schemaVersion": "2.0.0",
  "updatedAt": "2018-04-15T18:42:14.061Z"
}