{
  "contractName": "NettingChannelContract",
  "abi": [
    {
      "constant": true,
      "inputs": [],
      "name": "data",
      "outputs": [
        {
          "name": "settle_timeout",
          "type": "uint256"
        },
        {
          "name": "opened",
          "type": "uint256"
        },
        {
          "name": "closed",
          "type": "uint256"
        },
        {
          "name": "closing_address",
          "type": "address"
        },
        {
          "name": "token",
          "type": "address"
        },
        {
          "name": "updated",
          "type": "bool"
        }
      ],
      "payable": false,
      "stateMutability": "view",
      "type": "function"
    },
    {
      "constant": true,
      "inputs": [],
      "name": "contract_version",
      "outputs": [
        {
          "name": "",
          "type": "string"
        }
      ],
      "payable": false,
      "stateMutability": "view",
      "type": "function"
    },
    {
      "inputs": [
        {
          "name": "token_address",
          "type": "address"
        },
        {
          "name": "participant1",
          "type": "address"
        },
        {
          "name": "participant2",
          "type": "address"
        },
        {
          "name": "timeout",
          "type": "uint256"
        }
      ],
      "payable": false,
      "stateMutability": "nonpayable",
      "type": "constructor"
    },
    {
      "payable": true,
      "stateMutability": "payable",
      "type": "fallback"
    },
    {
      "anonymous": false,
      "inputs": [
        {
          "indexed": false,
          "name": "token_address",
          "type": "address"
        },
        {
          "indexed": false,
          "name": "participant",
          "type": "address"
        },
        {
          "indexed": false,
          "name": "balance",
          "type": "uint256"
        }
      ],
      "name": "ChannelNewBalance",
      "type": "event"
    },
    {
      "anonymous": false,
      "inputs": [
        {
          "indexed": false,
          "name": "closing_address",
          "type": "address"
        }
      ],
      "name": "ChannelClosed",
      "type": "event"
    },
    {
      "anonymous": false,
      "inputs": [
        {
          "indexed": false,
          "name": "node_address",
          "type": "address"
        }
      ],
      "name": "TransferUpdated",
      "type": "event"
    },
    {
      "anonymous": false,
      "inputs": [],
      "name": "ChannelSettled",
      "type": "event"
    },
    {
      "anonymous": false,
      "inputs": [
        {
          "indexed": false,
          "name": "secret",
          "type": "bytes32"
        },
        {
          "indexed": false,
          "name": "receiver_address",
          "type": "address"
        }
      ],
      "name": "ChannelSecretRevealed",
      "type": "event"
    },
    {
      "constant": false,
      "inputs": [
        {
          "name": "amount",
          "type": "uint256"
        }
      ],
      "name": "deposit",
      "outputs": [
        {
          "name": "",
          "type": "bool"
        }
      ],
      "payable": false,
      "stateMutability": "nonpayable",
      "type": "function"
    },
    {
      "constant": true,
      "inputs": [],
      "name": "addressAndBalance",
      "outputs": [
        {
          "name": "participant1",
          "type": "address"
        },
        {
          "name": "balance1",
          "type": "uint256"
        },
        {
          "name": "participant2",
          "type": "address"
        },
        {
          "name": "balance2",
          "type": "uint256"
        }
      ],
      "payable": false,
      "stateMutability": "view",
      "type": "function"
    },
    {
      "constant": false,
      "inputs": [
        {
          "name": "nonce",
          "type": "uint256"
        },
        {
          "name": "transferred_amount",
          "type": "uint256"
        },
        {
          "name": "locksroot",
          "type": "bytes32"
        },
        {
          "name": "extra_hash",
          "type": "bytes32"
        },
        {
          "name": "signature",
          "type": "bytes"
        }
      ],
      "name": "close",
      "outputs": [],
      "payable": false,
      "stateMutability": "nonpayable",
      "type": "function"
    },
    {
      "constant": false,
      "inputs": [
        {
          "name": "nonce",
          "type": "uint256"
        },
        {
          "name": "transferred_amount",
          "type": "uint256"
        },
        {
          "name": "locksroot",
          "type": "bytes32"
        },
        {
          "name": "extra_hash",
          "type": "bytes32"
        },
        {
          "name": "signature",
          "type": "bytes"
        }
      ],
      "name": "updateTransfer",
      "outputs": [],
      "payable": false,
      "stateMutability": "nonpayable",
      "type": "function"
    },
    {
      "constant": false,
      "inputs": [
        {
          "name": "locked_encoded",
          "type": "bytes"
        },
        {
          "name": "merkle_proof",
          "type": "bytes"
        },
        {
          "name": "secret",
          "type": "bytes32"
        }
      ],
      "name": "withdraw",
      "outputs": [],
      "payable": false,
      "stateMutability": "nonpayable",
      "type": "function"
    },
    {
      "constant": false,
      "inputs": [],
      "name": "settle",
      "outputs": [],
      "payable": false,
      "stateMutability": "nonpayable",
      "type": "function"
    },
    {
      "constant": true,
      "inputs": [],
      "name": "settleTimeout",
      "outputs": [
        {
          "name": "",
          "type": "uint256"
        }
      ],
      "payable": false,
      "stateMutability": "view",
      "type": "function"
    },
    {
      "constant": true,
      "inputs": [],
      "name": "tokenAddress",
      "outputs": [
        {
          "name": "",
          "type": "address"
        }
      ],
      "payable": false,
      "stateMutability": "view",
      "type": "function"
    },
    {
      "constant": true,
      "inputs": [],
      "name": "opened",
      "outputs": [
        {
          "name": "",
          "type": "uint256"
        }
      ],
      "payable": false,
      "stateMutability": "view",
      "type": "function"
    },
    {
      "constant": true,
      "inputs": [],
      "name": "closed",
      "outputs": [
        {
          "name": "",
          "type": "uint256"
        }
      ],
      "payable": false,
      "stateMutability": "view",
      "type": "function"
    },
    {
      "constant": true,
      "inputs": [],
      "name": "closingAddress",
      "outputs": [
        {
          "name": "",
          "type": "address"
        }
      ],
      "payable": false,
      "stateMutability": "view",
      "type": "function"
    },
    {
      "constant": true,
      "inputs": [],
      "name": "participantData",
      "outputs": [
        {
          "name": "",
          "type": "address"
        },
        {
          "name": "",
          "type": "uint256"
        },
        {
          "name": "",
          "type": "bytes32"
        }
      ],
      "payable": false,
      "stateMutability": "view",
      "type": "function"
    },
    {
      "constant": true,
      "inputs": [
        {
          "name": "lock",
          "type": "bytes"
        }
      ],
      "name": "decodeLock",
      "outputs": [
        {
          "name": "",
          "type": "uint256"
        },
        {
          "name": "",
          "type": "uint256"
        },
        {
          "name": "",
          "type": "bytes32"
        }
      ],
      "payable": false,
      "stateMutability": "view",
      "type": "function"
    },
    {
      "constant": true,
      "inputs": [
        {
          "name": "lock",
          "type": "bytes"
        },
        {
          "name": "merkle_proof",
          "type": "bytes"
        }
      ],
      "name": "computeMerkleRoot",
      "outputs": [
        {
          "name": "",
          "type": "bytes32"
        }
      ],
      "payable": false,
      "stateMutability": "pure",
      "type": "function"
    },
    {
      "constant": true,
      "inputs": [
        {
          "name": "lock",
          "type": "bytes"
        }
      ],
      "name": "computeLockHash",
      "outputs": [
        {
          "name": "",
          "type": "bytes32"
        }
      ],
      "payable": false,
      "stateMutability": "pure",
      "type": "function"
    }
  ],
  "bytecode": "0x6060604052341561000f57600080fd5b60405160808061160a83398101604052808051906020019091908051906020019091908051906020019091908051906020019091905050806006811015801561005b5750622932e08111155b151561006657600080fd5b8273ffffffffffffffffffffffffffffffffffffffff168473ffffffffffffffffffffffffffffffffffffffff16141515156100a157600080fd5b83600060050160006002811015156100b557fe5b6006020160000160006101000a81548173ffffffffffffffffffffffffffffffffffffffff021916908373ffffffffffffffffffffffffffffffffffffffff160217905550826000600501600160028110151561010e57fe5b6006020160000160006101000a81548173ffffffffffffffffffffffffffffffffffffffff021916908373ffffffffffffffffffffffffffffffffffffffff1602179055506001600060110160008673ffffffffffffffffffffffffffffffffffffffff1673ffffffffffffffffffffffffffffffffffffffff16815260200190815260200160002060006101000a81548160ff021916908360ff1602179055506002600060110160008573ffffffffffffffffffffffffffffffffffffffff1673ffffffffffffffffffffffffffffffffffffffff16815260200190815260200160002060006101000a81548160ff021916908360ff16021790555084600060040160006101000a81548173ffffffffffffffffffffffffffffffffffffffff021916908373ffffffffffffffffffffffffffffffffffffffff160217905550816000800181905550436000600101819055505050505050611394806102766000396000f3006060604052600436106100f1576000357c0100000000000000000000000000000000000000000000000000000000900463ffffffff16806311da60b4146100f6578063202ac3bc1461010b5780632cc78569146101b8578063378c4c1c146102315780635387704f146102ed57806353af5d1014610376578063597e1fb5146103cb5780635f88eade146103f45780636d2381b31461041d57806373d4a13a146104b35780637ebdc4781461055b5780639d76ea58146105845780639f9ea29d146105d9578063b32c65c814610660578063b6b55f25146106ee578063c70fa79414610729578063da25127914610794575b600080fd5b341561010157600080fd5b61010961081d565b005b341561011657600080fd5b6101b6600480803590602001908201803590602001908080601f0160208091040260200160405190810160405280939291908181526020018383808284378201915050505050509190803590602001908201803590602001908080601f01602080910402602001604051908101604052809392919081815260200183838082843782019150505050505091908035600019169060200190919050506108c8565b005b34156101c357600080fd5b610213600480803590602001908201803590602001908080601f01602080910402602001604051908101604052809392919081815260200183838082843782019150505050505091905050610aa7565b60405180826000191660001916815260200191505060405180910390f35b341561023c57600080fd5b6102cf600480803590602001908201803590602001908080601f0160208091040260200160405190810160405280939291908181526020018383808284378201915050505050509190803590602001908201803590602001908080601f01602080910402602001604051908101604052809392919081815260200183838082843782019150505050505091905050610b13565b60405180826000191660001916815260200191505060405180910390f35b34156102f857600080fd5b6103746004808035906020019091908035906020019091908035600019169060200190919080356000191690602001909190803590602001908201803590602001908080601f01602080910402602001604051908101604052809392919081815260200183838082843782019150505050505091905050610c3c565b005b341561038157600080fd5b610389610dc0565b604051808273ffffffffffffffffffffffffffffffffffffffff1673ffffffffffffffffffffffffffffffffffffffff16815260200191505060405180910390f35b34156103d657600080fd5b6103de610dec565b6040518082815260200191505060405180910390f35b34156103ff57600080fd5b610407610df8565b6040518082815260200191505060405180910390f35b341561042857600080fd5b610430610e04565b604051808573ffffffffffffffffffffffffffffffffffffffff1673ffffffffffffffffffffffffffffffffffffffff1681526020018481526020018373ffffffffffffffffffffffffffffffffffffffff1673ffffffffffffffffffffffffffffffffffffffff16815260200182815260200194505050505060405180910390f35b34156104be57600080fd5b6104c6610ea3565b604051808781526020018681526020018581526020018473ffffffffffffffffffffffffffffffffffffffff1673ffffffffffffffffffffffffffffffffffffffff1681526020018373ffffffffffffffffffffffffffffffffffffffff1673ffffffffffffffffffffffffffffffffffffffff16815260200182151515158152602001965050505050505060405180910390f35b341561056657600080fd5b61056e610f1a565b6040518082815260200191505060405180910390f35b341561058f57600080fd5b610597610f26565b604051808273ffffffffffffffffffffffffffffffffffffffff1673ffffffffffffffffffffffffffffffffffffffff16815260200191505060405180910390f35b34156105e457600080fd5b610634600480803590602001908201803590602001908080601f01602080910402602001604051908101604052809392919081815260200183838082843782019150505050505091905050610f52565b604051808481526020018381526020018260001916600019168152602001935050505060405180910390f35b341561066b57600080fd5b610673610f93565b6040518080602001828103825283818151815260200191508051906020019080838360005b838110156106b3578082015181840152602081019050610698565b50505050905090810190601f1680156106e05780820380516001836020036101000a031916815260200191505b509250505060405180910390f35b34156106f957600080fd5b61070f6004808035906020019091905050610fcc565b604051808215151515815260200191505060405180910390f35b341561073457600080fd5b61073c611145565b604051808473ffffffffffffffffffffffffffffffffffffffff1673ffffffffffffffffffffffffffffffffffffffff1681526020018381526020018260001916600019168152602001935050505060405180910390f35b341561079f57600080fd5b61081b6004808035906020019091908035906020019091908035600019169060200190919080356000191690602001909190803590602001908201803590602001908080601f016020809104026020016040519081016040528093929190818152602001838380828437820191505050505050919050506111e4565b005b600073__NettingChannelLibrary_________________63de394e0d90916040518263ffffffff167c01000000000000000000000000000000000000000000000000000000000281526004018082815260200191505060006040518083038186803b151561088a57600080fd5b5af4151561089757600080fd5b5050507f6713dea2491bc95585ea9be0d6993fc7790fdcd04f495a7e7592fbd80bbe00de60405160405180910390a1565b600073__NettingChannelLibrary_________________6325912f8a90918585856040518563ffffffff167c01000000000000000000000000000000000000000000000000000000000281526004018085815260200180602001806020018460001916600019168152602001838103835286818151815260200191508051906020019080838360005b8381101561096c578082015181840152602081019050610951565b50505050905090810190601f1680156109995780820380516001836020036101000a031916815260200191505b50838103825285818151815260200191508051906020019080838360005b838110156109d25780820151818401526020810190506109b7565b50505050905090810190601f1680156109ff5780820380516001836020036101000a031916815260200191505b50965050505050505060006040518083038186803b1515610a1f57600080fd5b5af41515610a2c57600080fd5b5050507fa2e2842eefea7e32abccccd9d3fae92608319362c3905ef73de44938c059253681336040518083600019166000191681526020018273ffffffffffffffffffffffffffffffffffffffff1673ffffffffffffffffffffffffffffffffffffffff1681526020019250505060405180910390a1505050565b6000816040518082805190602001908083835b602083101515610adf5780518252602082019150602081019050602083039250610aba565b6001836020036101000a03801982511681845116808217855250505050505090500191505060405180910390209050919050565b600080600080600060208651811515610b2857fe5b06141515610b3557600080fd5b856040518082805190602001908083835b602083101515610b6b5780518252602082019150602081019050602083039250610b46565b6001836020036101000a03801982511681845116808217855250505050505090500191505060405180910390209150602092505b845183111515610c3057828501519050806000191682600019161015610bf457818160405180836000191660001916815260200182600019166000191681526020019250505060405180910390209150610c25565b8082604051808360001916600019168152602001826000191660001916815260200192505050604051809103902091505b602083019250610b9f565b81935050505092915050565b600073__NettingChannelLibrary_________________636f857275909187878787876040518763ffffffff167c0100000000000000000000000000000000000000000000000000000000028152600401808781526020018681526020018581526020018460001916600019168152602001836000191660001916815260200180602001828103825283818151815260200191508051906020019080838360005b83811015610cf8578082015181840152602081019050610cdd565b50505050905090810190601f168015610d255780820380516001836020036101000a031916815260200191505b5097505050505050505060006040518083038186803b1515610d4657600080fd5b5af41515610d5357600080fd5b5050507f93daadf23cc2150b386a6c3b39f6e61b9c555fc1cec423e4c93ac9d36b008fef33604051808273ffffffffffffffffffffffffffffffffffffffff1673ffffffffffffffffffffffffffffffffffffffff16815260200191505060405180910390a15050505050565b60008060030160009054906101000a900473ffffffffffffffffffffffffffffffffffffffff16905090565b60008060020154905090565b60008060010154905090565b60008060008060008060006005016000600281101515610e2057fe5b60060201915060006005016001600281101515610e3957fe5b6006020190508160000160009054906101000a900473ffffffffffffffffffffffffffffffffffffffff169550816001015494508060000160009054906101000a900473ffffffffffffffffffffffffffffffffffffffff16935080600101549250505090919293565b60008060000154908060010154908060020154908060030160009054906101000a900473ffffffffffffffffffffffffffffffffffffffff16908060040160009054906101000a900473ffffffffffffffffffffffffffffffffffffffff16908060120160009054906101000a900460ff16905086565b60008060000154905090565b60008060040160009054906101000a900473ffffffffffffffffffffffffffffffffffffffff16905090565b60008060008060008060608751141515610f6b57600080fd5b6020870151925060408701519150606087015190508282829550955095505050509193909250565b6040805190810160405280600581526020017f302e322e5f00000000000000000000000000000000000000000000000000000081525081565b60008060008073__NettingChannelLibrary_________________633268a05a9091866040518363ffffffff167c01000000000000000000000000000000000000000000000000000000000281526004018083815260200182815260200192505050604080518083038186803b151561104457600080fd5b5af4151561105157600080fd5b50505060405180519060200180519050809250819350505060011515821515141561113b577f9cb02993ef7311b37acc6bdfc1a8397160be258a877d78b31f4e366caf7bfcef600060040160009054906101000a900473ffffffffffffffffffffffffffffffffffffffff163383604051808473ffffffffffffffffffffffffffffffffffffffff1673ffffffffffffffffffffffffffffffffffffffff1681526020018373ffffffffffffffffffffffffffffffffffffffff1673ffffffffffffffffffffffffffffffffffffffff168152602001828152602001935050505060405180910390a15b8192505050919050565b60008060008073__NettingChannelLibrary_________________63f246b5f890916040518263ffffffff167c01000000000000000000000000000000000000000000000000000000000281526004018082815260200191505060606040518083038186803b15156111b657600080fd5b5af415156111c357600080fd5b50505060405180519060200180519060200180519050925092509250909192565b600073__NettingChannelLibrary_________________6351062823909187878787876040518763ffffffff167c0100000000000000000000000000000000000000000000000000000000028152600401808781526020018681526020018581526020018460001916600019168152602001836000191660001916815260200180602001828103825283818151815260200191508051906020019080838360005b838110156112a0578082015181840152602081019050611285565b50505050905090810190601f1680156112cd5780820380516001836020036101000a031916815260200191505b5097505050505050505060006040518083038186803b15156112ee57600080fd5b5af415156112fb57600080fd5b5050507fa0379b1bd0864245b4ff39bf6a023065e80d0e9276d2671d94b9f653b4bbcdfe33604051808273ffffffffffffffffffffffffffffffffffffffff1673ffffffffffffffffffffffffffffffffffffffff16815260200191505060405180910390a150505050505600a165627a7a7230582029697792cde4f377b14a5ed2727236cff8892a3434f224e636a91564109c8fb60029",
  "source": "pragma solidity ^0.4.11;\n\nimport \"./NettingChannelLibrary.sol\";\n\ncontract NettingChannelContract {\n    string constant public contract_version = \"0.2._\";\n\n    using NettingChannelLibrary for NettingChannelLibrary.Data;\n    NettingChannelLibrary.Data public data;\n\n    event ChannelNewBalance(address token_address, address participant, uint balance);\n    event ChannelClosed(address closing_address);\n    event TransferUpdated(address node_address);\n    event ChannelSettled();\n    event ChannelSecretRevealed(bytes32 secret, address receiver_address);\n\n    modifier settleTimeoutValid(uint t) {\n        require(t >= 6 && t <= 2700000);\n        _;\n    }\n\n    function NettingChannelContract(\n        address token_address,\n        address participant1,\n        address participant2,\n        uint timeout\n    )\n        public\n        settleTimeoutValid(timeout)\n    {\n        require(participant1 != participant2);\n\n        data.participants[0].node_address = participant1;\n        data.participants[1].node_address = participant2;\n        data.participant_index[participant1] = 1;\n        data.participant_index[participant2] = 2;\n\n        data.token = Token(token_address);\n        data.settle_timeout = timeout;\n        data.opened = block.number;\n    }\n\n    /// @notice Caller makes a deposit into their channel balance.\n    /// @param amount The amount caller wants to deposit.\n    /// @return True if deposit is successful.\n    function deposit(uint256 amount)\n        public\n        returns (bool)\n    {\n        bool success;\n        uint256 balance;\n\n        (success, balance) = data.deposit(amount);\n\n        if (success == true) {\n            ChannelNewBalance(data.token, msg.sender, balance);\n        }\n\n        return success;\n    }\n\n    /// @notice Get the address and balance of both partners in a channel.\n    /// @return The address and balance pairs.\n    function addressAndBalance()\n        public\n        constant\n        returns (address participant1, uint balance1, address participant2, uint balance2)\n    {\n        NettingChannelLibrary.Participant storage node1 = data.participants[0];\n        NettingChannelLibrary.Participant storage node2 = data.participants[1];\n\n        participant1 = node1.node_address;\n        balance1 = node1.balance;\n        participant2 = node2.node_address;\n        balance2 = node2.balance;\n    }\n\n    /// @notice Close the channel. Can only be called by a participant in the channel.\n    function close(\n        uint256 nonce,\n        uint256 transferred_amount,\n        bytes32 locksroot,\n        bytes32 extra_hash,\n        bytes signature\n    )\n        public\n    {\n        data.close(\n            nonce,\n            transferred_amount,\n            locksroot,\n            extra_hash,\n            signature\n        );\n        ChannelClosed(msg.sender);\n    }\n\n    /// @notice Dispute the state after closing, called by the counterparty (the\n    ///         participant who did not close the channel).\n    function updateTransfer(\n        uint256 nonce,\n        uint256 transferred_amount,\n        bytes32 locksroot,\n        bytes32 extra_hash,\n        bytes signature\n    )\n        public\n    {\n        data.updateTransfer(\n            nonce,\n            transferred_amount,\n            locksroot,\n            extra_hash,\n            signature\n        );\n        TransferUpdated(msg.sender);\n    }\n\n    /// @notice Unlock a locked transfer.\n    /// @param locked_encoded The locked transfer to be unlocked.\n    /// @param merkle_proof The merke_proof for the locked transfer.\n    /// @param secret The secret to unlock the locked transfer.\n    function withdraw(bytes locked_encoded, bytes merkle_proof, bytes32 secret) public {\n        // throws if sender is not a participant\n        data.withdrawTest(locked_encoded, merkle_proof, secret);\n        ChannelSecretRevealed(secret, msg.sender);\n    }\n\n    /// @notice Settle the transfers and balances of the channel and pay out to\n    ///         each participant. Can only be called after the channel is closed\n    ///         and only after the number of blocks in the settlement timeout\n    ///         have passed.\n    function settle() public {\n        data.settle();\n        ChannelSettled();\n    }\n\n    /// @notice Returns the number of blocks until the settlement timeout.\n    /// @return The number of blocks until the settlement timeout.\n    function settleTimeout() public constant returns (uint) {\n        return data.settle_timeout;\n    }\n\n    /// @notice Returns the address of the token.\n    /// @return The address of the token.\n    function tokenAddress() public constant returns (address) {\n        return data.token;\n    }\n\n    /// @notice Returns the block number for when the channel was opened.\n    /// @return The block number for when the channel was opened.\n    function opened() public constant returns (uint) {\n        return data.opened;\n    }\n\n    /// @notice Returns the block number for when the channel was closed.\n    /// @return The block number for when the channel was closed.\n    function closed() public constant returns (uint) {\n        return data.closed;\n    }\n\n    /// @notice Returns the address of the closing participant.\n    /// @return The address of the closing participant.\n    function closingAddress() public constant returns (address) {\n        return data.closing_address;\n    }\n\n    function participantData() view public returns(address,uint256,bytes32){\n        return data.participantData();\n    }\n    \n    function decodeLock(bytes lock)  public constant returns(uint256  ,uint256, bytes32 ){\n        require(lock.length == 96);\n        uint256 amount;\n        uint256 expiration;\n        bytes32 hashlock;\n        // Lock format:\n        // [0:32] amount\n        // [32:64] expirtation\n        // [64:96] hashlock\n\n        assembly {\n            amount := mload(add(lock, 32))\n            expiration := mload(add(lock, 64))\n            hashlock := mload(add(lock, 96))\n        }\n        return (amount,expiration,hashlock);\n    }\n\n    function computeMerkleRoot(bytes lock, bytes merkle_proof) pure public returns(bytes32){\n        require(merkle_proof.length % 32 == 0);\n\n        uint i;\n        bytes32 h;\n        bytes32 el;\n\n        h = keccak256(lock);\n        for (i = 32; i <= merkle_proof.length; i += 32) {\n            assembly {\n                el := mload(add(merkle_proof, i))\n            }\n\n            if (h < el) {\n                h = keccak256(h, el);\n            } else {\n                h = keccak256(el, h);\n            }\n        }\n\n        return h;\n    }\n\n    function computeLockHash(bytes lock) pure public  returns(bytes32){\n        return keccak256(lock);\n    }\n\n    function () payable public { revert(); }\n\n\n\n    // function() payable {}\n}\n",
  "sourcePath": "/Users/amitshah/Documents/nodejs/javascript/blockchain-service/smart-contracts/contracts/NettingChannelContract.sol",
  "compiler": {
    "name": "solc",
    "version": "0.4.21+commit.dfe3193c.Emscripten.clang"
  },
  "schemaVersion": "2.0.0",
  "updatedAt": "2018-04-17T22:37:37.090Z"
}