{
  "contractName": "NettingChannelLibrary",
  "abi": [
    {
      "constant": true,
      "inputs": [],
      "name": "contract_version",
      "outputs": [
        {
          "name": "",
          "type": "string"
        }
      ],
      "payable": false,
      "stateMutability": "view",
      "type": "function"
    },
    {
      "anonymous": false,
      "inputs": [
        {
          "indexed": false,
          "name": "msg",
          "type": "string"
        }
      ],
      "name": "Info",
      "type": "event"
    },
    {
      "anonymous": false,
      "inputs": [
        {
          "indexed": false,
          "name": "addy",
          "type": "address"
        }
      ],
      "name": "InfoAddress",
      "type": "event"
    },
    {
      "anonymous": false,
      "inputs": [
        {
          "indexed": false,
          "name": "a",
          "type": "address"
        },
        {
          "indexed": false,
          "name": "locksRoot",
          "type": "bytes32"
        }
      ],
      "name": "UpdatedTranser",
      "type": "event"
    },
    {
      "anonymous": false,
      "inputs": [
        {
          "indexed": false,
          "name": "amount",
          "type": "uint256"
        },
        {
          "indexed": false,
          "name": "expiration",
          "type": "uint256"
        },
        {
          "indexed": false,
          "name": "hashlock",
          "type": "bytes32"
        }
      ],
      "name": "DecodeLock",
      "type": "event"
    },
    {
      "anonymous": false,
      "inputs": [
        {
          "indexed": false,
          "name": "hashlock",
          "type": "bytes32"
        },
        {
          "indexed": false,
          "name": "secret",
          "type": "bytes32"
        },
        {
          "indexed": false,
          "name": "processsed",
          "type": "bytes32"
        }
      ],
      "name": "HashLockSecret",
      "type": "event"
    },
    {
      "anonymous": false,
      "inputs": [
        {
          "indexed": false,
          "name": "expiration",
          "type": "uint256"
        },
        {
          "indexed": false,
          "name": "blockNumber",
          "type": "uint256"
        }
      ],
      "name": "ExpirationBlockNumber",
      "type": "event"
    },
    {
      "anonymous": false,
      "inputs": [
        {
          "indexed": false,
          "name": "locked_encoded",
          "type": "bytes"
        },
        {
          "indexed": false,
          "name": "merkle_proof",
          "type": "bytes"
        },
        {
          "indexed": false,
          "name": "h",
          "type": "bytes32"
        },
        {
          "indexed": false,
          "name": "locksroot",
          "type": "bytes32"
        }
      ],
      "name": "ComputeMerkleRoot",
      "type": "event"
    },
    {
      "constant": false,
      "inputs": [
        {
          "name": "self",
          "type": "NettingChannelLibrary.Data storage"
        },
        {
          "name": "amount",
          "type": "uint256"
        }
      ],
      "name": "deposit",
      "outputs": [
        {
          "name": "success",
          "type": "bool"
        },
        {
          "name": "balance",
          "type": "uint256"
        }
      ],
      "payable": false,
      "stateMutability": "nonpayable",
      "type": "function"
    },
    {
      "constant": false,
      "inputs": [
        {
          "name": "self",
          "type": "NettingChannelLibrary.Data storage"
        },
        {
          "name": "nonce",
          "type": "uint256"
        },
        {
          "name": "transferred_amount",
          "type": "uint256"
        },
        {
          "name": "locksroot",
          "type": "bytes32"
        },
        {
          "name": "extra_hash",
          "type": "bytes32"
        },
        {
          "name": "signature",
          "type": "bytes"
        }
      ],
      "name": "close",
      "outputs": [],
      "payable": false,
      "stateMutability": "nonpayable",
      "type": "function"
    },
    {
      "constant": false,
      "inputs": [
        {
          "name": "self",
          "type": "NettingChannelLibrary.Data storage"
        },
        {
          "name": "nonce",
          "type": "uint256"
        },
        {
          "name": "transferred_amount",
          "type": "uint256"
        },
        {
          "name": "locksroot",
          "type": "bytes32"
        },
        {
          "name": "extra_hash",
          "type": "bytes32"
        },
        {
          "name": "signature",
          "type": "bytes"
        }
      ],
      "name": "updateTransfer",
      "outputs": [],
      "payable": false,
      "stateMutability": "nonpayable",
      "type": "function"
    },
    {
      "constant": false,
      "inputs": [
        {
          "name": "self",
          "type": "NettingChannelLibrary.Data storage"
        },
        {
          "name": "locked_encoded",
          "type": "bytes"
        },
        {
          "name": "merkle_proof",
          "type": "bytes"
        },
        {
          "name": "secret",
          "type": "bytes32"
        }
      ],
      "name": "withdraw",
      "outputs": [],
      "payable": false,
      "stateMutability": "nonpayable",
      "type": "function"
    },
    {
      "constant": false,
      "inputs": [
        {
          "name": "self",
          "type": "NettingChannelLibrary.Data storage"
        },
        {
          "name": "locked_encoded",
          "type": "bytes"
        },
        {
          "name": "merkle_proof",
          "type": "bytes"
        },
        {
          "name": "secret",
          "type": "bytes32"
        }
      ],
      "name": "withdrawTest",
      "outputs": [],
      "payable": false,
      "stateMutability": "nonpayable",
      "type": "function"
    },
    {
      "constant": false,
      "inputs": [
        {
          "name": "self",
          "type": "NettingChannelLibrary.Data storage"
        }
      ],
      "name": "settle",
      "outputs": [],
      "payable": false,
      "stateMutability": "nonpayable",
      "type": "function"
    },
    {
      "constant": true,
      "inputs": [
        {
          "name": "lock",
          "type": "bytes"
        }
      ],
      "name": "decodeLock",
      "outputs": [
        {
          "name": "expiration",
          "type": "uint256"
        },
        {
          "name": "amount",
          "type": "uint256"
        },
        {
          "name": "hashlock",
          "type": "bytes32"
        }
      ],
      "payable": false,
      "stateMutability": "pure",
      "type": "function"
    },
    {
      "constant": true,
      "inputs": [
        {
          "name": "self",
          "type": "NettingChannelLibrary.Data storage"
        }
      ],
      "name": "participantData",
      "outputs": [
        {
          "name": "",
          "type": "address"
        },
        {
          "name": "",
          "type": "uint256"
        },
        {
          "name": "",
          "type": "bytes32"
        }
      ],
      "payable": false,
      "stateMutability": "view",
      "type": "function"
    },
    {
      "constant": true,
      "inputs": [
        {
          "name": "lock",
          "type": "bytes"
        },
        {
          "name": "merkle_proof",
          "type": "bytes"
        }
      ],
      "name": "computeMerkleRoot",
      "outputs": [
        {
          "name": "",
          "type": "bytes32"
        }
      ],
      "payable": false,
      "stateMutability": "pure",
      "type": "function"
    }
  ],
  "bytecode": "0x6117d9610030600b82828239805160001a6073146000811461002057610022565bfe5b5030600052607381538281f30073000000000000000000000000000000000000000030146060604052600436106100bb576000357c0100000000000000000000000000000000000000000000000000000000900463ffffffff16806325912f8a146100c05780633268a05a14610176578063378c4c1c146101c157806351062823146102725780636f857275146103045780639f9ea29d14610396578063b32c65c814610412578063c252246214610495578063de394e0d1461054b578063f246b5f81461056e575b600080fd5b81156100cb57600080fd5b610174600480803590602001909190803590602001908201803590602001908080601f0160208091040260200160405190810160405280939291908181526020018383808284378201915050505050509190803590602001908201803590602001908080601f01602080910402602001604051908101604052809392919081815260200183838082843782019150505050505091908035600019169060200190919050506105dc565b005b811561018157600080fd5b6101a060048080359060200190919080359060200190919050506108ea565b60405180831515151581526020018281526020019250505060405180910390f35b610254600480803590602001908201803590602001908080601f0160208091040260200160405190810160405280939291908181526020018383808284378201915050505050509190803590602001908201803590602001908080601f01602080910402602001604051908101604052809392919081815260200183838082843782019150505050505091905050610b74565b60405180826000191660001916815260200191505060405180910390f35b811561027d57600080fd5b6103026004808035906020019091908035906020019091908035906020019091908035600019169060200190919080356000191690602001909190803590602001908201803590602001908080601f01602080910402602001604051908101604052809392919081815260200183838082843782019150505050505091905050610c9d565b005b811561030f57600080fd5b6103946004808035906020019091908035906020019091908035906020019091908035600019169060200190919080356000191690602001909190803590602001908201803590602001908080601f01602080910402602001604051908101604052809392919081815260200183838082843782019150505050505091905050610ecd565b005b6103e6600480803590602001908201803590602001908080601f0160208091040260200160405190810160405280939291908181526020018383808284378201915050505050509190505061102e565b604051808481526020018381526020018260001916600019168152602001935050505060405180910390f35b61041a61105f565b6040518080602001828103825283818151815260200191508051906020019080838360005b8381101561045a57808201518184015260208101905061043f565b50505050905090810190601f1680156104875780820380516001836020036101000a031916815260200191505b509250505060405180910390f35b81156104a057600080fd5b610549600480803590602001909190803590602001908201803590602001908080601f0160208091040260200160405190810160405280939291908181526020018383808284378201915050505050509190803590602001908201803590602001908080601f0160208091040260200160405190810160405280939291908181526020018383808284378201915050505050509190803560001916906020019091905050611098565b005b811561055657600080fd5b61056c6004808035906020019091905050611202565b005b6105846004808035906020019091905050611514565b604051808473ffffffffffffffffffffffffffffffffffffffff1673ffffffffffffffffffffffffffffffffffffffff1681526020018381526020018260001916600019168152602001935050505060405180910390f35b60008060008060008089600081600201541115156105f957600080fd5b6106038b33611593565b60010395508a6005018660ff1660028110151561061c57fe5b60060201915060006001028260020154600019161415151561063d57600080fd5b6106468a61102e565b8095508199508297505050507f9220699dbdfa57702cdd2d09b1fefbfa68b8d10f8d9eb01b9730208e25d737f2878685604051808481526020018381526020018260001916600019168152602001935050505060405180910390a16001826005016000856000191660001916815260200190815260200160002060006101000a81548160ff0219169083151502179055507f3e933e947c4e7d17c065ab8ae729959d8c6ad9dde631ac6a540b143497fc5d128543604051808381526020018281526020019250505060405180910390a17f77e84f29e42abba306df705fafdd828a051237b9ae4acd069617741db1f444bf83898a604051808260001916600019168152602001915050604051809103902060405180846000191660001916815260200183600019166000191681526020018260001916600019168152602001935050505060405180910390a161079c8a8a610b74565b93507fde8e0729a7a56ddc8981ea71d734ee6a9f205faffd6d252b7f2d70e1e8ca4e188a8a86856002015460405180806020018060200185600019166000191681526020018460001916600019168152602001838103835287818151815260200191508051906020019080838360005b8381101561082757808201518184015260208101905061080c565b50505050905090810190601f1680156108545780820380516001836020036101000a031916815260200191505b50838103825286818151815260200191508051906020019080838360005b8381101561088d578082015181840152602081019050610872565b50505050905090810190601f1680156108ba5780820380516001836020036101000a031916815260200191505b50965050505050505060405180910390a18682600301600082825401925050819055505050505050505050505050565b6000806000806000866001015411151561090357600080fd5b6000866002015414151561091657600080fd5b848660040160009054906101000a900473ffffffffffffffffffffffffffffffffffffffff1673ffffffffffffffffffffffffffffffffffffffff166370a08231336040518263ffffffff167c0100000000000000000000000000000000000000000000000000000000028152600401808273ffffffffffffffffffffffffffffffffffffffff1673ffffffffffffffffffffffffffffffffffffffff168152602001915050602060405180830381600087803b15156109d557600080fd5b5af115156109e257600080fd5b50505060405180519050101515156109f957600080fd5b610a038633611593565b9150856005018260ff16600281101515610a1957fe5b6006020190508560040160009054906101000a900473ffffffffffffffffffffffffffffffffffffffff1673ffffffffffffffffffffffffffffffffffffffff166323b872dd3330886040518463ffffffff167c0100000000000000000000000000000000000000000000000000000000028152600401808473ffffffffffffffffffffffffffffffffffffffff1673ffffffffffffffffffffffffffffffffffffffff1681526020018373ffffffffffffffffffffffffffffffffffffffff1673ffffffffffffffffffffffffffffffffffffffff1681526020018281526020019350505050602060405180830381600087803b1515610b1957600080fd5b5af11515610b2657600080fd5b505050604051805190509350600115158415151415610b605780600101549250848301925082816001018190555060018393509350610b6b565b600080809050935093505b50509250929050565b600080600080600060208651811515610b8957fe5b06141515610b9657600080fd5b856040518082805190602001908083835b602083101515610bcc5780518252602082019150602081019050602083039250610ba7565b6001836020036101000a03801982511681845116808217855250505050505090500191505060405180910390209150602092505b845183111515610c9157828501519050806000191682600019161015610c5557818160405180836000191660001916815260200182600019166000191681526020019250505060405180910390209150610c86565b8082604051808360001916600019168152602001826000191660001916815260200192505050604051809103902091505b602083019250610c00565b81935050505092915050565b60008060008860008160020154111515610cb657600080fd5b8943816000015482600201540110151515610cd057600080fd5b8a60120160009054906101000a900460ff16151515610cee57600080fd5b60018b60120160006101000a81548160ff021916908315150217905550610d158b33611593565b93503373ffffffffffffffffffffffffffffffffffffffff168b60030160009054906101000a900473ffffffffffffffffffffffffffffffffffffffff1673ffffffffffffffffffffffffffffffffffffffff1614151515610d7657600080fd5b610d838a8a8a8a8a611604565b94508a60030160009054906101000a900473ffffffffffffffffffffffffffffffffffffffff1673ffffffffffffffffffffffffffffffffffffffff168573ffffffffffffffffffffffffffffffffffffffff16141515610de357600080fd5b836001039250898b6005018460ff16600281101515610dfe57fe5b6006020160040181905550878b6005018460ff16600281101515610e1e57fe5b600602016002018160001916905550888b6005018460ff16600281101515610e4257fe5b60060201600301819055507f3cf8b4e68d1de9aae9a511fdc0d5990a257f0eea540d2faeba56e0cd6c10d21c8589604051808373ffffffffffffffffffffffffffffffffffffffff1673ffffffffffffffffffffffffffffffffffffffff16815260200182600019166000191681526020019250505060405180910390a15050505050505050505050565b60008060008060008a60020154141515610ee657600080fd5b438a60020181905550610ef98a33611593565b60ff169250338a60030160006101000a81548173ffffffffffffffffffffffffffffffffffffffff021916908373ffffffffffffffffffffffffffffffffffffffff16021790555060418551141561102257610f588989898989611604565b9350610f648a85611593565b60ff169150818314151515610f7857600080fd5b8960050182600281101515610f8957fe5b600602019050888160040181905550868160020181600019169055508781600301819055507f3cf8b4e68d1de9aae9a511fdc0d5990a257f0eea540d2faeba56e0cd6c10d21c8488604051808373ffffffffffffffffffffffffffffffffffffffff1673ffffffffffffffffffffffffffffffffffffffff16815260200182600019166000191681526020019250505060405180910390a15b50505050505050505050565b60008060006060845114151561104357600080fd5b6020840151915060408401519250606084015190509193909250565b6040805190810160405280600581526020017f302e322e5f00000000000000000000000000000000000000000000000000000081525081565b60008060008060008089600081600201541115156110b557600080fd5b6110bf8b33611593565b60010395508a6005018660ff166002811015156110d857fe5b6006020191506000600102826002015460001916141515156110f957600080fd5b6111028a61102e565b809550819950829750505050816005016000846000191660001916815260200190815260200160002060009054906101000a900460ff1615151561114557600080fd5b6001826005016000856000191660001916815260200190815260200160002060006101000a81548160ff02191690831515021790555043851015151561118a57600080fd5b8760405180826000191660001916815260200191505060405180910390206000191683600019161415156111bd57600080fd5b6111c78a8a610b74565b935083600019168260020154600019161415156111e357600080fd5b8682600301600082825401925050819055505050505050505050505050565b600080600080600080600080886000816002015411151561122257600080fd5b894381600001548260020154011115151561123c57600080fd5b61126a8b8c60030160009054906101000a900473ffffffffffffffffffffffffffffffffffffffff16611593565b99508960010398508a6005018a60ff1660028110151561128657fe5b6006020193508a6005018960ff166002811015156112a057fe5b60060201925082600301548460030154846001015401039650826001015484600101540197506112d08789611737565b94506112dd856000611750565b9450848803955060008511156113fa578a60040160009054906101000a900473ffffffffffffffffffffffffffffffffffffffff1673ffffffffffffffffffffffffffffffffffffffff1663a9059cbb8460000160009054906101000a900473ffffffffffffffffffffffffffffffffffffffff16876040518363ffffffff167c0100000000000000000000000000000000000000000000000000000000028152600401808373ffffffffffffffffffffffffffffffffffffffff1673ffffffffffffffffffffffffffffffffffffffff16815260200182815260200192505050602060405180830381600087803b15156113d757600080fd5b5af115156113e457600080fd5b5050506040518051905015156113f957600080fd5b5b6000861115611510578a60040160009054906101000a900473ffffffffffffffffffffffffffffffffffffffff1673ffffffffffffffffffffffffffffffffffffffff1663a9059cbb8560000160009054906101000a900473ffffffffffffffffffffffffffffffffffffffff16886040518363ffffffff167c0100000000000000000000000000000000000000000000000000000000028152600401808373ffffffffffffffffffffffffffffffffffffffff1673ffffffffffffffffffffffffffffffffffffffff16815260200182815260200192505050602060405180830381600087803b15156114ed57600080fd5b5af115156114fa57600080fd5b50505060405180519050151561150f57600080fd5b5b6000ff5b60008060008060008060008061152a8933611593565b6001039450886005018560ff1660028110151561154357fe5b6006020193508360000160009054906101000a900473ffffffffffffffffffffffffffffffffffffffff169250836003015491508360020154905082828297509750975050505050509193909250565b6000808360110160008473ffffffffffffffffffffffffffffffffffffffff1673ffffffffffffffffffffffffffffffffffffffff16815260200190815260200160002060009054906101000a900460ff16905060008160ff16141515156115f757fe5b6001810391505092915050565b60008060008060006041865114151561161c57600080fd5b8989308a8a604051808681526020018581526020018473ffffffffffffffffffffffffffffffffffffffff1673ffffffffffffffffffffffffffffffffffffffff166c010000000000000000000000000281526014018360001916600019168152602001826000191660001916815260200195505050505050604051809103902093506116a886611769565b925092509250600184828585604051600081526020016040526040518085600019166000191681526020018460ff1660ff1681526020018360001916600019168152602001826000191660001916815260200194505050505060206040516020810390808403906000865af1151561171f57600080fd5b50506020604051035194505050505095945050505050565b60008183116117465782611748565b815b905092915050565b600081831161175f5781611761565b825b905092915050565b6000806000602084015192506040840151915060ff6041850151169050601b8160ff16148061179b5750601c8160ff16145b15156117a657600080fd5b91939092505600a165627a7a7230582038125b79070c3b10402f134c24213636949d2859b7a9293bb3ac60b510fdfda00029",
  "source": "pragma solidity ^0.4.16;\n\nimport \"./Token.sol\";\n\nlibrary NettingChannelLibrary {\n    string constant public contract_version = \"0.2._\";\n   \n\n    event Info(string msg);\n    event InfoAddress(address addy);\n    event UpdatedTranser(address a, bytes32 locksRoot);\n    event DecodeLock(uint256 amount, uint256 expiration, bytes32 hashlock);\n    event HashLockSecret(bytes32 hashlock, bytes32 secret, bytes32 processsed);\n    event ExpirationBlockNumber(uint256 expiration, uint256 blockNumber);\n    event ComputeMerkleRoot(bytes locked_encoded, bytes merkle_proof, bytes32 h, bytes32 locksroot);\n    \n    struct Participant\n    {\n        address node_address;\n\n        // Total amount of token transferred to this smart contract through the\n        // `deposit` function, note that direct token transfer cannot be\n        // tracked and will be burned.\n        uint256 balance;\n\n        // The latest known merkle root of the pending hash-time locks, used to\n        // validate the withdrawn proofs.\n        bytes32 locksroot;\n\n        // The latest known transferred_amount from this node to the other\n        // participant, used to compute the net balance on settlement.\n        uint256 transferred_amount;\n\n        // Value used to order transfers and only accept the latest on calls to\n        // update, this will only be relevant after either #182 or #293 is\n        // implemented.\n        uint256 nonce;\n\n        // A mapping to keep track of locks that have been withdrawn.\n        mapping(bytes32 => bool) withdrawn_locks;\n    }\n\n    struct Data {\n        uint settle_timeout;\n        uint opened;\n        uint closed;\n        address closing_address;\n        Token token;\n        Participant[2] participants;\n        mapping(address => uint8) participant_index;\n        bool updated;\n\n        Token goToken;\n        address channel_manager;\n    }\n\n\n    modifier isClosed(Data storage self) {\n        require(self.closed > 0);\n        _;\n    }\n\n    modifier stillTimeout(Data storage self) {\n        require(self.closed + self.settle_timeout >= block.number);\n        _;\n    }\n\n    modifier timeoutOver(Data storage self) {\n        require(self.closed + self.settle_timeout <= block.number);\n        _;\n    }\n\n    /// @notice Deposit amount to channel.\n    /// @dev Deposit an amount to the channel. At least one of the participants\n    /// must deposit before the channel is opened.\n    /// @param amount The amount to be deposited to the address\n    /// @return Success if the transfer was successful\n    /// @return The new balance of the invoker\n    function deposit(Data storage self, uint256 amount)\n        public\n        returns (bool success, uint256 balance)\n    {\n        uint8 index;\n\n        require(self.opened > 0);\n        require(self.closed == 0);\n        require(self.token.balanceOf(msg.sender) >= amount);\n\n        index = index_or_throw(self, msg.sender);\n        Participant storage participant = self.participants[index];\n\n        success = self.token.transferFrom(msg.sender, this, amount);\n        if (success == true) {\n            balance = participant.balance;\n            balance += amount;\n            participant.balance = balance;\n\n            return (true, balance);\n        }\n\n        return (false, 0);\n    }\n\n    /// @notice Close a channel between two parties that was used bidirectionally\n    function close(\n        Data storage self,\n        uint256 nonce,\n        uint256 transferred_amount,\n        bytes32 locksroot,\n        bytes32 extra_hash,\n        bytes signature\n    )\n        public\n    {\n        address transfer_address;\n        uint closer_index;\n        uint counterparty_index;\n\n        // close can be called only once\n        require(self.closed == 0);\n        self.closed = block.number;\n\n        // Only a participant can call close\n        closer_index = index_or_throw(self, msg.sender);\n        self.closing_address = msg.sender;\n\n        // Only the closing party can provide a transfer from the counterparty,\n        // and only when this function is called, i.e. this value can not be\n        // updated afterwards.\n\n        // An empty value means that the closer never received a transfer, or\n        // he is intentionally not providing the latest transfer, in which case\n        // the closing party is going to lose the tokens that were transferred\n        // to him.\n        if (signature.length == 65) {\n            transfer_address = recoverAddressFromSignature(\n                nonce,\n                transferred_amount,\n                locksroot,\n                extra_hash,\n                signature \n            );\n            //emit Info(\"WE CALCULATED TRANSFER ADDRESS\");\n            //emit InfoAddress(transfer_address);\n\n            counterparty_index = index_or_throw(self, transfer_address);\n            require(closer_index != counterparty_index);\n\n            // update the structure of the counterparty with its data provided\n            // by the closing node\n            Participant storage counterparty = self.participants[counterparty_index];\n            counterparty.nonce = uint256(nonce);\n            counterparty.locksroot = locksroot;\n            counterparty.transferred_amount = transferred_amount;\n            emit UpdatedTranser(transfer_address, locksroot);           \n        }\n    }\n\n    /// @notice Updates counter party transfer after closing.\n    function updateTransfer(\n        Data storage self,\n        uint256 nonce,\n        uint256 transferred_amount,\n        bytes32 locksroot,\n        bytes32 extra_hash,\n        bytes signature\n    )\n        isClosed(self)\n        stillTimeout(self)\n        public\n    {\n        address transfer_address;\n        uint8 caller_index;\n        uint8 closer_index;\n\n        // updateTransfer can be called by the counter party only once\n        require(!self.updated);\n        self.updated = true;\n\n        // Only a participant can call updateTransfer (#293 for third parties)\n        caller_index = index_or_throw(self, msg.sender);\n\n        // The closer is not allowed to call updateTransfer\n        require(self.closing_address != msg.sender);\n\n        // Counter party can only update the closer transfer\n        transfer_address = recoverAddressFromSignature(\n            nonce,\n            transferred_amount,\n            locksroot,\n            extra_hash,\n            signature \n        );\n        require(transfer_address == self.closing_address);\n\n        // Update the structure of the closer with its data provided by the\n        // counterparty\n        closer_index = 1 - caller_index;\n\n        self.participants[closer_index].nonce = nonce;\n        self.participants[closer_index].locksroot = locksroot;\n        self.participants[closer_index].transferred_amount = transferred_amount;\n        emit UpdatedTranser(transfer_address, locksroot);\n    }\n\n    function recoverAddressFromSignature(\n        uint256 nonce,\n        uint256 transferred_amount,\n        bytes32 locksroot,\n        bytes32 extra_hash,\n        bytes signature\n    )\n        constant\n        internal\n        returns (address)\n    {\n        bytes32 signed_hash;\n\n        require(signature.length == 65);\n        \n        signed_hash = keccak256(\n            nonce,\n            transferred_amount,\n            this,\n            locksroot,\n            extra_hash\n        );\n\n        var (r, s, v) = signatureSplit(signature);\n        return ecrecover(signed_hash, v, r, s);\n    }\n\n    /// @notice Unlock a locked transfer\n    /// @dev Unlock a locked transfer\n    /// @param locked_encoded The lock\n    /// @param merkle_proof The merkle proof\n    /// @param secret The secret\n    function withdraw(\n        Data storage self,\n        bytes locked_encoded,\n        bytes merkle_proof,\n        bytes32 secret \n    )\n        isClosed(self)\n        public\n    {\n        uint amount;\n        uint8 index;\n        uint256 expiration;\n        bytes32 h;\n        bytes32 hashlock;\n\n        // Check if msg.sender is a participant and select the partner (for\n        // third party unlock see #541)\n        index = 1 - index_or_throw(self, msg.sender);\n        Participant storage counterparty = self.participants[index];\n\n        // An empty locksroot means there are no pending locks\n        require(counterparty.locksroot != 0);\n\n        (expiration, amount, hashlock) = decodeLock(locked_encoded);\n\n        // A lock can be withdrawn only once per participant\n        require(!counterparty.withdrawn_locks[hashlock]);\n\n        counterparty.withdrawn_locks[hashlock] = true;\n\n        // The lock must not have expired, it does not matter how far in the\n        // future it would have expired\n        require(expiration >= block.number);\n        require(hashlock == keccak256(secret));\n\n        h = computeMerkleRoot(locked_encoded, merkle_proof);\n\n        require(counterparty.locksroot == h);\n\n        // This implementation allows for each transfer to be set only once, so\n        // it's safe to update the transferred_amount in place.\n        //\n        // Once third parties are allowed to update the counter party transfer\n        // (#293, #182) the locksroot may change, if the locksroot change the\n        // transferred_amount must be reset and locks must be re-withdrawn, so\n        // this is also safe.\n        //\n        // This may be problematic if an update changes the transferred_amount\n        // but not the locksroot, since the locks don't need to be\n        // re-withdrawn, the difference in the transferred_amount must be\n        // accounted for.\n        counterparty.transferred_amount += amount;\n    }\n\n     function withdrawTest(\n        Data storage self,\n        bytes locked_encoded,\n        bytes merkle_proof,\n        bytes32 secret \n    )\n        isClosed(self)\n        public\n    {\n        uint amount;\n        uint8 index;\n        uint256 expiration;\n        bytes32 h;\n        bytes32 hashlock;\n\n        // Check if msg.sender is a participant and select the partner (for\n        // third party unlock see #541)\n        index = 1 - index_or_throw(self, msg.sender);\n        Participant storage counterparty = self.participants[index];\n\n        // An empty locksroot means there are no pending locks\n        require(counterparty.locksroot != 0);\n\n        (expiration, amount, hashlock) = decodeLock(locked_encoded);\n        emit DecodeLock(amount,expiration,hashlock);\n        // A lock can be withdrawn only once per participant\n        //require(!counterparty.withdrawn_locks[hashlock]);\n\n        counterparty.withdrawn_locks[hashlock] = true;\n\n        // The lock must not have expired, it does not matter how far in the\n        // future it would have expired\n        emit ExpirationBlockNumber(expiration,block.number);\n\n        emit HashLockSecret(hashlock,secret,keccak256(secret));\n        \n        h = computeMerkleRoot(locked_encoded, merkle_proof);\n        emit ComputeMerkleRoot(locked_encoded,merkle_proof,h,counterparty.locksroot);\n        //require(counterparty.locksroot == h);\n\n        // This implementation allows for each transfer to be set only once, so\n        // it's safe to update the transferred_amount in place.\n        //\n        // Once third parties are allowed to update the counter party transfer\n        // (#293, #182) the locksroot may change, if the locksroot change the\n        // transferred_amount must be reset and locks must be re-withdrawn, so\n        // this is also safe.\n        //\n        // This may be problematic if an update changes the transferred_amount\n        // but not the locksroot, since the locks don't need to be\n        // re-withdrawn, the difference in the transferred_amount must be\n        // accounted for.\n        counterparty.transferred_amount += amount;\n    }\n    /// @notice Settles the balance between the two parties\n    /// @dev Settles the balances of the two parties fo the channel\n    /// @return The participants with netted balances\n    function settle(Data storage self)\n        isClosed(self)\n        timeoutOver(self)\n        public\n    {\n        uint8 closing_index;\n        uint8 counter_index;\n        uint256 total_deposit;\n        uint256 counter_net;\n        uint256 closer_amount;\n        uint256 counter_amount;\n\n        closing_index = index_or_throw(self, self.closing_address);\n        counter_index = 1 - closing_index;\n\n        Participant storage closing_party = self.participants[closing_index];\n        Participant storage counter_party = self.participants[counter_index];\n\n        counter_net = (\n            counter_party.balance\n            + closing_party.transferred_amount\n            - counter_party.transferred_amount\n        );\n\n        // Direct token transfers done through the token `transfer` function\n        // cannot be accounted for, these superfluous tokens will be burned,\n        // this is because there is no way to tell which participant (if any)\n        // had ownership over the token.\n        total_deposit = closing_party.balance + counter_party.balance;\n\n        // When the closing party does not provide the counter party transfer,\n        // the `counter_net` may be larger than the `total_deposit`, without\n        // the min the token transfer fail and the token is locked.\n        counter_amount = min(counter_net, total_deposit);\n\n        // When the counter party does not provide the closing party transfer,\n        // then `counter_amount` may be negative and the transfer fails, force\n        // the value to 0.\n        counter_amount = max(counter_amount, 0);\n\n        // At this point `counter_amount` is between [0,total_deposit], so this\n        // is safe.\n        closer_amount = total_deposit - counter_amount;\n\n        if (counter_amount > 0) {\n            require(self.token.transfer(counter_party.node_address, counter_amount));\n        }\n\n        if (closer_amount > 0) {\n            require(self.token.transfer(closing_party.node_address, closer_amount));\n        }\n        \n\n        selfdestruct(0x00000000000000000000);\n    }\n\n    function index_or_throw(Data storage self, address participant_address)\n        constant\n        private\n        returns (uint8)\n    {\n        uint8 n;\n        // Return index of participant, or throw\n        n = self.participant_index[participant_address];\n        assert(n != 0);\n        return n - 1;\n    }\n\n    // NOTES:\n    //\n    // - The EVM is a big-endian, byte addressing machine, with 32bytes/256bits\n    //   words.\n    // - The Ethereum Contract ABI specifies that variable length types have a\n    //   32bytes prefix to define the variable size.\n    // - Solidity has additional data types that are narrower than 32bytes\n    //   (e.g. uint128 uses a half word).\n    // - Solidity uses the *least-significant* bits of the word to store the\n    //   values of a narrower type.\n    //\n    // GENERAL APPROACH:\n    //\n    // Add to the message pointer the number of bytes required to move the\n    // address so that the target data is at the end of the 32bytes word.\n    //\n    // EXAMPLE:\n    //\n    // To decode the cmdid, consider this initial state:\n    //\n    //\n    //     v- pointer word start\n    //     [ 32 bytes length prefix ][ cmdid ] ----\n    //                              ^- pointer word end\n    //\n    //\n    // Because the cmdid has 1 byte length the type uint8 is used, the decoder\n    // needs to move the pointer so the cmdid is at the end of the pointer\n    // word.\n    //\n    //\n    //             v- pointer word start [moved 1byte ahead]\n    //     [ 32 bytes length prefix ][ cmdid ] ----\n    //                                       ^- pointer word end\n    //\n    //\n    // Now the data of the cmdid can be loaded to the uint8 variable.\n    //\n    // REFERENCES:\n    // - https://github.com/ethereum/wiki/wiki/Ethereum-Contract-ABI\n    // - http://solidity.readthedocs.io/en/develop/assembly.html\n\n    function decodeLock(bytes lock)\n        pure\n        //internal\n        public\n        returns (uint256 expiration, uint256 amount, bytes32 hashlock)\n    {\n        require(lock.length == 96);\n\n        // Lock format:\n        // [0:32] amount\n        // [32:64] expirtation\n        // [64:96] hashlock\n\n        assembly {\n            amount := mload(add(lock, 32))\n            expiration := mload(add(lock, 64))\n            hashlock := mload(add(lock, 96))\n        }\n        //emit DecodeLock(amount,expiration,hashlock);\n    }\n\n    function signatureSplit(bytes signature)\n        pure\n        internal\n        returns (bytes32 r, bytes32 s, uint8 v)\n    {\n        // The signature format is a compact form of:\n        //   {bytes32 r}{bytes32 s}{uint8 v}\n        // Compact means, uint8 is not padded to 32 bytes.\n        assembly {\n            r := mload(add(signature, 32))\n            s := mload(add(signature, 64))\n            // Here we are loading the last 32 bytes, including 31 bytes\n            // of 's'. There is no 'mload8' to do this.\n            //\n            // 'byte' is not working due to the Solidity parser, so lets\n            // use the second best option, 'and'\n            v := and(mload(add(signature, 65)), 0xff)\n        }\n\n        require(v == 27 || v == 28);\n    }\n\n    function participantData(Data storage self) view public returns(address,uint256,bytes32){\n        uint8 index = 1 - index_or_throw(self, msg.sender);\n        Participant storage counterparty = self.participants[index];\n        address a = counterparty.node_address;\n        uint256 b = counterparty.transferred_amount;\n        bytes32 c = counterparty.locksroot;\n        return (a,b,c); \n    }\n\n    function computeMerkleRoot(bytes lock, bytes merkle_proof)\n        pure\n        //internal\n        public\n        returns (bytes32)\n    {\n        require(merkle_proof.length % 32 == 0);\n\n        uint i;\n        bytes32 h;\n        bytes32 el;\n\n        h = keccak256(lock);\n        for (i = 32; i <= merkle_proof.length; i += 32) {\n            assembly {\n                el := mload(add(merkle_proof, i))\n            }\n\n            if (h < el) {\n                h = keccak256(h, el);\n            } else {\n                h = keccak256(el, h);\n            }\n        }\n\n        return h;\n    }\n\n\n\n    function min(uint a, uint b) pure internal returns (uint)\n    {\n        return a > b ? b : a;\n    }\n\n    function max(uint a, uint b) pure internal returns (uint)\n    {\n        return a > b ? a : b;\n    }\n}\n",
  "sourcePath": "/Users/amitshah/Documents/nodejs/javascript/blockchain-service/smart-contracts/contracts/NettingChannelLibrary.sol",
  "compiler": {
    "name": "solc",
    "version": "0.4.21+commit.dfe3193c.Emscripten.clang"
  },
  "schemaVersion": "2.0.0",
  "updatedAt": "2018-04-20T23:08:17.128Z"
}