{
  "contractName": "Registry",
  "abi": [
    {
      "constant": true,
      "inputs": [
        {
          "name": "",
          "type": "address"
        }
      ],
      "name": "registry",
      "outputs": [
        {
          "name": "",
          "type": "address"
        }
      ],
      "payable": false,
      "stateMutability": "view",
      "type": "function"
    },
    {
      "constant": true,
      "inputs": [
        {
          "name": "",
          "type": "uint256"
        }
      ],
      "name": "tokens",
      "outputs": [
        {
          "name": "",
          "type": "address"
        }
      ],
      "payable": false,
      "stateMutability": "view",
      "type": "function"
    },
    {
      "constant": true,
      "inputs": [],
      "name": "contract_version",
      "outputs": [
        {
          "name": "",
          "type": "string"
        }
      ],
      "payable": false,
      "stateMutability": "view",
      "type": "function"
    },
    {
      "payable": false,
      "stateMutability": "nonpayable",
      "type": "fallback"
    },
    {
      "anonymous": false,
      "inputs": [
        {
          "indexed": false,
          "name": "token_address",
          "type": "address"
        },
        {
          "indexed": false,
          "name": "channel_manager_address",
          "type": "address"
        }
      ],
      "name": "TokenAdded",
      "type": "event"
    },
    {
      "constant": false,
      "inputs": [
        {
          "name": "token_address",
          "type": "address"
        }
      ],
      "name": "addToken",
      "outputs": [
        {
          "name": "",
          "type": "address"
        }
      ],
      "payable": false,
      "stateMutability": "nonpayable",
      "type": "function"
    },
    {
      "constant": true,
      "inputs": [
        {
          "name": "token_address",
          "type": "address"
        }
      ],
      "name": "channelManagerByToken",
      "outputs": [
        {
          "name": "",
          "type": "address"
        }
      ],
      "payable": false,
      "stateMutability": "view",
      "type": "function"
    },
    {
      "constant": true,
      "inputs": [],
      "name": "tokenAddresses",
      "outputs": [
        {
          "name": "",
          "type": "address[]"
        }
      ],
      "payable": false,
      "stateMutability": "view",
      "type": "function"
    },
    {
      "constant": true,
      "inputs": [],
      "name": "channelManagerAddresses",
      "outputs": [
        {
          "name": "",
          "type": "address[]"
        }
      ],
      "payable": false,
      "stateMutability": "view",
      "type": "function"
    }
  ],
  "bytecode": "0x6060604052341561000f57600080fd5b611a5b8061001e6000396000f300606060405260043610610083576000357c0100000000000000000000000000000000000000000000000000000000900463ffffffff168063038defd71461009357806325119b5f1461010c5780634f64b2be14610185578063640191e2146101e8578063a9989b9314610252578063b32c65c8146102bc578063d48bfca71461034a575b341561008e57600080fd5b600080fd5b341561009e57600080fd5b6100ca600480803573ffffffffffffffffffffffffffffffffffffffff169060200190919050506103c3565b604051808273ffffffffffffffffffffffffffffffffffffffff1673ffffffffffffffffffffffffffffffffffffffff16815260200191505060405180910390f35b341561011757600080fd5b610143600480803573ffffffffffffffffffffffffffffffffffffffff169060200190919050506103f6565b604051808273ffffffffffffffffffffffffffffffffffffffff1673ffffffffffffffffffffffffffffffffffffffff16815260200191505060405180910390f35b341561019057600080fd5b6101a660048080359060200190919050506104e4565b604051808273ffffffffffffffffffffffffffffffffffffffff1673ffffffffffffffffffffffffffffffffffffffff16815260200191505060405180910390f35b34156101f357600080fd5b6101fb610523565b6040518080602001828103825283818151815260200191508051906020019060200280838360005b8381101561023e578082015181840152602081019050610223565b505050509050019250505060405180910390f35b341561025d57600080fd5b61026561066a565b6040518080602001828103825283818151815260200191508051906020019060200280838360005b838110156102a857808201518184015260208101905061028d565b505050509050019250505060405180910390f35b34156102c757600080fd5b6102cf6106fe565b6040518080602001828103825283818151815260200191508051906020019080838360005b8381101561030f5780820151818401526020810190506102f4565b50505050905090810190601f16801561033c5780820380516001836020036101000a031916815260200191505b509250505060405180910390f35b341561035557600080fd5b610381600480803573ffffffffffffffffffffffffffffffffffffffff16906020019091905050610737565b604051808273ffffffffffffffffffffffffffffffffffffffff1673ffffffffffffffffffffffffffffffffffffffff16815260200191505060405180910390f35b60006020528060005260406000206000915054906101000a900473ffffffffffffffffffffffffffffffffffffffff1681565b60008160008060008373ffffffffffffffffffffffffffffffffffffffff1673ffffffffffffffffffffffffffffffffffffffff16815260200190815260200160002060009054906101000a900473ffffffffffffffffffffffffffffffffffffffff1673ffffffffffffffffffffffffffffffffffffffff161415151561047d57600080fd5b6000808473ffffffffffffffffffffffffffffffffffffffff1673ffffffffffffffffffffffffffffffffffffffff16815260200190815260200160002060009054906101000a900473ffffffffffffffffffffffffffffffffffffffff16915050919050565b6001818154811015156104f357fe5b90600052602060002090016000915054906101000a900473ffffffffffffffffffffffffffffffffffffffff1681565b61052b610a4a565b600080610536610a4a565b6001805490506040518059106105495750595b90808252806020026020018201604052509050600092505b6001805490508310156106615760018381548110151561057d57fe5b906000526020600020900160009054906101000a900473ffffffffffffffffffffffffffffffffffffffff1691506000808373ffffffffffffffffffffffffffffffffffffffff1673ffffffffffffffffffffffffffffffffffffffff16815260200190815260200160002060009054906101000a900473ffffffffffffffffffffffffffffffffffffffff16818481518110151561061857fe5b9060200190602002019073ffffffffffffffffffffffffffffffffffffffff16908173ffffffffffffffffffffffffffffffffffffffff16815250508280600101935050610561565b80935050505090565b610672610a4a565b60018054806020026020016040519081016040528092919081815260200182805480156106f457602002820191906000526020600020905b8160009054906101000a900473ffffffffffffffffffffffffffffffffffffffff1673ffffffffffffffffffffffffffffffffffffffff16815260200190600101908083116106aa575b5050505050905090565b6040805190810160405280600581526020017f302e322e5f00000000000000000000000000000000000000000000000000000081525081565b600080826000806000808473ffffffffffffffffffffffffffffffffffffffff1673ffffffffffffffffffffffffffffffffffffffff16815260200190815260200160002060009054906101000a900473ffffffffffffffffffffffffffffffffffffffff1673ffffffffffffffffffffffffffffffffffffffff161415156107bf57600080fd5b8190508073ffffffffffffffffffffffffffffffffffffffff166318160ddd6040518163ffffffff167c0100000000000000000000000000000000000000000000000000000000028152600401602060405180830381600087803b151561082557600080fd5b5af1151561083257600080fd5b50505060405180519050508485610847610a5e565b808373ffffffffffffffffffffffffffffffffffffffff1673ffffffffffffffffffffffffffffffffffffffff1681526020018273ffffffffffffffffffffffffffffffffffffffff1673ffffffffffffffffffffffffffffffffffffffff16815260200192505050604051809103906000f08015156108c657600080fd5b9250826000808773ffffffffffffffffffffffffffffffffffffffff1673ffffffffffffffffffffffffffffffffffffffff16815260200190815260200160002060006101000a81548173ffffffffffffffffffffffffffffffffffffffff021916908373ffffffffffffffffffffffffffffffffffffffff160217905550600180548060010182816109599190610a6e565b9160005260206000209001600087909190916101000a81548173ffffffffffffffffffffffffffffffffffffffff021916908373ffffffffffffffffffffffffffffffffffffffff160217905550507fdffbd9ded1c09446f09377de547142dcce7dc541c8b0b028142b1eba7026b9e78584604051808373ffffffffffffffffffffffffffffffffffffffff1673ffffffffffffffffffffffffffffffffffffffff1681526020018273ffffffffffffffffffffffffffffffffffffffff1673ffffffffffffffffffffffffffffffffffffffff1681526020019250505060405180910390a1829350505050919050565b602060405190810160405280600081525090565b604051610f7080610ac083390190565b815481835581811511610a9557818360005260206000209182019101610a949190610a9a565b5b505050565b610abc91905b80821115610ab8576000816000905550600101610aa0565b5090565b9056006060604052341561000f57600080fd5b604051604080610f7083398101604052808051906020019091908051906020019091905050816000800160006101000a81548173ffffffffffffffffffffffffffffffffffffffff021916908373ffffffffffffffffffffffffffffffffffffffff16021790555080600060010160006101000a81548173ffffffffffffffffffffffffffffffffffffffff021916908373ffffffffffffffffffffffffffffffffffffffff1602179055505050610ea4806100cc6000396000f300606060405260043610610099576000357c0100000000000000000000000000000000000000000000000000000000900463ffffffff1680630b74b620146100a9578063238bfba2146101135780636785b5001461018c5780636cb30fee146101f65780637709bc78146102845780639d76ea58146102d5578063b32c65c81461032a578063c57981b5146103b8578063f26c6aed146103e1575b34156100a457600080fd5b600080fd5b34156100b457600080fd5b6100bc610463565b6040518080602001828103825283818151815260200191508051906020019060200280838360005b838110156100ff5780820151818401526020810190506100e4565b505050509050019250505060405180910390f35b341561011e57600080fd5b61014a600480803573ffffffffffffffffffffffffffffffffffffffff16906020019091905050610711565b604051808273ffffffffffffffffffffffffffffffffffffffff1673ffffffffffffffffffffffffffffffffffffffff16815260200191505060405180910390f35b341561019757600080fd5b61019f6107d1565b6040518080602001828103825283818151815260200191508051906020019060200280838360005b838110156101e25780820151818401526020810190506101c7565b505050509050019250505060405180910390f35b341561020157600080fd5b61022d600480803573ffffffffffffffffffffffffffffffffffffffff16906020019091905050610868565b6040518080602001828103825283818151815260200191508051906020019060200280838360005b83811015610270578082015181840152602081019050610255565b505050509050019250505060405180910390f35b341561028f57600080fd5b6102bb600480803573ffffffffffffffffffffffffffffffffffffffff1690602001909190505061093e565b604051808215151515815260200191505060405180910390f35b34156102e057600080fd5b6102e8610951565b604051808273ffffffffffffffffffffffffffffffffffffffff1673ffffffffffffffffffffffffffffffffffffffff16815260200191505060405180910390f35b341561033557600080fd5b61033d61097d565b6040518080602001828103825283818151815260200191508051906020019080838360005b8381101561037d578082015181840152602081019050610362565b50505050905090810190601f1680156103aa5780820380516001836020036101000a031916815260200191505b509250505060405180910390f35b34156103c357600080fd5b6103cb6109b6565b6040518082815260200191505060405180910390f35b34156103ec57600080fd5b610421600480803573ffffffffffffffffffffffffffffffffffffffff169060200190919080359060200190919050506109bb565b604051808273ffffffffffffffffffffffffffffffffffffffff1673ffffffffffffffffffffffffffffffffffffffff16815260200191505060405180910390f35b61046b610e64565b600080610476610e64565b60008060008060009250600096505b6000600201805490508710156104f4576104db6000600201888154811015156104aa57fe5b906000526020600020900160009054906101000a900473ffffffffffffffffffffffffffffffffffffffff1661093e565b156104e7576001830192505b8680600101975050610485565b600283026040518059106105055750595b9080825280602002602001820160405250945060009550600096505b6000600201805490508710156107045761057760006002018881548110151561054657fe5b906000526020600020900160009054906101000a900473ffffffffffffffffffffffffffffffffffffffff1661093e565b1515610582576106f7565b60006002018781548110151561059457fe5b906000526020600020900160009054906101000a900473ffffffffffffffffffffffffffffffffffffffff1693508373ffffffffffffffffffffffffffffffffffffffff16636d2381b36040518163ffffffff167c0100000000000000000000000000000000000000000000000000000000028152600401608060405180830381600087803b151561062557600080fd5b5af1151561063257600080fd5b5050506040518051906020018051906020018051906020018051905050925050915081858781518110151561066357fe5b9060200190602002019073ffffffffffffffffffffffffffffffffffffffff16908173ffffffffffffffffffffffffffffffffffffffff16815250506001860195508085878151811015156106b457fe5b9060200190602002019073ffffffffffffffffffffffffffffffffffffffff16908173ffffffffffffffffffffffffffffffffffffffff16815250506001860195505b8680600101975050610521565b8497505050505050505090565b60008073__ChannelManagerLibrary_________________638a1c00e29091846040518363ffffffff167c0100000000000000000000000000000000000000000000000000000000028152600401808381526020018273ffffffffffffffffffffffffffffffffffffffff1673ffffffffffffffffffffffffffffffffffffffff1681526020019250505060206040518083038186803b15156107b357600080fd5b5af415156107c057600080fd5b505050604051805190509050919050565b6107d9610e64565b600060020180548060200260200160405190810160405280929190818152602001828054801561085e57602002820191906000526020600020905b8160009054906101000a900473ffffffffffffffffffffffffffffffffffffffff1673ffffffffffffffffffffffffffffffffffffffff1681526020019060010190808311610814575b5050505050905090565b610870610e64565b600060040160008373ffffffffffffffffffffffffffffffffffffffff1673ffffffffffffffffffffffffffffffffffffffff16815260200190815260200160002080548060200260200160405190810160405280929190818152602001828054801561093257602002820191906000526020600020905b8160009054906101000a900473ffffffffffffffffffffffffffffffffffffffff1673ffffffffffffffffffffffffffffffffffffffff16815260200190600101908083116108e8575b50505050509050919050565b600080823b905060008111915050919050565b60008060010160009054906101000a900473ffffffffffffffffffffffffffffffffffffffff16905090565b6040805190810160405280600581526020017f302e322e5f00000000000000000000000000000000000000000000000000000081525081565b603281565b60008060008060326000800160009054906101000a900473ffffffffffffffffffffffffffffffffffffffff1673ffffffffffffffffffffffffffffffffffffffff1663dd62ed3e33306040518363ffffffff167c0100000000000000000000000000000000000000000000000000000000028152600401808373ffffffffffffffffffffffffffffffffffffffff1673ffffffffffffffffffffffffffffffffffffffff1681526020018273ffffffffffffffffffffffffffffffffffffffff1673ffffffffffffffffffffffffffffffffffffffff16815260200192505050602060405180830381600087803b1515610ab557600080fd5b5af11515610ac257600080fd5b5050506040518051905010151515610ad957600080fd5b6000800160009054906101000a900473ffffffffffffffffffffffffffffffffffffffff1673ffffffffffffffffffffffffffffffffffffffff166323b872dd333060326040518463ffffffff167c0100000000000000000000000000000000000000000000000000000000028152600401808473ffffffffffffffffffffffffffffffffffffffff1673ffffffffffffffffffffffffffffffffffffffff1681526020018373ffffffffffffffffffffffffffffffffffffffff1673ffffffffffffffffffffffffffffffffffffffff1681526020018281526020019350505050602060405180830381600087803b1515610bd457600080fd5b5af11515610be157600080fd5b50505060405180519050925060011515831515141515610c0057600080fd5b610c0986610711565b915060008273ffffffffffffffffffffffffffffffffffffffff16141515610cc3577fda8d2f351e0f7c8c368e631ce8ab15973e7582ece0c347d75a5cff49eb899eb73387604051808373ffffffffffffffffffffffffffffffffffffffff1673ffffffffffffffffffffffffffffffffffffffff1681526020018273ffffffffffffffffffffffffffffffffffffffff1673ffffffffffffffffffffffffffffffffffffffff1681526020019250505060405180910390a15b600073__ChannelManagerLibrary_________________63941583a5909188886040518463ffffffff167c0100000000000000000000000000000000000000000000000000000000028152600401808481526020018373ffffffffffffffffffffffffffffffffffffffff1673ffffffffffffffffffffffffffffffffffffffff168152602001828152602001935050505060206040518083038186803b1515610d6c57600080fd5b5af41515610d7957600080fd5b5050506040518051905090507f7bd269696a33040df6c111efd58439c9c77909fcbe90f7511065ac277e175dac81338888604051808573ffffffffffffffffffffffffffffffffffffffff1673ffffffffffffffffffffffffffffffffffffffff1681526020018473ffffffffffffffffffffffffffffffffffffffff1673ffffffffffffffffffffffffffffffffffffffff1681526020018373ffffffffffffffffffffffffffffffffffffffff1673ffffffffffffffffffffffffffffffffffffffff16815260200182815260200194505050505060405180910390a180935050505092915050565b6020604051908101604052806000815250905600a165627a7a7230582035fb398f82157ee4f2ffb0039b4333ab0526d40c6f04e036647c279545b727d80029a165627a7a72305820a85dbfa5d03445698c9fbab29176f9fc6aefc5b9ffd0c2ebccb9629ca7e69f1c0029",
  "source": "pragma solidity ^0.4.11;\n\nimport \"./ChannelManagerContract.sol\";\n\ncontract Registry {\n    string constant public contract_version = \"0.2._\";\n\n    mapping(address => address) public registry;\n    address[] public tokens;\n\n    event TokenAdded(address token_address, address channel_manager_address);\n\n    modifier addressExists(address _address) {\n        require(registry[_address] != 0x0);\n        _;\n    }\n\n    modifier doesNotExist(address _address) {\n        // Check if it's already registered or token contract is invalid.\n        // We assume if it has a valid totalSupply() function it's a valid Token contract\n        require(registry[_address] == 0x0);\n        Token token = Token(_address);\n        token.totalSupply();\n        _;\n    }\n\n    /// @notice Register a new ERC20 token\n    /// @param token_address Address of the token\n    /// @return The address of the channel manager\n    function addToken(address token_address)\n        doesNotExist(token_address)\n        public\n        returns (address)\n    {\n        address manager_address;\n\n        manager_address = new ChannelManagerContract(token_address,token_address);\n\n        registry[token_address] = manager_address;\n        tokens.push(token_address);\n\n        TokenAdded(token_address, manager_address);\n\n        return manager_address;\n    }\n\n    /// @notice Get the ChannelManager address for a specific token\n    /// @param token_address The address of the given token\n    /// @return Address of channel manager\n    function channelManagerByToken(address token_address)\n        addressExists(token_address)\n        public\n        constant\n        returns (address)\n    {\n        return registry[token_address];\n    }\n\n    /// @notice Get all registered tokens\n    /// @return addresses of all registered tokens\n    function tokenAddresses()\n        public\n        constant\n        returns (address[])\n    {\n        return tokens;\n    }\n\n    /// @notice Get the addresses of all channel managers for all registered tokens\n    /// @return addresses of all channel managers\n    function channelManagerAddresses()\n        public\n        constant\n        returns (address[])\n    {\n        uint i;\n        address token_address;\n        address[] memory result;\n\n        result = new address[](tokens.length);\n\n        for (i = 0; i < tokens.length; i++) {\n            token_address = tokens[i];\n            result[i] = registry[token_address];\n        }\n\n        return result;\n    }\n\n    function () public { revert(); }\n}\n",
  "sourcePath": "/Users/amitshah/Documents/nodejs/javascript/blockchain-service/smart-contracts/contracts/Registry.sol",
  "compiler": {
    "name": "solc",
    "version": "0.4.21+commit.dfe3193c.Emscripten.clang"
  },
  "schemaVersion": "2.0.0",
  "updatedAt": "2018-04-17T01:24:55.891Z"
}