{
  "contractName": "Registry",
  "abi": [
    {
      "constant": true,
      "inputs": [
        {
          "name": "",
          "type": "address"
        }
      ],
      "name": "registry",
      "outputs": [
        {
          "name": "",
          "type": "address"
        }
      ],
      "payable": false,
      "stateMutability": "view",
      "type": "function"
    },
    {
      "constant": true,
      "inputs": [
        {
          "name": "",
          "type": "uint256"
        }
      ],
      "name": "tokens",
      "outputs": [
        {
          "name": "",
          "type": "address"
        }
      ],
      "payable": false,
      "stateMutability": "view",
      "type": "function"
    },
    {
      "constant": true,
      "inputs": [],
      "name": "contract_version",
      "outputs": [
        {
          "name": "",
          "type": "string"
        }
      ],
      "payable": false,
      "stateMutability": "view",
      "type": "function"
    },
    {
      "payable": false,
      "stateMutability": "nonpayable",
      "type": "fallback"
    },
    {
      "anonymous": false,
      "inputs": [
        {
          "indexed": false,
          "name": "token_address",
          "type": "address"
        },
        {
          "indexed": false,
          "name": "channel_manager_address",
          "type": "address"
        }
      ],
      "name": "TokenAdded",
      "type": "event"
    },
    {
      "constant": false,
      "inputs": [
        {
          "name": "token_address",
          "type": "address"
        }
      ],
      "name": "addToken",
      "outputs": [
        {
          "name": "",
          "type": "address"
        }
      ],
      "payable": false,
      "stateMutability": "nonpayable",
      "type": "function"
    },
    {
      "constant": true,
      "inputs": [
        {
          "name": "token_address",
          "type": "address"
        }
      ],
      "name": "channelManagerByToken",
      "outputs": [
        {
          "name": "",
          "type": "address"
        }
      ],
      "payable": false,
      "stateMutability": "view",
      "type": "function"
    },
    {
      "constant": true,
      "inputs": [],
      "name": "tokenAddresses",
      "outputs": [
        {
          "name": "",
          "type": "address[]"
        }
      ],
      "payable": false,
      "stateMutability": "view",
      "type": "function"
    },
    {
      "constant": true,
      "inputs": [],
      "name": "channelManagerAddresses",
      "outputs": [
        {
          "name": "",
          "type": "address[]"
        }
      ],
      "payable": false,
      "stateMutability": "view",
      "type": "function"
    }
  ],
  "bytecode": "0x6060604052341561000f57600080fd5b611f0e8061001e6000396000f300606060405260043610610083576000357c0100000000000000000000000000000000000000000000000000000000900463ffffffff168063038defd71461009357806325119b5f1461010c5780634f64b2be14610185578063640191e2146101e8578063a9989b9314610252578063b32c65c8146102bc578063d48bfca71461034a575b341561008e57600080fd5b600080fd5b341561009e57600080fd5b6100ca600480803573ffffffffffffffffffffffffffffffffffffffff169060200190919050506103c3565b604051808273ffffffffffffffffffffffffffffffffffffffff1673ffffffffffffffffffffffffffffffffffffffff16815260200191505060405180910390f35b341561011757600080fd5b610143600480803573ffffffffffffffffffffffffffffffffffffffff169060200190919050506103f6565b604051808273ffffffffffffffffffffffffffffffffffffffff1673ffffffffffffffffffffffffffffffffffffffff16815260200191505060405180910390f35b341561019057600080fd5b6101a660048080359060200190919050506104e4565b604051808273ffffffffffffffffffffffffffffffffffffffff1673ffffffffffffffffffffffffffffffffffffffff16815260200191505060405180910390f35b34156101f357600080fd5b6101fb610523565b6040518080602001828103825283818151815260200191508051906020019060200280838360005b8381101561023e578082015181840152602081019050610223565b505050509050019250505060405180910390f35b341561025d57600080fd5b61026561066a565b6040518080602001828103825283818151815260200191508051906020019060200280838360005b838110156102a857808201518184015260208101905061028d565b505050509050019250505060405180910390f35b34156102c757600080fd5b6102cf6106fe565b6040518080602001828103825283818151815260200191508051906020019080838360005b8381101561030f5780820151818401526020810190506102f4565b50505050905090810190601f16801561033c5780820380516001836020036101000a031916815260200191505b509250505060405180910390f35b341561035557600080fd5b610381600480803573ffffffffffffffffffffffffffffffffffffffff16906020019091905050610737565b604051808273ffffffffffffffffffffffffffffffffffffffff1673ffffffffffffffffffffffffffffffffffffffff16815260200191505060405180910390f35b60006020528060005260406000206000915054906101000a900473ffffffffffffffffffffffffffffffffffffffff1681565b60008160008060008373ffffffffffffffffffffffffffffffffffffffff1673ffffffffffffffffffffffffffffffffffffffff16815260200190815260200160002060009054906101000a900473ffffffffffffffffffffffffffffffffffffffff1673ffffffffffffffffffffffffffffffffffffffff161415151561047d57600080fd5b6000808473ffffffffffffffffffffffffffffffffffffffff1673ffffffffffffffffffffffffffffffffffffffff16815260200190815260200160002060009054906101000a900473ffffffffffffffffffffffffffffffffffffffff16915050919050565b6001818154811015156104f357fe5b90600052602060002090016000915054906101000a900473ffffffffffffffffffffffffffffffffffffffff1681565b61052b610a4a565b600080610536610a4a565b6001805490506040518059106105495750595b90808252806020026020018201604052509050600092505b6001805490508310156106615760018381548110151561057d57fe5b906000526020600020900160009054906101000a900473ffffffffffffffffffffffffffffffffffffffff1691506000808373ffffffffffffffffffffffffffffffffffffffff1673ffffffffffffffffffffffffffffffffffffffff16815260200190815260200160002060009054906101000a900473ffffffffffffffffffffffffffffffffffffffff16818481518110151561061857fe5b9060200190602002019073ffffffffffffffffffffffffffffffffffffffff16908173ffffffffffffffffffffffffffffffffffffffff16815250508280600101935050610561565b80935050505090565b610672610a4a565b60018054806020026020016040519081016040528092919081815260200182805480156106f457602002820191906000526020600020905b8160009054906101000a900473ffffffffffffffffffffffffffffffffffffffff1673ffffffffffffffffffffffffffffffffffffffff16815260200190600101908083116106aa575b5050505050905090565b6040805190810160405280600581526020017f302e322e5f00000000000000000000000000000000000000000000000000000081525081565b600080826000806000808473ffffffffffffffffffffffffffffffffffffffff1673ffffffffffffffffffffffffffffffffffffffff16815260200190815260200160002060009054906101000a900473ffffffffffffffffffffffffffffffffffffffff1673ffffffffffffffffffffffffffffffffffffffff161415156107bf57600080fd5b8190508073ffffffffffffffffffffffffffffffffffffffff166318160ddd6040518163ffffffff167c0100000000000000000000000000000000000000000000000000000000028152600401602060405180830381600087803b151561082557600080fd5b5af1151561083257600080fd5b50505060405180519050508485610847610a5e565b808373ffffffffffffffffffffffffffffffffffffffff1673ffffffffffffffffffffffffffffffffffffffff1681526020018273ffffffffffffffffffffffffffffffffffffffff1673ffffffffffffffffffffffffffffffffffffffff16815260200192505050604051809103906000f08015156108c657600080fd5b9250826000808773ffffffffffffffffffffffffffffffffffffffff1673ffffffffffffffffffffffffffffffffffffffff16815260200190815260200160002060006101000a81548173ffffffffffffffffffffffffffffffffffffffff021916908373ffffffffffffffffffffffffffffffffffffffff160217905550600180548060010182816109599190610a6e565b9160005260206000209001600087909190916101000a81548173ffffffffffffffffffffffffffffffffffffffff021916908373ffffffffffffffffffffffffffffffffffffffff160217905550507fdffbd9ded1c09446f09377de547142dcce7dc541c8b0b028142b1eba7026b9e78584604051808373ffffffffffffffffffffffffffffffffffffffff1673ffffffffffffffffffffffffffffffffffffffff1681526020018273ffffffffffffffffffffffffffffffffffffffff1673ffffffffffffffffffffffffffffffffffffffff1681526020019250505060405180910390a1829350505050919050565b602060405190810160405280600081525090565b60405161142380610ac083390190565b815481835581811511610a9557818360005260206000209182019101610a949190610a9a565b5b505050565b610abc91905b80821115610ab8576000816000905550600101610aa0565b5090565b9056006060604052341561000f57600080fd5b60405160408061142383398101604052808051906020019091908051906020019091905050336000806101000a81548173ffffffffffffffffffffffffffffffffffffffff021916908373ffffffffffffffffffffffffffffffffffffffff16021790555081600160000160006101000a81548173ffffffffffffffffffffffffffffffffffffffff021916908373ffffffffffffffffffffffffffffffffffffffff160217905550806001800160006101000a81548173ffffffffffffffffffffffffffffffffffffffff021916908373ffffffffffffffffffffffffffffffffffffffff16021790555050506113178061010c6000396000f3006060604052600436106100ba576000357c0100000000000000000000000000000000000000000000000000000000900463ffffffff1680630b74b620146100ca578063238bfba2146101345780636785b500146101ad5780636cb30fee146102175780637709bc78146102a55780638da5cb5b146102f65780639d76ea581461034b578063b32c65c8146103a0578063c87965721461042e578063ddca3f4314610443578063f26c6aed1461046c578063f2fde38b146104ee575b34156100c557600080fd5b600080fd5b34156100d557600080fd5b6100dd610527565b6040518080602001828103825283818151815260200191508051906020019060200280838360005b83811015610120578082015181840152602081019050610105565b505050509050019250505060405180910390f35b341561013f57600080fd5b61016b600480803573ffffffffffffffffffffffffffffffffffffffff169060200190919050506107d5565b604051808273ffffffffffffffffffffffffffffffffffffffff1673ffffffffffffffffffffffffffffffffffffffff16815260200191505060405180910390f35b34156101b857600080fd5b6101c0610896565b6040518080602001828103825283818151815260200191508051906020019060200280838360005b838110156102035780820151818401526020810190506101e8565b505050509050019250505060405180910390f35b341561022257600080fd5b61024e600480803573ffffffffffffffffffffffffffffffffffffffff1690602001909190505061092d565b6040518080602001828103825283818151815260200191508051906020019060200280838360005b83811015610291578082015181840152602081019050610276565b505050509050019250505060405180910390f35b34156102b057600080fd5b6102dc600480803573ffffffffffffffffffffffffffffffffffffffff16906020019091905050610a03565b604051808215151515815260200191505060405180910390f35b341561030157600080fd5b610309610a16565b604051808273ffffffffffffffffffffffffffffffffffffffff1673ffffffffffffffffffffffffffffffffffffffff16815260200191505060405180910390f35b341561035657600080fd5b61035e610a3b565b604051808273ffffffffffffffffffffffffffffffffffffffff1673ffffffffffffffffffffffffffffffffffffffff16815260200191505060405180910390f35b34156103ab57600080fd5b6103b3610a67565b6040518080602001828103825283818151815260200191508051906020019080838360005b838110156103f35780820151818401526020810190506103d8565b50505050905090810190601f1680156104205780820380516001836020036101000a031916815260200191505b509250505060405180910390f35b341561043957600080fd5b610441610aa0565b005b341561044e57600080fd5b610456610cd2565b6040518082815260200191505060405180910390f35b341561047757600080fd5b6104ac600480803573ffffffffffffffffffffffffffffffffffffffff16906020019091908035906020019091905050610cd7565b604051808273ffffffffffffffffffffffffffffffffffffffff1673ffffffffffffffffffffffffffffffffffffffff16815260200191505060405180910390f35b34156104f957600080fd5b610525600480803573ffffffffffffffffffffffffffffffffffffffff16906020019091905050611182565b005b61052f6112d7565b60008061053a6112d7565b60008060008060009250600096505b6001600201805490508710156105b85761059f60016002018881548110151561056e57fe5b906000526020600020900160009054906101000a900473ffffffffffffffffffffffffffffffffffffffff16610a03565b156105ab576001830192505b8680600101975050610549565b600283026040518059106105c95750595b9080825280602002602001820160405250945060009550600096505b6001600201805490508710156107c85761063b60016002018881548110151561060a57fe5b906000526020600020900160009054906101000a900473ffffffffffffffffffffffffffffffffffffffff16610a03565b1515610646576107bb565b60016002018781548110151561065857fe5b906000526020600020900160009054906101000a900473ffffffffffffffffffffffffffffffffffffffff1693508373ffffffffffffffffffffffffffffffffffffffff16636d2381b36040518163ffffffff167c0100000000000000000000000000000000000000000000000000000000028152600401608060405180830381600087803b15156106e957600080fd5b5af115156106f657600080fd5b5050506040518051906020018051906020018051906020018051905050925050915081858781518110151561072757fe5b9060200190602002019073ffffffffffffffffffffffffffffffffffffffff16908173ffffffffffffffffffffffffffffffffffffffff168152505060018601955080858781518110151561077857fe5b9060200190602002019073ffffffffffffffffffffffffffffffffffffffff16908173ffffffffffffffffffffffffffffffffffffffff16815250506001860195505b86806001019750506105e5565b8497505050505050505090565b6000600173__ChannelManagerLibrary_________________638a1c00e29091846040518363ffffffff167c0100000000000000000000000000000000000000000000000000000000028152600401808381526020018273ffffffffffffffffffffffffffffffffffffffff1673ffffffffffffffffffffffffffffffffffffffff1681526020019250505060206040518083038186803b151561087857600080fd5b5af4151561088557600080fd5b505050604051805190509050919050565b61089e6112d7565b600160020180548060200260200160405190810160405280929190818152602001828054801561092357602002820191906000526020600020905b8160009054906101000a900473ffffffffffffffffffffffffffffffffffffffff1673ffffffffffffffffffffffffffffffffffffffff16815260200190600101908083116108d9575b5050505050905090565b6109356112d7565b600160040160008373ffffffffffffffffffffffffffffffffffffffff1673ffffffffffffffffffffffffffffffffffffffff1681526020019081526020016000208054806020026020016040519081016040528092919081815260200182805480156109f757602002820191906000526020600020905b8160009054906101000a900473ffffffffffffffffffffffffffffffffffffffff1673ffffffffffffffffffffffffffffffffffffffff16815260200190600101908083116109ad575b50505050509050919050565b600080823b905060008111915050919050565b6000809054906101000a900473ffffffffffffffffffffffffffffffffffffffff1681565b60006001800160009054906101000a900473ffffffffffffffffffffffffffffffffffffffff16905090565b6040805190810160405280600581526020017f302e322e5f00000000000000000000000000000000000000000000000000000081525081565b600080600160000160009054906101000a900473ffffffffffffffffffffffffffffffffffffffff1673ffffffffffffffffffffffffffffffffffffffff166370a08231306040518263ffffffff167c0100000000000000000000000000000000000000000000000000000000028152600401808273ffffffffffffffffffffffffffffffffffffffff1673ffffffffffffffffffffffffffffffffffffffff168152602001915050602060405180830381600087803b1515610b6257600080fd5b5af11515610b6f57600080fd5b505050604051805190509150600160000160009054906101000a900473ffffffffffffffffffffffffffffffffffffffff1673ffffffffffffffffffffffffffffffffffffffff1663a9059cbb6000809054906101000a900473ffffffffffffffffffffffffffffffffffffffff16846040518363ffffffff167c0100000000000000000000000000000000000000000000000000000000028152600401808373ffffffffffffffffffffffffffffffffffffffff1673ffffffffffffffffffffffffffffffffffffffff16815260200182815260200192505050602060405180830381600087803b1515610c6357600080fd5b5af11515610c7057600080fd5b50505060405180519050905060011515811515141515610c8f57600080fd5b7f49d512bf9cb224241c05691e73eb9fab078cf350c7dbcbcf66788f1fc0cc8b0b4383604051808381526020018281526020019250505060405180910390a15050565b603281565b6000806000806032600160000160009054906101000a900473ffffffffffffffffffffffffffffffffffffffff1673ffffffffffffffffffffffffffffffffffffffff1663dd62ed3e33306040518363ffffffff167c0100000000000000000000000000000000000000000000000000000000028152600401808373ffffffffffffffffffffffffffffffffffffffff1673ffffffffffffffffffffffffffffffffffffffff1681526020018273ffffffffffffffffffffffffffffffffffffffff1673ffffffffffffffffffffffffffffffffffffffff16815260200192505050602060405180830381600087803b1515610dd257600080fd5b5af11515610ddf57600080fd5b5050506040518051905010151515610df657600080fd5b610dff866107d5565b925060008373ffffffffffffffffffffffffffffffffffffffff16141515610eb9577fda8d2f351e0f7c8c368e631ce8ab15973e7582ece0c347d75a5cff49eb899eb73387604051808373ffffffffffffffffffffffffffffffffffffffff1673ffffffffffffffffffffffffffffffffffffffff1681526020018273ffffffffffffffffffffffffffffffffffffffff1673ffffffffffffffffffffffffffffffffffffffff1681526020019250505060405180910390a15b600173__ChannelManagerLibrary_________________63941583a5909188886040518463ffffffff167c0100000000000000000000000000000000000000000000000000000000028152600401808481526020018373ffffffffffffffffffffffffffffffffffffffff1673ffffffffffffffffffffffffffffffffffffffff168152602001828152602001935050505060206040518083038186803b1515610f6257600080fd5b5af41515610f6f57600080fd5b505050604051805190509150600160000160009054906101000a900473ffffffffffffffffffffffffffffffffffffffff1673ffffffffffffffffffffffffffffffffffffffff166323b872dd338460326040518463ffffffff167c0100000000000000000000000000000000000000000000000000000000028152600401808473ffffffffffffffffffffffffffffffffffffffff1673ffffffffffffffffffffffffffffffffffffffff1681526020018373ffffffffffffffffffffffffffffffffffffffff1673ffffffffffffffffffffffffffffffffffffffff1681526020018281526020019350505050602060405180830381600087803b151561107757600080fd5b5af1151561108457600080fd5b505050604051805190509050600115158115151415156110a357600080fd5b7f7bd269696a33040df6c111efd58439c9c77909fcbe90f7511065ac277e175dac82338888604051808573ffffffffffffffffffffffffffffffffffffffff1673ffffffffffffffffffffffffffffffffffffffff1681526020018473ffffffffffffffffffffffffffffffffffffffff1673ffffffffffffffffffffffffffffffffffffffff1681526020018373ffffffffffffffffffffffffffffffffffffffff1673ffffffffffffffffffffffffffffffffffffffff16815260200182815260200194505050505060405180910390a181935050505092915050565b6000809054906101000a900473ffffffffffffffffffffffffffffffffffffffff1673ffffffffffffffffffffffffffffffffffffffff163373ffffffffffffffffffffffffffffffffffffffff161415156111dd57600080fd5b600073ffffffffffffffffffffffffffffffffffffffff168173ffffffffffffffffffffffffffffffffffffffff161415151561121957600080fd5b8073ffffffffffffffffffffffffffffffffffffffff166000809054906101000a900473ffffffffffffffffffffffffffffffffffffffff1673ffffffffffffffffffffffffffffffffffffffff167f8be0079c531659141344cd1fd0a4f28419497f9722a3daafe3b4186f6b6457e060405160405180910390a3806000806101000a81548173ffffffffffffffffffffffffffffffffffffffff021916908373ffffffffffffffffffffffffffffffffffffffff16021790555050565b6020604051908101604052806000815250905600a165627a7a72305820e1d6e920a69a0435539d0de9d7829fe5d72f6d686ca02b09ffa951bf74a2ad3a0029a165627a7a72305820cb1ac19064c5814126311fe4c443e2e05f5ea963cff68808d70d14e12e6ff50d0029",
  "source": "pragma solidity ^0.4.11;\n\nimport \"./ChannelManagerContract.sol\";\n\ncontract Registry {\n    string constant public contract_version = \"0.2._\";\n\n    mapping(address => address) public registry;\n    address[] public tokens;\n\n    event TokenAdded(address token_address, address channel_manager_address);\n\n    modifier addressExists(address _address) {\n        require(registry[_address] != 0x0);\n        _;\n    }\n\n    modifier doesNotExist(address _address) {\n        // Check if it's already registered or token contract is invalid.\n        // We assume if it has a valid totalSupply() function it's a valid Token contract\n        require(registry[_address] == 0x0);\n        Token token = Token(_address);\n        token.totalSupply();\n        _;\n    }\n\n    /// @notice Register a new ERC20 token\n    /// @param token_address Address of the token\n    /// @return The address of the channel manager\n    function addToken(address token_address)\n        doesNotExist(token_address)\n        public\n        returns (address)\n    {\n        address manager_address;\n\n        manager_address = new ChannelManagerContract(token_address,token_address);\n\n        registry[token_address] = manager_address;\n        tokens.push(token_address);\n\n        TokenAdded(token_address, manager_address);\n\n        return manager_address;\n    }\n\n    /// @notice Get the ChannelManager address for a specific token\n    /// @param token_address The address of the given token\n    /// @return Address of channel manager\n    function channelManagerByToken(address token_address)\n        addressExists(token_address)\n        public\n        constant\n        returns (address)\n    {\n        return registry[token_address];\n    }\n\n    /// @notice Get all registered tokens\n    /// @return addresses of all registered tokens\n    function tokenAddresses()\n        public\n        constant\n        returns (address[])\n    {\n        return tokens;\n    }\n\n    /// @notice Get the addresses of all channel managers for all registered tokens\n    /// @return addresses of all channel managers\n    function channelManagerAddresses()\n        public\n        constant\n        returns (address[])\n    {\n        uint i;\n        address token_address;\n        address[] memory result;\n\n        result = new address[](tokens.length);\n\n        for (i = 0; i < tokens.length; i++) {\n            token_address = tokens[i];\n            result[i] = registry[token_address];\n        }\n\n        return result;\n    }\n\n    function () public { revert(); }\n}\n",
  "sourcePath": "/Users/amitshah/Documents/nodejs/javascript/blockchain-service/smart-contracts/contracts/Registry.sol",
  "compiler": {
    "name": "solc",
    "version": "0.4.21+commit.dfe3193c.Emscripten.clang"
  },
  "schemaVersion": "2.0.0",
  "updatedAt": "2018-04-19T23:53:38.901Z"
}