{
  "contractName": "Utils",
  "abi": [
    {
      "constant": true,
      "inputs": [],
      "name": "contract_version",
      "outputs": [
        {
          "name": "",
          "type": "string"
        }
      ],
      "payable": false,
      "stateMutability": "view",
      "type": "function"
    },
    {
      "constant": true,
      "inputs": [
        {
          "name": "channel",
          "type": "address"
        }
      ],
      "name": "contractExists",
      "outputs": [
        {
          "name": "",
          "type": "bool"
        }
      ],
      "payable": false,
      "stateMutability": "view",
      "type": "function"
    }
  ],
  "bytecode": "0x6060604052341561000f57600080fd5b6101a88061001e6000396000f30060606040526004361061004c576000357c0100000000000000000000000000000000000000000000000000000000900463ffffffff1680637709bc7814610051578063b32c65c8146100a2575b600080fd5b341561005c57600080fd5b610088600480803573ffffffffffffffffffffffffffffffffffffffff16906020019091905050610130565b604051808215151515815260200191505060405180910390f35b34156100ad57600080fd5b6100b5610143565b6040518080602001828103825283818151815260200191508051906020019080838360005b838110156100f55780820151818401526020810190506100da565b50505050905090810190601f1680156101225780820380516001836020036101000a031916815260200191505b509250505060405180910390f35b600080823b905060008111915050919050565b6040805190810160405280600581526020017f302e322e5f000000000000000000000000000000000000000000000000000000815250815600a165627a7a723058201d70ae8854fd995c9452bdbefdbfb97093daf9fe2a5221faee927f05df5b5a480029",
  "source": "pragma solidity ^0.4.11;\n\ncontract Utils {\n    string constant public contract_version = \"0.2._\";\n    /// @notice Check if a contract exists\n    /// @param channel The address to check whether a contract is deployed or not\n    /// @return True if a contract exists, false otherwise\n    function contractExists(address channel) public constant returns (bool) {\n        uint size;\n\n        assembly {\n            size := extcodesize(channel)\n        }\n\n        return size > 0;\n    }\n}\n",
  "sourcePath": "/Users/amitshah/Documents/nodejs/javascript/blockchain-service/smart-contracts/contracts/Utils.sol",
  "compiler": {
    "name": "solc",
    "version": "0.4.21+commit.dfe3193c.Emscripten.clang"
  },
  "schemaVersion": "2.0.0",
  "updatedAt": "2018-04-16T21:08:32.659Z"
}